:020000040800F2
:1000000000000320F92F0008612C0008632C000871
:10001000652C0008672C0008692C0008000000000F
:100020000000000000000000000000006B2C000831
:100030006D2C0008000000006F2C0008712C0008D7
:1000400049300008493000084930000849300008AC
:10005000493000084930000849300008493000089C
:10006000493000084930000849300008493000088C
:10007000493000084930000849300008493000087C
:10008000493000084930000849300008493000086C
:10009000493000084930000849300008792C000830
:1000A000493000084930000849300008493000084C
:1000B000892C0008992C00084930000849300008B4
:1000C000493000084930000849300008493000082C
:1000D00049300008792800084930000849300008F4
:1000E000493000084930000849300008493000080C
:1000F00049300008493000084930000849300008FC
:1001000049300008493000084930000849300008EB
:1001100049300008493000084930000849300008DB
:1001200049300008493000084930000849300008CB
:1001300049300008493000084930000849300008BB
:1001400049300008493000084930000849300008AB
:10015000493000084930000849300008493000089B
:10016000493000084930000849300008493000088B
:1001700049300008493000084930000800000000FC
:10018000493000084930000849300008493000086B
:10019000493000084930000849300008493000085B
:0C01A000493000084930000849300008D0
:1001B00010B5054C237833B9044B13B10448AFF3A1
:1001C00000800123237010BD4C04002000000000BB
:1001D000706F000808B5034B1BB103490348AFF328
:1001E000008008BD0000000050040020706F00086F
:1001F00081F0004102E000BF83F0004330B54FEAD8
:1002000041044FEA430594EA050F08BF90EA020F44
:100210001FBF54EA000C55EA020C7FEA645C7FEAD7
:10022000655C00F0E2804FEA5454D4EB5555B8BFFA
:100230006D420CDD2C4480EA020281EA030382EA6B
:10024000000083EA010180EA020281EA0303362DFD
:1002500088BF30BD11F0004F4FEA01314FF4801CD0
:100260004CEA113102D0404261EB410113F0004FE2
:100270004FEA03334CEA133302D0524263EB430399
:1002800094EA050F00F0A780A4F10104D5F1200E37
:100290000DDB02FA0EFC22FA05F2801841F1000192
:1002A00003FA0EF2801843FA05F359410EE0A5F166
:1002B00020050EF1200E012A03FA0EFC28BF4CF097
:1002C000020C43FA05F3C01851EBE37101F000454D
:1002D00007D54FF0000EDCF1000C7EEB00006EEB5A
:1002E0000101B1F5801F1BD3B1F5001F0CD34908E4
:1002F0005FEA30004FEA3C0C04F101044FEA44523B
:1003000012F5800F80F09A80BCF1004F08BF5FEAC1
:10031000500C50F1000041EB045141EA050130BDA1
:100320005FEA4C0C404141EB0101013C28BFB1F5B3
:10033000801FE9D291F0000F04BF01460020B1FAFE
:1003400081F308BF2033A3F10B03B3F120020CDAD1
:100350000C3208DD02F1140CC2F10C0201FA0CF0AF
:1003600021FA02F10CE002F11402D8BFC2F1200C14
:1003700001FA02F120FA0CFCDCBF41EA0C019040CA
:10038000E41AA2BF01EB0451294330BD6FEA040413
:100390001F3C1CDA0C340EDC04F11404C4F12002FE
:1003A00020FA04F001FA02F340EA030021FA04F310
:1003B00045EA030130BDC4F10C04C4F1200220FA67
:1003C00002F001FA04F340EA0300294630BD21FAA5
:1003D00004F0294630BD94F0000F83F4801306BF6B
:1003E00081F480110134013D4EE77FEA645C18BF5F
:1003F0007FEA655C29D094EA050F08BF90EA020FF6
:1004000005D054EA000C04BF1946104630BD91EAED
:10041000030F1EBF0021002030BD5FEA545C05D1F0
:100420004000494128BF41F0004130BD14F580042F
:100430003CBF01F5801130BD01F0004545F0FE41A3
:1004400041F470014FF0000030BD7FEA645C1ABFD8
:10045000194610467FEA655C1CBF0B46024650EA0F
:10046000013406BF52EA033591EA030F41F400213B
:1004700030BD00BF90F0000F04BF0021704730B5C1
:100480004FF4806404F132044FF000054FF0000196
:1004900050E700BF90F0000F04BF0021704730B557
:1004A0004FF4806404F1320410F0004548BF40422C
:1004B0004FF000013EE700BF42004FEAE2014FEA81
:1004C00031014FEA02701FBF12F07F4393F07F4F5C
:1004D00081F06051704732F07F4208BF704793F05F
:1004E0007F4F04BF41F40021704730B54FF4607472
:1004F00001F0004521F000411CE700BF50EA010275
:1005000008BF704730B54FF000050AE050EA01021D
:1005100008BF704730B511F0004502D5404261EB8D
:1005200041014FF4806404F132045FEA915C3FF4CE
:10053000D8AE4FF003025FEADC0C18BF03325FEA6B
:10054000DC0C18BF033202EBDC02C2F1200300FA1C
:1005500003FC20FA02F001FA03FE40EA0E0021FA41
:1005600002F11444BDE600BF70B54FF0FF0C4CF42F
:10057000E06C1CEA11541DBF1CEA135594EA0C0FE1
:1005800095EA0C0F00F0DEF82C4481EA030621EA1C
:100590004C5123EA4C5350EA013518BF52EA033557
:1005A00041F4801143F4801338D0A0FB02CE4FF009
:1005B0000005E1FB02E506F00042E0FB03E54FF039
:1005C0000006E1FB03569CF0000F18BF4EF0010E31
:1005D000A4F1FF04B6F5007F64F5407404D25FEA2D
:1005E0004E0E6D4146EB060642EAC62141EA5551E0
:1005F0004FEAC52040EA5E504FEACE2EB4F1FD0C22
:1006000088BFBCF5E06F1ED8BEF1004F08BF5FEA9F
:10061000500E50F1000041EB045170BD06F0004651
:1006200046EA010140EA020081EA0301B4EB5C04FE
:10063000C2BFD4EB0C0541EA045170BD41F48011F6
:100640004FF0000E013C00F3AB8014F1360FDEBF1B
:10065000002001F0004170BDC4F10004203C35DAF7
:100660000C341BDC04F11404C4F1200500FA05F37A
:1006700020FA04F001FA05F240EA020001F000421B
:1006800021F0004110EBD37021FA04F642EB060191
:100690005EEA430E08BF20EAD37070BDC4F10C04BB
:1006A000C4F1200500FA04F320FA05F001FA04F27F
:1006B00040EA020001F0004110EBD37041F100016B
:1006C0005EEA430E08BF20EAD37070BDC4F1200576
:1006D00000FA05F24EEA020E20FA04F301FA05F2DE
:1006E00043EA020321FA04F001F0004121FA04F286
:1006F00020EA020000EBD3705EEA430E08BF20EA56
:10070000D37070BD94F0000F0FD101F0004640008F
:1007100041EB010111F4801F08BF013CF7D041EA11
:10072000060195F0000F18BF704703F00046520015
:1007300043EB030313F4801F08BF013DF7D043EAE6
:100740000603704794EA0C0F0CEA135518BF95EA9C
:100750000C0F0CD050EA410618BF52EA4306D1D123
:1007600081EA030101F000414FF0000070BD50EA42
:10077000410606BF1046194652EA430619D094EACC
:100780000C0F02D150EA013613D195EA0C0F05D1B6
:1007900052EA03361CBF104619460AD181EA03010A
:1007A00001F0004141F0FE4141F470014FF00000C2
:1007B00070BD41F0FE4141F4780170BD70B54FF05D
:1007C000FF0C4CF4E06C1CEA11541DBF1CEA1355DD
:1007D00094EA0C0F95EA0C0F00F0A7F8A4EB0504BF
:1007E00081EA030E52EA03354FEA013100F08880B6
:1007F0004FEA03334FF0805545EA131343EA12637F
:100800004FEA022245EA111545EA10654FEA002633
:100810000EF000419D4208BF964244F1FD0404F5EC
:10082000407402D25B084FEA3202B61A65EB030548
:100830005B084FEA32024FF480104FF4002CB6EB05
:10084000020E75EB030E22BFB61A754640EA0C0085
:100850005B084FEA3202B6EB020E75EB030E22BFC5
:10086000B61A754640EA5C005B084FEA3202B6EB06
:10087000020E75EB030E22BFB61A754640EA9C00C5
:100880005B084FEA3202B6EB020E75EB030E22BF95
:10089000B61A754640EADC0055EA060E18D04FEA53
:1008A000051545EA16754FEA06164FEAC30343EAF3
:1008B00052734FEAC2025FEA1C1CC0D111F4801FC0
:1008C0000BD141EA00014FF000004FF0004CB6E7B9
:1008D00011F4801F04BF01430020B4F1FD0C88BF58
:1008E000BCF5E06F3FF6AFAEB5EB030C04BFB6EB63
:1008F000020C5FEA500C50F1000041EB045170BD56
:100900000EF0004E4EEA113114EB5C04C2BFD4EB82
:100910000C0541EA045170BD41F480114FF0000E06
:10092000013C90E645EA060E8DE60CEA135594EA82
:100930000C0F08BF95EA0C0F3FF43BAF94EA0C0F85
:100940000AD150EA01347FF434AF95EA0C0F7FF4FA
:1009500025AF104619462CE795EA0C0F06D152EA4E
:1009600003353FF4FDAE1046194622E750EA410632
:1009700018BF52EA43067FF4C5AE50EA41047FF443
:100980000DAF52EA43057FF4EBAE12E74FF0FF3CA8
:1009900006E000BF4FF0010C02E000BF4FF0010C79
:1009A0004DF804CD4FEA410C7FEA6C5C4FEA430CF2
:1009B00018BF7FEA6C5C1BD001B050EA410C0CBF41
:1009C00052EA430C91EA030F02BF90EA020F0020A3
:1009D000704710F1000F91EA030F58BF994208BF0A
:1009E00090422CBFD8176FEAE37040F001007047C7
:1009F0004FEA410C7FEA6C5C02D150EA013C07D11E
:100A00004FEA430C7FEA6C5CD6D152EA033CD3D068
:100A10005DF8040B704700BF8446104662468C4662
:100A20001946634600E000BF01B5FFF7B7FF002895
:100A300048BF10F1000F01BD4DF808EDFFF7F4FFBE
:100A40000CBF012000205DF808FB00BF4DF808ED49
:100A5000FFF7EAFF34BF012000205DF808FB00BF6C
:100A60004DF808EDFFF7E0FF94BF012000205DF88E
:100A700008FB00BF4DF808EDFFF7CEFF94BF012043
:100A800000205DF808FB00BF4DF808EDFFF7C4FF3C
:100A900034BF012000205DF808FB00BF4FEA41028F
:100AA000B2F1E04324BFB3F5001CDCF1FE5C0DD9CC
:100AB00001F0004C4FEAC0024CEA5070B2F1004F16
:100AC00040EB830008BF20F00100704711F0804F19
:100AD00021D113F13872BCBF01F00040704741F4DE
:100AE00080114FEA5252C2F11802C2F1200C10FAE2
:100AF0000CF320FA02F018BF40F001004FEAC123C6
:100B00004FEAD32303FA0CFC40EA0C0023FA02F369
:100B10004FEA4303CCE77FEA625307D150EA01333F
:100B20001EBF4FF0FE4040F44000704701F000400F
:100B300040F0FE4040F40000704700BF80F00040ED
:100B400002E000BF81F0004142001FBF5FEA4103A5
:100B500092EA030F7FEA226C7FEA236C6AD04FEAA5
:100B60001262D2EB1363C1BFD218414048404140EA
:100B7000B8BF5B42192B88BF704710F0004F40F49C
:100B8000000020F07F4018BF404211F0004F41F4B8
:100B9000000121F07F4118BF494292EA030F3FD084
:100BA000A2F1010241FA03FC10EB0C00C3F1200397
:100BB00001FA03F100F0004302D5494260EB400026
:100BC000B0F5000F13D3B0F1807F06D340084FEA91
:100BD000310102F10102FE2A51D2B1F1004F40EB86
:100BE000C25008BF20F0010040EA030070474900EE
:100BF00040EB0000013A28BFB0F5000FEDD2B0FA8B
:100C000080FCACF1080CB2EB0C0200FA0CF0AABFAD
:100C100000EBC25052421843BCBFD040184370474B
:100C200092F0000F81F4000106BF80F40000013251
:100C3000013BB5E74FEA41037FEA226C18BF7FEA28
:100C4000236C21D092EA030F04D092F0000F08BF6A
:100C50000846704790EA010F1CBF0020704712F051
:100C60007F4F04D1400028BF40F00040704712F190
:100C700000723CBF00F50000704700F0004343F0F5
:100C8000FE4040F4000070477FEA226216BF08462B
:100C90007FEA23630146420206BF5FEA412390EAEE
:100CA000010F40F4800070474FF0000304E000BFE4
:100CB00010F0004348BF40425FEA000C08BF704795
:100CC00043F0964301464FF000001CE050EA010259
:100CD00008BF70474FF000030AE000BF50EA01026E
:100CE00008BF704711F0004302D5404261EB41015B
:100CF0005FEA010C02BF84460146002043F0B64380
:100D000008BFA3F18053A3F50003BCFA8CF2083AA4
:100D1000A3EBC25310DB01FA02FC634400FA02FCAD
:100D2000C2F12002BCF1004F20FA02F243EB0200B4
:100D300008BF20F00100704702F1200201FA02FC16
:100D4000C2F1200250EA4C0021FA02F243EB020009
:100D500008BF20EADC7070474FF0FF0C1CEAD0524D
:100D60001EBF1CEAD15392EA0C0F93EA0C0F6FD00E
:100D70001A4480EA010C400218BF5FEA41211ED0EC
:100D80004FF0006343EA501043EA5111A0FB0131D8
:100D90000CF00040B1F5000F3EBF490041EAD371AD
:100DA0005B0040EA010062F17F02FD2A1DD8B3F129
:100DB000004F40EBC25008BF20F00100704790F098
:100DC000000F0CF0004C08BF49024CEA502040EAEA
:100DD00051207F3AC2BFD2F1FF0340EAC2507047B0
:100DE00040F400004FF00003013A5DDC12F1190FEE
:100DF000DCBF00F000407047C2F10002410021FA60
:100E000002F1C2F1200200FA02FC5FEA310040F177
:100E1000000053EA4C0308BF20EADC70704792F0F0
:100E2000000F00F0004C02BF400010F4000F013A28
:100E3000F9D040EA0C0093F0000F01F0004C02BF23
:100E4000490011F4000F013BF9D041EA0C018FE792
:100E50000CEAD15392EA0C0F18BF93EA0C0F0AD098
:100E600030F0004C18BF31F0004CD8D180EA0100BE
:100E700000F00040704790F0000F17BF90F0004F57
:100E8000084691F0000F91F0004F14D092EA0C0F39
:100E900001D142020FD193EA0C0F03D14B0218BFCC
:100EA000084608D180EA010000F0004040F0FE4012
:100EB00040F40000704740F0FE4040F440007047AE
:100EC0004FF0FF0C1CEAD0521EBF1CEAD15392EA2D
:100ED0000C0F93EA0C0F69D0A2EB030280EA010C1D
:100EE00049024FEA402037D04FF0805343EA1111B6
:100EF00043EA10130CF000408B4238BF5B0042F114
:100F00007D024FF4000C8B4224BF5B1A40EA0C00B8
:100F1000B3EB510F24BFA3EB510340EA5C00B3EBEA
:100F2000910F24BFA3EB910340EA9C00B3EBD10FD8
:100F300024BFA3EBD10340EADC001B0118BF5FEA2A
:100F40001C1CE0D1FD2A3FF650AF8B4240EBC25053
:100F500008BF20F0010070470CF0004C4CEA502014
:100F60007F32C2BFD2F1FF0340EAC250704740F463
:100F700000004FF00003013A37E792F0000F00F055
:100F8000004C02BF400010F4000F013AF9D040EAD3
:100F90000C0093F0000F01F0004C02BF490011F467
:100FA000000F013BF9D041EA0C0195E70CEAD1535F
:100FB00092EA0C0F08D142027FF47DAF93EA0C0F46
:100FC0007FF470AF084676E793EA0C0F04D14B022A
:100FD0003FF44CAF08466EE730F0004C18BF31F0DC
:100FE000004CCAD130F000427FF45CAF31F00043D6
:100FF0007FF43CAF5FE700BF4FF0FF3C06E000BF6F
:101000004FF0010C02E000BF4FF0010C4DF804CD91
:101010004FEA40024FEA41037FEA226C18BF7FEAA1
:10102000236C11D001B052EA530C18BF90EA010FA3
:1010300058BFB2EB030088BFC81738BF6FEAE17032
:1010400018BF40F0010070477FEA226C02D15FEACE
:10105000402C05D17FEA236CE4D15FEA412CE1D03A
:101060005DF8040B704700BF844608466146FFE701
:101070000FB5FFF7C9FF002848BF10F1000F0FBDE3
:101080004DF808EDFFF7F4FF0CBF012000205DF8DC
:1010900008FB00BF4DF808EDFFF7EAFF34BF012061
:1010A00000205DF808FB00BF4DF808EDFFF7E0FFFA
:1010B00094BF012000205DF808FB00BF4DF808ED4B
:1010C000FFF7D2FF94BF012000205DF808FB00BFAE
:1010D0004DF808EDFFF7C8FF34BF012000205DF890
:1010E00008FB00BF42000ED2B2F1FE4F0BD34FF00F
:1010F0009E03B3EB126209D44FEA002343F000438E
:1011000023FA02F070474FF00000704712F1610FB0
:1011100001D1420202D14FF0FF3070474FF0000082
:10112000704700BF53B94AB9002908BF00281CBF47
:101130004FF0FF314FF0FF3000F074B9ADF1080C03
:101140006DE904CE00F006F8DDF804E0DDE90223E5
:1011500004B070472DE9F047089E0D4604468846C6
:10116000002B4DD18A42944668D9B2FA82F252B12C
:1011700001FA02F3C2F1200120FA01F10CFA02FC9B
:1011800041EA030894404FEA1C45210CB8FBF5FEE8
:101190001FFA8CF705FB1E8341EA03430EFB07F1A0
:1011A00099420BD91CEB03030EF1FF3080F01E8136
:1011B000994240F21B81AEF1020E63445B1AA4B265
:1011C000B3FBF5F005FB103344EA034400FB07F7DB
:1011D000A7420AD91CEB040400F1FF3380F0088118
:1011E000A74240F2058164440238E41B40EA0E4005
:1011F00000211EB1D4400023C6E90043BDE8F087BA
:101200008B4208D9002E00F0EE800021C6E90005CF
:101210000846BDE8F087B3FA83F100294AD1AB4212
:1012200002D3824200F2F980841A65EB03030120A5
:101230009846002EE2D0C6E90048DFE702B9FFDE9B
:10124000B2FA82F2002A40F09180A1EB0C054FEA3D
:101250001C471FFA8CFE0121B5FBF7F307FB135067
:10126000250C45EA00450EFB03F0A84208D91CEB0B
:10127000050503F1FF3802D2A84200F2CB804346B5
:101280002D1AA4B2B5FBF7F007FB105544EA05444C
:101290000EFB00FEA64508D91CEB040400F1FF3547
:1012A00002D2A64500F2BB802846A4EB0E0440EA19
:1012B00003409EE7C1F120078B4022FA07FC4CEA6D
:1012C000030C20FA07F405FA01F31C43FD404FEA32
:1012D0001C4900FA01F3B5FBF9F8200C1FFA8CFE4B
:1012E00009FB185540EA054508FB0EF0A84202FA32
:1012F00001F20BD91CEB050508F1FF3A80F088805C
:10130000A84240F28580A8F1020865442D1AA4B2D3
:10131000B5FBF9F009FB105544EA054500FB0EFE4C
:10132000AE4508D91CEB050500F1FF346CD2AE4583
:101330006AD90238654440EA0840A0FB0294A5EB54
:101340000E05A542C846A64656D353D05EB1B3EBB0
:10135000080265EB0E0505FA07F722FA01F3CD4006
:101360001F43C6E900750021BDE8F087C2F12003E4
:1013700020FA03F10CFA02FC25FA03F395400D4321
:101380004FEA1C471FFA8CFEB3FBF7F107FB113045
:101390002B0C43EA004301FB0EF0984204FA02F4DE
:1013A00008D91CEB030301F1FF382FD298422DD945
:1013B000023963441B1AADB2B3FBF7F007FB1033DD
:1013C00045EA034500FB0EF3AB4208D91CEB0505CB
:1013D00000F1FF3816D2AB4214D902386544ED1A39
:1013E00040EA014138E73146304607E78646E5E600
:1013F0001846FAE64B45A9D2B9EB020864EB0C0E8D
:101400000138A3E74046EAE7204694E74146D1E7A2
:10141000D0467BE7023B654432E7084609E764446F
:10142000023842E7704700BF4FEA410C7FEA6C5C2C
:1014300002D150EA013C0AD14FEA430C7FEA6C5CCE
:1014400002D152EA033C02D14FF0000070474FF046
:101450000100704700B585B08DF80C008DF80D10B7
:101460004FF0FF330093022303AAEC21024802F05D
:101470009DFC05B05DF804FBA004002030B587B0EA
:101480008DF80F000B4C4FF0FF35009501230DF147
:101490000F02EC21204602F089FC009501230DF19A
:1014A0001702EC21204602F03DFD9DF8170007B021
:1014B00030BD00BFA004002008B543780178890042
:1014C00041EA431149B290F902301943C9B2F420FC
:1014D000FFF7C0FF08BD08B503784178890041EAED
:1014E000431149B290F902301943C9B2F520FFF710
:1014F000B1FF08BD30B583B000F05EFE8820FFF775
:10150000BDFF05468920FFF7B9FF03029BB2524C8D
:101510002268581910808A20FFF7B0FF05468B20FB
:10152000FFF7ACFF03029BB22268581950808C2051
:10153000FFF7A4FF05468D20FFF7A0FF03029BB233
:101540002268581990808E20FFF798FF05468F205B
:10155000FFF794FF03029BB222685819D0809020B5
:10156000FFF78CFF05469120FFF788FF03029BB22F
:101570002268581910819220FFF780FF05469320BA
:10158000FFF77CFF03029BB2226858195081942018
:10159000FFF774FF05469520FFF770FF03029BB22B
:1015A0002268581990819620FFF768FF054697201A
:1015B000FFF764FF03029BB222685819D08198207C
:1015C000FFF75CFF05469920FFF758FF03029BB227
:1015D0002268581910829A20FFF750FF05469B2079
:1015E000FFF74CFF03029BB22268581950829C20DF
:1015F000FFF744FF05469D20FFF740FF03029BB223
:101600002268581990829E20FFF738FF05469F20D8
:10161000FFF734FF03029BB222685819D082B6212B
:10162000E020FFF717FF04248DF8044001258DF812
:10163000055003238DF806300DEB0400FFF73CFF47
:101640008DF800508DF8014000238DF80230684677
:10165000FFF741FF03B030BD000000200000000094
:101660002DE9F84F05467A4B1868FEF713FF002264
:10167000784BFEF779FF0022774BFEF7BDFD06465B
:101680000F4602460B46FEF76FFF80468946734BB6
:101690001C68B4F91000FEF7FDFE02460B464046FA
:1016A0004946FEF761FF00224FF07C53FEF75CFFD6
:1016B00080468946B4F90E00FEF7ECFE32463B4602
:1016C000FEF752FF02460B46FEF798FD42464B4698
:1016D000FEF794FD0022624BFEF746FF80468946E6
:1016E000B4F90C00FEF7D6FE00225E4BFEF73CFF7D
:1016F00002460B4640464946FEF780FD82468B4631
:10170000B4F90A00FEF7C6FE32463B46FEF72CFF50
:1017100032463B46FEF728FF00224FF07B53FEF790
:1017200023FF80468946B4F90800FEF7B3FE32462F
:101730003B46FEF719FF02460B4640464946FEF778
:101740005DFD00224FF07B53FEF70EFF00224FF0AD
:101750007C53FEF709FF0022434BFEF74FFD064680
:101760000F46E088FEF786FE02460B4630463946B5
:10177000FEF7FAFE06460F4600220023FFF75CF94B
:1017800000285DD12846FEF785FE02460B46002064
:101790003649FEF731FD804689460022344B5046DB
:1017A0005946FEF7E1FE02460B4640464946FEF723
:1017B00023FD25A3D3E90023FEF7D6FE32463B46A0
:1017C000FEF7FCFF06460F46B4F91600FEF762FE70
:1017D00032463B46FEF7C8FE32463B46FEF7C4FEA5
:1017E00000224FF07853FEF7BFFE80468946B4F9D9
:1017F0001400FEF74FFE32463B46FEF7B5FE0022D0
:101800004FF07C53FEF7B0FE02460B464046494679
:10181000FEF7F4FC80468946B4F91200FEF73AFE62
:1018200002460B4640464946FEF7E8FC0022114BB3
:10183000FEF79AFE32463B46FEF7E0FCBDE8F88F25
:1018400000200021FAE700BF00000000006AB84055
:10185000800400200000E03F0040EF400000002036
:101860000000D03F0000F0400000F03F0000304199
:101870000000303F0000B03F38B5F920FFF7FEFD13
:101880000546F820FFF7FAFD0446F720FFF7F6FDBE
:10189000240144EA0034C5F307102043FFF7E0FEBB
:1018A00038BD2DE9F04186B005464FF000088DF8AF
:1018B00017804FF47A770297012401940DF11706EF
:1018C000009623466B22D02102F0AAFC07238DF854
:1018D000173002970194009623461922D0212846FA
:1018E00002F09EFC8DF81780029701940096234623
:1018F0001C22D021284602F093FC8DF81780029715
:101900000194009623461B22D021284602F088FC31
:1019100006B0BDE8F08170B586B00E4615461C468F
:101920004FF47A7302930623019304AB00930123CF
:101930003B22D02102F026FD9DF810209DF81130A9
:1019400043EA022333809DF812209DF8133043EAC6
:1019500002232B809DF814209DF8153043EA0223C2
:10196000238006B070BD70B586B00E4615461C4685
:101970004FF47A7302930623019304AB009301237F
:101980004322D02102F0FEFC9DF810209DF811307A
:1019900043EA022333809DF812209DF8133043EA76
:1019A00002232B809DF814209DF8153043EA022372
:1019B000238006B070BD2DE9F04F87B080460F46FA
:1019C00016460021FFF766FB002854D14FF6FF7B37
:1019D00000213846FFF75EFB002851D14FF6FF7A11
:1019E00000213046FFF756FB00284ED14FF6FF731B
:1019F0000593102502954FF6FF7401944FF4784932
:101A0000CDF80090042342465A21422000F05EFDAA
:101A100002950194CDF8009004233A466E214220AD
:101A200000F054FD02950194CDF800900423324655
:101A30008221422000F04AFD012602960195009481
:101A40005B462D225A21322000F046FC0296019579
:101A5000009453462D226E21322000F03DFC029668
:101A600001950094059B2D228221322000F034FC48
:101A700007B0BDE8F08F28F000484FF4784BA7E797
:101A800027F000474FF4784AAAE726F000464FF4C3
:101A900078430593ADE700002DE9F04F8BB0814608
:101AA000884617461846FFF703F90646BDF9500069
:101AB000FFF7FEF80546BDF95400FFF7F9F80446B4
:101AC0004846FFF7F5F883464046FFF7F1F88246AF
:101AD0003846FFF7EDF801901F4B1F68394638462E
:101AE000FFF73AF902901D4BD3F80090494638466B
:101AF000FFF732F903901A4BD3F80080414638467D
:101B0000FFF72AF9049049464846FFF725F9059062
:101B1000144B1F6839464846FFF71EF906904146A8
:101B20004046FFF719F9079039464046FFF714F988
:101B3000814639463846FFF70FF9074629463046B1
:101B4000FFF70AF92146FFF707F90021FFF798FA96
:101B500050B10BB0BDE8F08F0400002090040020CD
:101B60009404002098040020A8495846FFF7F4F890
:101B70000890A6495046FFF7EFF80990A34901984D
:101B8000FFF7EAF8019031463046FFF7E5F8804666
:101B900029462846FFF7E0F801464046FEF7D4FF05
:101BA000804621462046FFF7D7F801464046FEF71B
:101BB000CBFFFEF781FC04F04BFCFEF76FFF804685
:101BC00001463046FFF77CF9064641462846FFF7B6
:101BD00077F9054641462046FFF772F98346049996
:101BE0000698FEF7AFFF0146FEF7AEFF04464946F2
:101BF0000398FEF7A9FF0146FEF7A6FF8146059967
:101C00000298FEF79FFF0799FEF79CFF3946FEF703
:101C10009BFF804601462846FFF79EF882464946CC
:101C20005846FFF799F801465046FEF78BFF82466B
:101C300021465846FFF790F8834641463046FFF765
:101C40008BF801465846FEF77DFF804649463046F0
:101C5000FFF782F8064621462846FFF77DF8014641
:101C60003046FEF76FFF054669495046FFF774F8A6
:101C7000684C2168FEF768FF814620606449404651
:101C8000FFF76AF8644C2168FEF75EFF06462060A5
:101C90005F492846FFF760F8DFF880B1DBF80010F5
:101CA000FEF752FF0446CBF800005D495046FFF7AF
:101CB00053F80899FEF748FF01464846FEF744FFEF
:101CC000074657494046FFF747F80999FEF73CFF9A
:101CD00001463046FEF738FF064651492846FFF7D1
:101CE0003BF80199FEF730FF01462046FEF72CFF36
:101CF0000546DFF83091D9F800A00AF100400297BC
:101D00003946FFF729F80446DFF81C81D8F800B0FF
:101D1000039631465846FFF71FF801462046FEF766
:101D200011FF0446414E3368049529460193184635
:101D3000FFF712F801462046FEF704FF3449FFF78B
:101D40000BF83B4F3968FEF7FFFE054638600299F5
:101D5000FFF702F8044604995846FEF7FDFF0146D6
:101D60002046FEF7F1FE044603990198FEF7F4FFC2
:101D700001462046FEF7E6FE2549FEF7EDFF014647
:101D80005046FEF7E1FE0446C9F8000003992846D4
:101D9000FEF7E2FF824604992046FEF7DDFF01468A
:101DA0005046FEF7CFFE824602990198FEF7D4FF17
:101DB00001465046FEF7C8FE1549FEF7CDFF014625
:101DC0005846FEF7C1FE8246C8F80000049928462E
:101DD000FEF7C2FF834603992046FEF7BDFF01468A
:101DE0005846FEF7B1FE834602995046FEF7B4FF0F
:101DF00001465846FEF7A6FE0549FEF7ADFF01462F
:101E00000198FEF7A1FE834614E000BF89A18B3A3A
:101E10006F12033C84040020880400208C040020FE
:101E200000009041900400209404002098040020B9
:101E300004000020306029462846FEF78DFF054645
:101E400021462046FEF788FF01462846FEF77CFE25
:101E5000044651465046FEF77FFF01462046FEF7F6
:101E600073FE044659465846FEF776FF0146204663
:101E7000FEF76AFEFEF720FB04F0EAFAFEF70EFE1C
:101E8000044601463868FFF71BF8054638602146CE
:101E9000D9F80000FFF714F88346C9F8000021467E
:101EA000D8F80000FFF70CF88246C8F80000214679
:101EB0003068FFF705F8044630604FF0404158465F
:101EC000FEF74AFF01462046FEF746FF0446294634
:101ED0002846FEF739FE01465046FEF73DFF014613
:101EE0002046FEF731FEFEF7E7FA04F087FA4AA330
:101EF000D3E90023FEF738FBFEF7D0FD169B1860F0
:101F0000D8F8005029462846FEF71EFE8346316861
:101F1000FEF722FF824638680146FEF715FED9F823
:101F200000402146FEF718FF01465046FEF70CFE22
:101F300082464FF040412046FEF70EFF0146204604
:101F4000FEF70AFF044659462846FEF705FF0146FC
:101F50002046FEF7F7FD4FF07E51FEF7F5FDFEF748
:101F6000ABFA04460D465046FEF7A6FA22462B462B
:101F700004F06CFA28A3D3E90023FEF7F5FAFEF784
:101F80008DFD169B5860D9F800000146FEF7DCFD78
:101F9000D8F800502946FEF7DFFE80463868014633
:101FA000FEF7D2FD34682146FEF7D6FE01464046D4
:101FB000FEF7CAFD06464FF040412846FEF7CCFE2C
:101FC00001462846FEF7C8FE054621462046FEF794
:101FD000BBFD01462046FEF7BFFE01462846FEF740
:101FE000B1FD4FF07E51FEF7AFFDFEF765FA0446F6
:101FF0000D463046FEF760FA22462B4604F026FADC
:1020000005A3D3E90023FEF7AFFAFEF747FD169BC1
:1020100098609EE5AFF3008000000020DCA54C40F6
:1020200010B50446042001F0E3F8014B1C6010BD1C
:102030009C04002010B44FF0E02254690B4B1B6845
:1020400000FB03FC9369002104E0E01A0244114400
:10205000614509D21A464FF0E0239B699A42FAD0B3
:10206000F3D9D21A1144F3E710BC70479C04002046
:1020700038B50546002404E04FF47A70FFF7DAFF24
:102080000134A542F8D838BD2DE9F0418AB00024CA
:10209000059406940794089409940094414B1A6B94
:1020A00042F020021A631A6B02F020020092009A9A
:1020B00001941A6B42F080021A631A6B02F08002DC
:1020C0000192019A02941A6B42F001021A631A6B90
:1020D00002F001020292029A03941A6B42F0020289
:1020E0001A631A6B02F002020392039A04941A6BA9
:1020F00042F040021A631B6B03F040030493049BFD
:10210000294F22460121384601F0DEF9274E2246AA
:102110004FF40251304601F0D7F9DFF8948022469F
:102120004FF48041404601F0CFF901250595069511
:102130000794089405A9384601F0C8F88023059350
:10214000069507950327089705A9304601F0BEF8C4
:102150004FF48043059306950794089405A94046DB
:1021600001F0B4F8C02305934FF4041306930794C9
:1021700005A9104801F0AAF84FF4005305930695FD
:102180000794089705A9304601F0A0F82246214699
:10219000172000F0D3FF172001F008F80AB0BDE8BF
:1021A000F08100BF0038024000000240001C0240E5
:1021B000000402400018024008B51348134B0360A6
:1021C000134B436000238360C3604FF4804202617D
:1021D00043618361C361036201F00AFD50B90021CC
:1021E000094802F04BFA40B90021074802F068FAAA
:1021F00030B908BD00F06EFBF1E700F06BFBF3E7D0
:1022000000F068FBF5E700BFA00400200058004084
:10221000A086010030B589B0002303930493059391
:10222000069307930268154B9A4201D009B030BD5E
:1022300000250195124C236B43F080032363236B2D
:1022400003F080030193019B302303931223049333
:1022500001230593032306930423079303A9094845
:1022600001F034F80295236C43F480032364236C5B
:1022700003F480030293029BD8E700BF005800409C
:1022800000380240001C02402DE9F84381460F4609
:1022900015469846BDF82060013B013A9BB292B2C8
:1022A00000F0A4F908E0304600F082F90134A4B24D
:1022B000AC42F8D30137BFB2474501D24C46F7E7ED
:1022C000BDE8F88310B50B461446024600F08EF9BF
:1022D000204600F06DF910BD2DE9F04F87B0814622
:1022E00003911E46BDF8405002959DF844B09DF8FC
:1022F00048704FEA5B0A4FEA1B1303FB0BF504958A
:10230000203AD2B2059200EB5B0292B20BEB0103D2
:102310009BB2013B013A9BB292B200F067F94D4685
:102320004FF00008CDF804B0B34633E0234B059AD4
:1023300003EB021313F808603BE0029800F038F951
:102340000AE046FA04F313F0010F14D10135ADB2DF
:10235000A5EB0903534514D00134E4B2072C15D87A
:10236000002FEED146FA04F313F0010FE5D05846E2
:1023700000F01EF9F0E75A4603992846FFF7A2FF3E
:10238000E4E7039B01339BB203934D4608F1010838
:102390001FFA88F8049B98450DD2019B102BC5D0DD
:1023A000019B202B07D1064B059A03EB821313F8F0
:1023B00008600024D2E707B0BDE8F08F886F0008FE
:1023C000787500082DE9F04784B004468846154624
:1023D0001F46BDF830A09DF834609DF838900DE0A0
:1023E000CDF808900196CDF800A03B464146204626
:1023F000FFF772FF04EB5604A4B201352A78002AD5
:10240000EED104B0BDE8F0870246012002E002FBF5
:1024100000F019464B1EDBB20029F8D170470000CE
:102420002DE9F04F87B08046049117461D46BDF850
:1024300040300593BDF844B09DF848904FEA590AE2
:10244000002634461FE004FB0A8000230293CDF8E7
:102450000490CDF800B0059B2022049980B2FFF7CC
:102460003BFF0EE0303204FB0A8000230293CDF8DC
:102470000490CDF800B0059BD2B2049980B2FFF76A
:102480002BFF0134E4B2AC421AD2291BC9B2013984
:10249000C9B20A20FFF7B8FFB7FBF0F00A4AA2FB67
:1024A0000032D20802EB8202A0EB4202D2B2002E2E
:1024B000D8D16B1E9C42D5DA002AC4D00126D1E7C0
:1024C00007B0BDE8F08F00BFCDCCCCCC2DE9F04FEC
:1024D00087B0074604911E46BDF840B0BDF844A041
:1024E0009DF848804FEA580924491046FEF734FC0D
:1024F000FEF7F8FD0590002511E004F1300205FB20
:10250000097000230293CDF80480CDF800A05B464B
:10251000D2B2049980B2FFF7DFFE0135EDB2AE42D0
:1025200028D9711BC9B20139C9B20A20FFF76CFF63
:10253000059BB3FBF0F0124CA4FB0034E40804EB61
:102540008404A0EB4404E4B2B01E8542D5D100FB64
:10255000097000230293CDF80480CDF800A05B46FB
:102560002E22049980B2FFF7B7FE0135EDB2013695
:10257000F6B2C2E707B0BDE8F08F00BF0000C84266
:10258000CDCCCCCC00B583B08DF80700022301225E
:102590000DF107010348006802F0E1FC03B05DF8AB
:1025A00004FB00BF0800002008B5FFF7EBFF08BDE3
:1025B00010B50446000AFFF7E5FFE0B2FFF7E2FFBF
:1025C00010BD000038B50446074D00228021284682
:1025D00000F07AFF2046FFF7D5FF01228021284630
:1025E00000F072FF38BD00BF001C0240F8B507467E
:1025F0000D4616461C462A20FFF7E4FF3846FFF733
:10260000D7FF3046FFF7D4FF2B20FFF7DBFF28462C
:10261000FFF7CEFF2046FFF7CBFF2C20FFF7D2FFBE
:10262000F8BD000010B5674C00224FF40051204661
:1026300000F04AFF4FF4C870FFF71AFD01224FF473
:102640000051204600F040FFC820FFF711FD642034
:10265000FFF70EFD1120FFF7B5FF7820FFF708FD0B
:102660003620FFF7AFFF0020FFF79EFF3A20FFF76D
:10267000A9FF0520FFF798FFB220FFF7A3FF0C206A
:10268000FFF792FF0C20FFF78FFF0020FFF78CFF72
:102690003320FFF789FF3320FFF786FFB720FFF7CE
:1026A00091FF3520FFF780FFBB20FFF78BFF19203C
:1026B000FFF77AFFC020FFF785FF2C20FFF774FF9C
:1026C000C220FFF77FFF0120FFF76EFFC320FFF757
:1026D00079FF1220FFF768FFC420FFF773FF202067
:1026E000FFF762FFC620FFF76DFF0F20FFF75CFFCB
:1026F000D020FFF767FFA420FFF756FFA120FFF7C8
:1027000053FFE020FFF75EFFD020FFF74DFF0420CE
:10271000FFF74AFF0D20FFF747FF1120FFF744FFA7
:102720001320FFF741FF2B20FFF73EFF3F20FFF76D
:102730003BFF5420FFF738FF4C20FFF735FF1820F0
:10274000FFF732FF0D20FFF72FFF0B20FFF72CFFC5
:102750001F20FFF729FF2320FFF726FFE120FFF7C7
:1027600031FFD020FFF720FF0420FFF71DFF0C20D2
:10277000FFF71AFF1120FFF717FF1320FFF714FFD1
:102780002C20FFF711FF3F20FFF70EFF4420FFF73B
:102790000BFF5120FFF708FF2F20FFF705FF1F2039
:1027A000FFF702FF1F20FFF7FFFE2020FFF7FCFED0
:1027B0002320FFF7F9FE2120FFF704FF2920FFF770
:1027C00001FF10BD001C0240402802D0802807D025
:1027D0007047074B01221A60064B40225A61F5E709
:1027E000054B01221A60034B80225A61F0E700BFBB
:1027F0000C050020003C0140100500200368B3F1E7
:10280000804F00D0704710B5164B1B68012B04D0C9
:10281000154B1B68012B12D010BD144C23680133DB
:1028200023604FF48041124800F054FE114B1B68A6
:1028300022685A639A630B4B00221A60E8E70B4C3C
:102840002368013B23604FF48041094800F042FEB9
:10285000084B1B6822685A639A63034B00221A6074
:10286000DAE700BF0C050020100500200C00002056
:10287000000402400C06002010B5134C204603F063
:102880005FFB03221149204603F0B9FC00B110BDE3
:10289000322303220D49204603F05FFA0A4B1B68DE
:1028A0001B6813F0400FF9D0084B9B78452B05D0DF
:1028B00000220121064800F007FEE8E70122114648
:1028C000034800F001FEE2E7540600201C0500204A
:1028D0000000024072B6FEE700B595B0302200213C
:1028E00008A803F0C9FC00230393049305930693FF
:1028F000079301931B4A116C41F080511164126CD3
:1029000002F080520192019A029317490A6822F458
:10291000404242F480420A600A6802F44042029255
:10292000029A012208924FF4803209920E9308A86D
:1029300001F0E8FE90B90F230393012304930021D3
:1029400005914FF4A05306934FF48053079303A8C7
:1029500002F026F920B915B05DF804FBFFF7BAFFC5
:10296000FFF7B8FF00380240007000402DE9F04F3B
:1029700085B000F091FBFFF7AFFFFFF785FB00F09C
:10298000E1F800F093F900F079FA00F0C7F9FFF7E9
:1029900013FC00F0D5FA584C204602F0BDFC574815
:1029A00002F0BAFC564D0021284602F0B1FF042186
:1029B000284602F0ADFF204602F070FC514C226820
:1029C000D36843F02003D3606420FFF729FBFFF7AF
:1029D00029FE4D48FEF765FFFEF78CFD4FF6FF75AB
:1029E0000095F0231A4600210846FFF74DFC002011
:1029F00002901023019300954FF47843434A372106
:102A0000FFF7E0FC142306224149204603F0A5F914
:102A1000DFF800A1DFF80091DFF800813A4C53465F
:102A20004A4641462046FEF776FF3D4F3D4E3E4D1D
:102A30003B46324629462046FEF795FF3B4C029422
:102A4000BAF900300193B9F900300093B8F90030B9
:102A5000B7F90020B6F90010B5F90000FFF71CF82F
:102A6000FEF70AFF06460F462368DFF8C490C9F850
:102A700000306368DFF8BCA0CAF80030A368DFF854
:102A8000B8B0CBF800302D4B1868FEF711F90246AC
:102A90004FF01008CDF808804FF6FF7501954FF400
:102AA00078440094052337215020FFF70FFD30466E
:102AB0003946FDF7F3FF0246CDF8088001950094F2
:102AC00008231E215020FFF701FDCDF80880019555
:102AD000009402231A4A9278A0213220FFF7A0FC2A
:102AE000C82000F005FBDBF80020DAF80010D9F868
:102AF0000000FEF760FF8BE77C050020C405002086
:102B00000C06002054060020A0040020388D000888
:102B1000448D000804050020020500200005002067
:102B20000A0500200805002006050020F404002006
:102B30001405002018050020200500200C000020AE
:102B40001C05002008B50E480E4B03604FF482733D
:102B5000436000238360C360036143614FF40072EC
:102B600082610822C2610362436283620A23C362F4
:102B700002F096F900B908BDFFF7ACFEFBE700BF15
:102B80002405002000500140F0B589B000230393D4
:102B900004930593069307930268204B9A4201D051
:102BA00009B0F0BD0022009203F56843596C41F46E
:102BB00080115964596C01F48011009100990192BF
:102BC000196B41F020011963196B01F0200101918B
:102BD000019902921A6B42F080021A631B6B03F098
:102BE00080030293029B4FF4007303930227049720
:102BF00001260596032506950524079403A9084890
:102C000000F064FB40230393049705960695079410
:102C100003A9044800F05AFBC2E700BF005001407E
:102C200000140240001C024082B0002100910B4BB6
:102C30005A6C42F480425A645A6C02F48042009208
:102C4000009A01911A6C42F080521A641B6C03F0D6
:102C500080530193019B02B0704700BF00380240CF
:102C6000FEE7FEE7FEE7FEE7FEE7704770477047C6
:102C700008B500F02BFA08BD08B5402000F034FC80
:102C8000802000F031FC08BD08B5024802F08DFB41
:102C900008BD00BF7C05002008B5024802F085FB96
:102CA00008BD00BFC40500207047000000B587B014
:102CB0000023029303930493059300930193164812
:102CC0004FF08042026040F23F624260836040F217
:102CD000F312C2600361836102F082FC90B94FF489
:102CE0008053029302A90C4802F084FD68B90023C6
:102CF000009301936946084802F08CFE40B907B082
:102D00005DF804FBFFF7E6FDE9E7FFF7E3FDEEE71B
:102D1000FFF7E0FDF3E700BF7C05002000B587B0BA
:102D200000230293039304930593009301931548A2
:102D3000154A026040F23F624260836040F2F31243
:102D4000C2600361836102F04BFC90B94FF4805381
:102D5000029302A90B4802F04DFD68B900230093CD
:102D600001936946074802F055FE40B907B05DF887
:102D700004FBFFF7AFFDE9E7FFF7ACFDEEE7FFF778
:102D8000A9FDF3E7C40500200004004000B585B0AC
:102D90000368B3F1804F08D01F4A93421AD01F4AEC
:102DA00093422BD005B05DF804FB0021019103F59F
:102DB0000E331A6C42F001021A641B6C03F001031B
:102DC0000193019B0A461C2000F0B8F91C2000F07A
:102DD000EDF9E7E700210291114B1A6C42F0020273
:102DE0001A641B6C03F002030293029B0A461D2027
:102DF00000F0A4F91D2000F0D9F9D3E700230393D4
:102E0000074B1A6C42F004021A641B6C03F00403B3
:102E10000393039BC6E700BF000400400008004086
:102E20000038024000B587B000230193029303935A
:102E30000493059302680E4B9A4202D007B05DF8E6
:102E400004FB002300930B4B1A6B42F002021A633F
:102E50001B6B03F002030093009BC023019302232A
:102E60000293059301A9044800F030FAE6E700BF99
:102E700000080040003802400004024000B58FB056
:102E800000230A930B930C930D93089309930193DA
:102E90000293039304930593069307932648274AC6
:102EA000026027224260836040F2E732C260036121
:102EB000836102F095FB68BB4FF480530A930AA923
:102EC0001D4802F097FC40BB1B4802F0B5FB38BB25
:102ED00000230893099308A9174802F09BFD10BB33
:102EE00060230193002202920392059201A91248E5
:102EF00002F006FCD0B97023019304220DEB02010D
:102F00000D4802F0FDFBA0B90B48FFF78BFF0FB097
:102F10005DF804FBFFF7DEFCCEE7FFF7DBFCD3E751
:102F2000FFF7D8FCD4E7FFF7D5FCD9E7FFF7D2FCD1
:102F3000E1E7FFF7CFFCE7E70C06002000080040C0
:102F400008B50A480A4B03604FF416534360002348
:102F50008360C36003610C2242618361C36102F03C
:102F6000CCFE00B908BDFFF7B5FCFBE75406002016
:102F70000010014010B588B000230393049305931B
:102F800006930793026803F1804303F588339A425E
:102F900001D008B010BD0024019403F594335A6C9D
:102FA00042F010025A645A6C02F010020192019A27
:102FB00002941A6B42F001021A631B6B03F00103C7
:102FC0000293029B4FF4C0630393022304930123F3
:102FD0000593032306930723079303A9054800F0ED
:102FE00075F922462146252000F0A8F8252000F09A
:102FF000DDF8CEE700000240DFF834D0FFF754FEE2
:103000000C480D490D4A002302E0D458C450043343
:10301000C4188C42F9D30A4A0A4C002301E0136019
:103020000432A242FBD303F003F9FFF79FFC704781
:1030300000000320000000204C040020F48D000854
:103040004C040020A4060020FEE7000010B5044652
:103050000E4B18784FF47A73B3FBF0F30C4A1068F8
:10306000B0FBF3F000F0B0F868B90F2C01D90120E3
:103070000AE0002221464FF0FF3000F05FF8054BD8
:103080001C60002000E0012010BD00BF14000020E3
:10309000100000201800002008B50B4B1A6842F4FD
:1030A00000721A601A6842F480621A601A6842F468
:1030B00080721A60032000F02FF80F20FFF7C6FF80
:1030C000FFF7B2FD002008BD003C0240034A116832
:1030D000034B1B780B441360704700BF9C06002015
:1030E00014000020014B1868704700BF9C060020A8
:1030F00038B50446FFF7F6FF0546B4F1FF3F02D0AE
:10310000044B1B781C44FFF7EDFF401BA042FAD391
:1031100038BD00BF14000020074AD36823F4E063E1
:103120001B041B0C000200F4E060034343F0BF6388
:1031300043F40033D360704700ED00E000B5194B55
:10314000DB68C3F30223C3F1070CBCF1040F28BFF3
:103150004FF0040C03F1040EBEF1060F18D9033B27
:103160004FF0FF3E0EFA0CFC21EA0C0199400EFADA
:1031700003F322EA0303194300280BDB0901C9B258
:1031800000F1604000F5614080F800135DF804FB39
:103190000023E5E700F00F000901C9B2024B195402
:1031A000F4E700BF00ED00E014ED00E0002807DBCD
:1031B00000F01F02400901239340024A42F82030E8
:1031C000704700BF00E100E00138B0F1807F0BD212
:1031D0004FF0E0235861054AF02182F823100020C7
:1031E000986107221A6170470120704700ED00E0E6
:1031F000042806D04FF0E022136923F00403136182
:1032000070474FF0E022136943F0040313617047E5
:1032100070B50446866DFFF765FF94F83530DBB274
:10322000022B06D080236365002384F8343001200C
:1032300070BD05462268136823F0160313602268E8
:10324000536923F080035361236CE3B12268136850
:1032500023F0080313602268136823F0010313604E
:1032600023681B6813F0010F11D0FFF73BFF431BCE
:10327000052BF5D920236365032084F8350000234E
:1032800084F83430D4E7A36C002BDFD1E3E7E26DA0
:103290003F239340B360012384F83530002084F845
:1032A0003400C5E790F83530DBB2022B03D0802321
:1032B000436501207047052380F8353002681368A4
:1032C00023F00103136000207047000000230F2B40
:1032D00000F2F18070B582B061E085685E00032481
:1032E000B44025EA0405CC68B4402C4384604568AA
:1032F00025EA02054C68C4F300129A402A43426052
:103300005BE0DC08083450F8246003F00702950005
:103310000F22AA4026EA020E0A69AA4042EA0E02D9
:1033200040F824205DE0092200E0002202FA0EF2BB
:103330002A430234604D45F82420604A94686FEABD
:103340000C0224EA0C054E6816F4801F01D04CEAEA
:1033500004055A4CA560E46802EA04054E6816F4B8
:10336000001F01D04CEA0405544CE560646802EA91
:1033700004054E6816F4003F01D04CEA04054F4C9A
:103380006560246822404D6815F4803F01D04CEA06
:1033900004024A4C226001330F2B00F28A80012282
:1033A0009A400C6804EA020C32EA0404F3D14C6837
:1033B00004F00304013C012C8FD94A6802F0030297
:1033C000032A09D0C4685D000322AA4024EA02044B
:1033D0008A68AA402243C2604A6802F00302022AB5
:1033E0008FD004684FEA430E032202FA0EF224EA59
:1033F00002044A6802F0030202FA0EF2224302605B
:103400004A6812F4403FC6D0002201922C4A546C04
:1034100044F480445464526C02F480420192019A54
:103420009C08A51C244A52F8255003F003024FEAD9
:10343000820E0F2202FA0EF225EA0205214A90427C
:103440003FF473AF02F58062904222D002F58062B1
:10345000904220D002F5806290421ED002F5806238
:1034600090421CD002F5806290421AD002F5806230
:10347000904218D002F58062904216D002F5806228
:10348000904214D002F5806290423FF44CAF0A2281
:103490004CE701224AE7022248E7032246E70422DA
:1034A00044E7052242E7062240E707223EE70822DA
:1034B0003CE702B070BD704700380140003C01405D
:1034C00000380240000002400AB1816170470904DF
:1034D00081617047436901EA030221EA030141EA7D
:1034E000024181617047000008B5054B5B690342EA
:1034F00000D108BD024B5861FFF766F9F9E700BF3C
:10350000003C014003685A6912F4806F01D1002029
:1035100070476FF480625A6100230363202280F8B1
:103520003D2080F83E30026C42F00402026480F8D4
:103530003C30012070472DE9F04106460C46174605
:1035400098463BE0FFF7CEFD069BC01A404502D8E7
:10355000B8F1000F32D1012D18D033689B6924EAED
:1035600003039BB2B3FA83F35B099F4226D1002386
:103570003363202286F83D2086F83E30326C42F0DC
:103580002002326486F83C30012027E033685B6912
:1035900024EA03039BB2B3FA83F35B09E5E73368DC
:1035A0005B6924EA030C1FFA8CFCBCFA8CFC4FEA22
:1035B0005C1C674511D1B8F1FF3FC3D1C4F3074587
:1035C000012DECD033689B6924EA030C1FFA8CFCB4
:1035D000BCFA8CFC4FEA5C1CEBE70020BDE8F081F4
:1035E0002DE9F84305460E469046994653E01A6881
:1035F00042F400721A602B686FF480625A610023F3
:103600002B63202285F83D2085F83E302A6C42F05D
:1036100004022A6485F83C3001204AE0FFF762FD8D
:10362000A0EB0900404502D8B8F1000F33D1012FBB
:1036300017D02B689B6926EA03039BB2003B18BF97
:10364000012343B300232B63202285F83D2085F816
:103650003E302A6C42F020022A6485F83C3001207A
:1036600027E02B685B6926EA03039BB2003B18BF87
:103670000123E6E72B689C6926EA0404A4B2003C17
:1036800018BF0124A4B12B685A6912F4806FAED11F
:10369000B8F1FF3FC2D1C6F30747012FEAD12B682B
:1036A0005C6926EA0404A4B2003C18BF0124E9E7DF
:1036B0000020BDE8F8830000F0B583B004460D4655
:1036C00016461F46C36A082B0DD0012B0BD013F5ED
:1036D000803F08D0036B122B0AD10268136843F4B1
:1036E0008073136004E02268136843F480731360EE
:1036F0000097334600224FF001112046FFF71BFFD1
:1037000080B92369B3F5804F16D1236805F0FE0513
:103710001D613B46324613492046FFF761FFF8B969
:1037200003B0F0BD23681B6813F4807F02D04FF410
:10373000007323640320F3E7EB11226803F0060310
:1037400043F0F00313613B46324607492046FFF73A
:1037500047FF18B92368EDB21D61DAE70120DFE702
:103760000120DDE702000100080001002DE9F04121
:1037700084B004460D4616461F46C26A01680B68AF
:1037800043F480630B60082A0DD0012A0BD012F598
:10379000803F08D0036B112B0AD10268136843F4F1
:1037A0008073136004E02268136843F4807313602D
:1037B0000097334600224FF001112046FFF7BBFE71
:1037C00098B92369B3F5804F19D1236845F00105F5
:1037D000EDB21D613B4632462A492046FFF700FF05
:1037E00000284CD104B0BDE8F08123681B6813F4B5
:1037F000807F02D04FF4007323640320F2E74FEA86
:10380000E51808F00608236848F0F0021A613B4604
:1038100032461D492046FFF7E3FE08B10120E1E7EB
:103820002368EDB21D613B46324616492046FFF73C
:10383000D7FE08B10120D5E7002203922368596919
:103840000391996903910399196841F48071196092
:10385000009733464FF001112046FFF76CFE20B968
:10386000226848F0F1031361B4E723681B6813F47E
:10387000807F02D04FF4007323640320B2E701205D
:10388000B0E700BF020001000800010070B5044667
:103890000D46164623685B6913F0800F21D1204640
:1038A000FFF730FEF8B9B5F1FF3FF3D0FFF71AFC90
:1038B000801BA84201D8002DECD123685B6913F06E
:1038C000800FE7D100232363202284F83D2084F871
:1038D0003E30226C42F02002226484F83C30012009
:1038E00000E0002070BD0120FCE700002DE9F0435E
:1038F00085B004460D4691461F46DDF830800D9E8A
:103900000368196841F480711960009643460022EB
:103910004FF00111FFF70FFE60B9236805F0FE05B7
:103920001D613346424626492046FFF759FE68B1DD
:10393000012008E023681B6813F4807F02D04FF455
:1039400000732364032005B0BDE8F08300230393D4
:1039500023685A6903929B690393039B324641464D
:103960002046FFF793FF30B9012F0FD123685FFA8C
:1039700089F61E61E7E7236C042B01D00120E2E702
:103980002268136843F400731360F7E723684FEA73
:1039900019221A61324641462046FFF777FF20B9C7
:1039A00023685FFA89F61E61CDE7236C042B01D0F2
:1039B0000120C8E72268136843F400731360F7E737
:1039C000020001002DE9F04784B004460D4616467A
:1039D00099460C9FDDF834800268136843F48063D5
:1039E00013600368196841F480711960CDF8008094
:1039F0003B4600224FF00111FFF79DFD70B95FFAC1
:103A000085FA236805F0FE051D6143463A464149A3
:103A10002046FFF7E5FD68B1012008E023681B6838
:103A200013F4807F02D04FF400732364032004B0AA
:103A3000BDE8F0870023039323685A6903929B69CA
:103A40000393039B424639462046FFF71FFF80B988
:103A5000B9F1010F18D12368F6B21E61424639460A
:103A60002046FFF713FF68B3236C042B24D00120FA
:103A7000DDE7236C042B01D00120D8E7226813680E
:103A800043F400731360F7E72368320A1A61424671
:103A900039462046FFF7FAFE18B92368F6B21E61D0
:103AA000DCE7236C042B01D00120C0E722681368F7
:103AB00043F400731360F7E72268136843F400735C
:103AC0001360D4E72268136843F480731360CDF861
:103AD00000803B4600224FF001112046FFF72BFDEE
:103AE00068B922684AF00103136143463A4609491E
:103AF0002046FFF775FD002899D0012097E723683D
:103B00001B6813F4807F02D04FF4007323640320FA
:103B10008DE700BF0200010070B504460D46164651
:103B200023685B6913F0040F21D12046FFF7EAFCFC
:103B3000F8B9B5F1FF3FF3D0FFF7D4FA801BA842E4
:103B400001D8002DECD123685B6913F0040FE7D195
:103B500000232363202284F83D2084F83E30226C29
:103B600042F02002226484F83C30012000E0002072
:103B700070BD0120FCE770B504460D46164614E002
:103B80006FF010025A6100232363202284F83D2045
:103B900084F83E30226C226484F83C30012025E019
:103BA00023685B6913F0400F10D02368586910F048
:103BB000400F1AD1586910F0100FE1D1FFF792FAB7
:103BC000801BA842ECD8002DEFD1E9E70023236346
:103BD000202284F83D2084F83E30226C42F02002FE
:103BE000226484F83C30012000E0002070BD000019
:103BF000002800F0CC8070B5044690F83D30002BD2
:103C000077D0242384F83D302268136823F0010321
:103C100013602268136843F400431360226813683A
:103C200023F40043136001F071F862685A4B9A4222
:103C300064D85A4B98428CBF00230123002B40F0DC
:103C4000A8805749A1FB00318B0C25686A6822F0D7
:103C50003F0242EA91426A6021680A6A22F03F020A
:103C600066684D4DAE424FD8013313430B62216855
:103C7000CA6922F44F4222F0FF026668464B9E4218
:103C80004CD8431E7600B3FBF6F3013340F6FC70CC
:103C9000034278D0C3F30B031343CB6121680B6855
:103CA00023F0C003E269206A024313430B602168DA
:103CB0008B6823F4034323F0FF032269E068024387
:103CC00013438B602168CB6823F0FF036269A0690E
:103CD00002431343CB602268136843F0010313606F
:103CE00000202064202384F83D30206384F83E00C7
:103CF00070BD80F83C30FEF78DFA82E7294B984280
:103D00008CBF0023012399E74FF4967505FB03F35D
:103D1000254DA5FB03539B090133A6E7A368BBB957
:103D2000451E06EB460CB5FBFCF50135C5F30B054E
:103D3000B5FA85F56D0945BBC3B9013806EB4603F5
:103D4000B0FBF3F30133C3F30B0343F40043A3E7E6
:103D5000451E06EB860C0CEB8C0CB5FBFCF5013517
:103D6000C5F30B05B5FA85F56D09E4E7013806EBF7
:103D7000860303EB8303B0FBF3F30133C3F30B03BD
:103D800043F4404388E7042386E7012384E70120C6
:103D900070470120ACE700BFA08601007F841E00B1
:103DA00083DE1B43FF083D00D34D62102DE9F04335
:103DB00085B004460F46914698460C9EFFF792F94F
:103DC000054694F83D00C0B2202804D002273846AA
:103DD00005B0BDE8F0830095192301224F49204624
:103DE000FFF7A9FB002840F0928094F83C30012BAB
:103DF00000F08F80012384F83C3023681A6812F0A9
:103E0000010F03D11A6842F001021A602268136898
:103E100023F400631360212384F83D30102384F8D9
:103E20003E3000232364C4F82490A4F82A80638DD4
:103E300023853B4BE3622B46324639462046FFF74B
:103E40003BFC0746002866D10023039323685A6988
:103E500003929B690393039B11E0236C042B01D015
:103E60000127B4E72268136843F400731360F7E78F
:103E70002A4631462046FFF74FFE00282ED1238DDB
:103E8000002B36D02A4631462046FFF7FFFC00289B
:103E9000E3D1626A236812781A61606A431C636224
:103EA000618D89B2013989B26185238D013B9BB255
:103EB00023852268516911F0040FD9D0002BD7D087
:103EC00043781361636A01336362638D9BB2013B84
:103ED0009BB26385238D013B2385C9E7236C042BAB
:103EE00001D0012773E72268136843F4007313605D
:103EF000F7E72268136843F400731360202384F803
:103F00003D30002384F83E3084F83C305FE70227E0
:103F10005DE702275BE7012759E700BF02001000B9
:103F20000000FFFF2DE9F04387B004460F4691469D
:103F300098460E9EFFF7D6F8054694F83D00C0B2AD
:103F4000202804D00227384607B0BDE8F08300954A
:103F50001923012289492046FFF7EDFA002840F095
:103F60004F8194F83C30012B00F04C81012384F800
:103F70003C3023681A6812F0010F03D11A6842F02E
:103F800001021A602268136823F40063136022237D
:103F900084F83D30102384F83E3000232364C4F8B5
:103FA0002490A4F82A80638D2385754BE3622B4609
:103FB000324639462046FFF7D9FB0746002840F035
:103FC0002381238D5BB9029323685A6902929A690F
:103FD0000292029A1A6842F400721A607AE0012B87
:103FE0000FD0022B1FD02268136843F48063136044
:103FF0000023059323685A6905929B690593059BE5
:1040000068E02268136823F480631360002303933D
:1040100023685A6903929A690392039A1A6842F4D0
:1040200000721A6056E02268136823F480631360FC
:104030002268136843F40063136000230493236829
:104040005A6904929B690493049B43E02A463146D3
:104050002046FFF790FD002840F0D88023681A69B9
:10406000636A1A70636A01336362238D013B23859F
:10407000638D9BB2013B9BB263852BE00095334679
:10408000002240492046FFF756FA002840F0C08041
:104090002268136843F40073136023681A69636A23
:1040A0001A70626A531C6362238D013B2385638D02
:1040B0009BB2013B9BB2638523681B695370636AA3
:1040C00001336362238D013B2385638D9BB2013BEA
:1040D0009BB26385218D002900F08980032953D884
:1040E0000129B3D00229C9D00095334600222549C1
:1040F0002046FFF720FA002840F08C8022681368E1
:1041000023F48063136023681A69636A1A70636A10
:1041100001336362238D013B2385618D89B20139AF
:1041200089B2618500953346002216492046FFF783
:1041300002FA002870D12268136843F400731360F8
:1041400023681A69636A1A70626A531C6362238D5A
:10415000013B2385638D9BB2013B9BB26385236842
:104160001B695370636A01336362238D013B2385AE
:10417000638D9BB2013B9BB26385ABE702001000ED
:104180000000FFFF040001002A4631462046FFF7E9
:10419000F2FC002842D123681A69636A1A70636AC4
:1041A00001336362228D013A92B22285638D9BB204
:1041B000013B9BB263852368596911F0040F89D0D4
:1041C000032A0FD023681A69636A1A70636A01337D
:1041D0006362238D013B2385638D9BB2013B9BB2C0
:1041E000638577E71A6822F480621A60EAE7202381
:1041F00084F83D30002384F83E3084F83C30A2E659
:104200000227A0E602279EE601279CE601279AE600
:10421000012798E6012796E6012794E6012792E612
:104220002DE9F04383B004460F46904699460C9E14
:10423000FEF758FF054694F83D00C0B2202803D091
:10424000022003B0BDE8F0830095192301224B49F9
:104250002046FFF770F9002840F0898094F83C3040
:10426000012B00F08680012384F83C3023681A6813
:1042700012F0010F03D11A6842F001021A6022689D
:10428000136823F400631360212384F83D30402336
:1042900084F83E30002323640A9B6362BDF82C300F
:1042A0006385638D2385364BE362019500964B460B
:1042B000424639462046FFF719FB00285BD1238D83
:1042C000002B35D02A4631462046FFF7DFFA20BBC7
:1042D000626A236812781A61626A531C6362218DD4
:1042E000013989B22185638D9BB2013B9BB2638505
:1042F0002368586910F0040FE1D00029DFD052780C
:104300001A61636A01336362238D013B2385638DE8
:104310009BB2013B9BB26385D1E7236C042B01D098
:1043200001208EE72268136843F400731360F7E7F7
:104330002A4631462046FFF7EFFB50B1236C042B91
:1043400001D001207DE72268136843F400731360F5
:10435000F7E72268136843F400731360202384F89E
:104360003D30002384F83E3084F83C3069E7022079
:1043700067E7022065E7012063E700BF0200100045
:104380000000FFFF2DE9F04387B004460F4690463A
:104390009946109EFEF7A6FE054694F83D00C0B271
:1043A000202804D00227384607B0BDE8F0830095E6
:1043B0001923012288492046FFF7BDF8002840F064
:1043C0004D8194F83C30012B00F04A81012384F8A0
:1043D0003C3023681A6812F0010F03D11A6842F0CA
:1043E00001021A602268136823F400631360222319
:1043F00084F83D30402384F83E30002323640E9B34
:104400006362BDF83C306385638D2385734BE36243
:10441000019500964B46424639462046FFF7D2FAB0
:104420000746002840F01E81238D5BB90293236864
:104430005A6902929A690292029A1A6842F40072C8
:104440001A6075E0012B0AD0022B1AD000230593C5
:1044500023685A6905929B690593059B68E0226869
:10446000136823F4806313600023039323685A695D
:1044700003929A690392039A1A6842F400721A60CE
:1044800056E02268136823F480631360226813687F
:1044900043F4006313600023049323685A69049271
:1044A0009B690493049B43E02A4631462046FFF76C
:1044B00062FB002840F0D88023681A69636A1A708A
:1044C000636A01336362238D013B2385638D9BB255
:1044D000013B9BB263852BE00095334600224049A7
:1044E0002046FFF728F8002840F0C08022681368B3
:1044F00043F40073136023681A69636A1A70626A6E
:10450000531C6362238D013B2385638D9BB2013B6A
:104510009BB2638523681B695370636A01336362CE
:10452000238D013B2385638D9BB2013B9BB2638549
:10453000238D002B00F08980032B53D8012BB3D09F
:10454000022BC9D000953346002225492046FEF7AC
:10455000F2FF002840F08C802268136823F4806307
:10456000136023681A69636A1A70636A01336362AD
:10457000238D013B2385638D9BB2013B9BB26385F9
:1045800000953346002216492046FEF7D4FF002846
:1045900070D12268136843F40073136023681A69AA
:1045A000636A1A70626A531C6362238D013B238520
:1045B000638D9BB2013B9BB2638523681B6953707B
:1045C000636A01336362238D013B2385638D9BB254
:1045D000013B9BB26385ABE7020010000000FFFFC8
:1045E000040001002A4631462046FFF7C4FA00289D
:1045F00042D123681A69636A1A70636A013363627D
:10460000228D013A92B22285638D9BB2013B9BB20F
:1046100063852368596911F0040F89D0032A0FD0EC
:1046200023681A69636A1A70636A01336362238DAF
:10463000013B2385638D9BB2013B9BB2638577E78A
:104640001A6822F480621A60EAE7202384F83D3079
:10465000002384F83E3084F83C30A4E60227A2E62A
:104660000227A0E601279EE601279CE601279AE69D
:10467000012798E6012796E6012794E690F83D3059
:10468000DBB2202B01D002207047242380F83D307C
:104690000268136823F0010313600268536A23F071
:1046A000100353620268536A194351620268136827
:1046B00043F001031360202380F83D300020704751
:1046C00090F83D30DBB2202B01D00220704724232C
:1046D00080F83D300268136823F00103136002681C
:1046E000536A9BB223F00F03194389B251620268E7
:1046F000136843F001031360202380F83D3000204D
:1047000070470000002800F0E08170B582B00446D8
:10471000036813F0010F3BD09F4B9B6803F00C0321
:10472000042B2CD09C4B9B6803F00C03082B21D04E
:104730006368B3F5803F4FD0B3F5A02F52D0964BAE
:104740001A6822F480321A601A6822F480221A60F1
:104750006368002B50D0FEF7C5FC05468E4B1B68E6
:1047600013F4003F14D1FEF7BDFC401B6428F5D9BB
:104770000320B1E1884B5B6813F4800FD8D0864BDF
:104780001B6813F4003F03D06368002B00F09F8187
:10479000236813F0020F54D07F4B9B6813F00C0F6B
:1047A0003ED07D4B9B6803F00C03082B33D0E368AD
:1047B000002B68D0794B01221A60FEF793FC054666
:1047C000754B1B6813F0020F54D1FEF78BFC401B96
:1047D0000228F5D903207FE16F4A136843F4803340
:1047E0001360B5E76C4B1A6842F480221A601A68AD
:1047F00042F480321A60ABE7FEF774FC0546664B64
:104800001B6813F4003FC3D0FEF76CFC401B642808
:10481000F5D9032060E1604B5B6813F4800FC6D1CB
:104820005D4B1B6813F0020F03D0E368012B40F0CF
:104830005081594A136823F0F803216943EAC10300
:104840001360236813F0080F42D063696BB3534BB6
:104850000122C3F8802EFEF745FC05464E4B5B6FE8
:1048600013F0020F34D1FEF73DFC401B0228F5D9AE
:10487000032031E1484A136823F0F803216943EA31
:10488000C1031360DDE7454B00221A60FEF72AFCE6
:104890000546414B1B6813F0020FD2D0FEF722FCF5
:1048A000401B0228F5D9032016E13C4B0022C3F837
:1048B000802EFEF717FC0546374B5B6F13F0020F97
:1048C00006D0FEF70FFC401B0228F5D9032003E1B8
:1048D000236813F0040F77D02F4B1B6C13F0805F0D
:1048E00033D1002301932C4B1A6C42F080521A648E
:1048F0001B6C03F080530193019B0125284B1B681F
:1049000013F4807F23D0A368012B34D0052B38D03B
:10491000214B1A6F22F001021A671A6F22F004026B
:104920001A67A368002B3DD0FEF7DCFB06461A4B46
:104930001B6F13F0020F46D1FEF7D4FB801B41F230
:1049400088339842F3D90320C6E00025D6E7144AFD
:10495000136843F480731360FEF7C4FB0646104BE4
:104960001B6813F4807FCED1FEF7BCFB801B0228AE
:10497000F5D90320B0E0084A136F43F00103136731
:10498000CFE7054B1A6F42F004021A671A6F42F024
:1049900001021A67C5E700BF003802400000474225
:1049A00000700040FEF79EFB0646524B1B6F13F053
:1049B000020F08D0FEF796FB801B41F28833984225
:1049C000F3D9032088E0EDB9A369002B00F08380C0
:1049D000484A926802F00C02082A51D0022B17D0E4
:1049E000454B00221A66FEF77DFB0446414B1B68CF
:1049F00013F0007F42D0FEF775FB001B0228F5D9AB
:104A0000032069E03B4A136C23F080531364DBE717
:104A1000394B00221A66FEF765FB0546354B1B68CD
:104A200013F0007F06D0FEF75DFB401B0228F5D98E
:104A3000032051E0E369226A1343626A43EA821366
:104A4000A26A5208013A43EA0243E26A43EA026375
:104A5000284A5360284B01221A66FEF743FB04469E
:104A6000244B1B6813F0007F06D1FEF73BFB001BB5
:104A70000228F5D903202FE000202DE000202BE0B4
:104A8000012B2BD01B4B5B6803F48001E269914240
:104A900026D103F03F02216A8A4223D1616A47F698
:104AA000C0721A40B2EB811F1ED103F44031A26ADA
:104AB0005208013AB1EB024F18D103F07063E26A79
:104AC000B3EB026F14D1002006E0012070470120F3
:104AD00002E0012000E0002002B070BD0120FBE7F1
:104AE0000120F9E70120F7E70120F5E70120F3E7CE
:104AF0000120F1E7003802400000474208B5254B8D
:104B00009B6803F00C03042B3FD0082B3FD1214BB3
:104B10005A6802F03F025B6813F4800F12D01D4BFD
:104B20005968C1F388111C480023A1FB0001FCF760
:104B3000F9FA184B5B68C3F3014301335B00B0FB28
:104B4000F3F025E0134B5968C1F3881C4FEA4C1170
:104B5000B1EB0C006EEB0E0E4FEA8E1343EA90633E
:104B60008101091A63EB0E03DB0043EA5173C900AC
:104B700011EB0C0C43F10003990200234FEA8C2047
:104B800041EA9C51FCF7CEFAD3E7034800E0034822
:104B900008BD00BF0038024040787D010024F400C9
:104BA000002800F09B8070B50D4604464F4B1B68F3
:104BB00003F00F038B4208D2CBB24C4A1370136838
:104BC00003F00F038B4240F08B80236813F0020F39
:104BD00017D013F0040F04D0454A936843F4E05310
:104BE0009360236813F0080F04D0414A936843F49C
:104BF000604393603E4A936823F0F003A1680B433F
:104C00009360236813F0010F32D06368012B21D029
:104C10009A1E012A25D9364A126812F0020F61D075
:104C200033498A6822F0030213438B60FEF75AFA75
:104C300006462F4B9B6803F00C036268B3EB820FB0
:104C400016D0FEF74FFA801B41F288339842F0D914
:104C5000032042E0264A126812F4003FE0D101200E
:104C60003BE0234A126812F0007FD9D1012034E0E2
:104C70001E4B1B6803F00F03AB4207D9EAB21B4B74
:104C80001A701B6803F00F03AB422DD1236813F099
:104C9000040F06D0164A936823F4E053E1680B43EF
:104CA0009360236813F0080F07D0114A936823F428
:104CB0006043216943EAC1039360FFF71FFF0C4B78
:104CC0009B68C3F303130B4AD35CD8400A4B1860AC
:104CD0000A4B1868FEF7BAF9002070BD0120704732
:104CE0000120FAE70120F8E70120F6E7003C024046
:104CF000003802404C8D00081000002018000020F1
:104D0000014B1868704700BF1000002008B5FFF77E
:104D1000F7FF044B9B68C3F38223034AD35CD8405C
:104D200008BD00BF003802405C8D000808B5FFF7E1
:104D3000E7FF044B9B68C3F34233034AD35CD8407C
:104D400008BD00BF003802405C8D00082DE9F04727
:104D500082B00546884617461E46FEF7C3F90A9BF1
:104D60001B1A03EB0609FEF7BDF982462B4B1B68A5
:104D7000C3F3CB3309FB03F301932B689C6838EA38
:104D800004030CBF4FF0010C4FF0000CBC4540D0A9
:104D9000B6F1FF3FF1D0FEF7A5F9A0EB0A004845B8
:104DA0000AD2B9F1000F07D0019A02B14A46019B1D
:104DB000013B01939146E0E72A68536823F0E00342
:104DC00053606B68B3F5827F0BD0AB6AB3F5005FBD
:104DD00014D0012385F85130002385F8503003208A
:104DE00018E0AB68B3F5004F02D0B3F5806FECD19B
:104DF0002A68136823F040031360E6E72A68136803
:104E000023F4005313602A68136843F400531360BB
:104E1000DFE7002002B0BDE8F08700BF10000020EF
:104E200070B584B004460D46164600920B4601222A
:104E30000221FFF78BFFD0B9174B1B68174AA2FB63
:104E400003235B0D4FF47A7202FB03F30393636851
:104E5000B3F5827F11D0039B3BB1039B013B0393CE
:104E600023689B6813F0800FF5D104B070BD636DAB
:104E700043F0200363650320F7E700962B460022EA
:104E800080212046FFF762FF0028EED0636D43F0DB
:104E9000200363650320E8E710000020819F5E1671
:104EA00000285AD010B50446436A33B94368B3F5B5
:104EB000827F05D00023C36102E0002303614361C8
:104EC0000023A36294F85130002B40D0022384F8D1
:104ED00051302268136823F040031360636803F4C1
:104EE0008273A26802F404421343E26802F400628F
:104EF0001343226902F002021343626902F00102C5
:104F00001343A26902F400721343E26902F038020B
:104F10001343226A02F080021343A26A02F4005291
:104F2000216813430B60638B03F00403626A02F091
:104F30001002216813434B602268D36923F4006395
:104F4000D36100206065012384F8513010BD84F8DE
:104F500050302046FDF718FEB8E7012070472DE9D4
:104F6000F04383B01D4690F85030012B00F0D18003
:104F7000044688469146012380F85030FEF7B2F887
:104F8000074694F85160F6B2012E40F0BA80B8F1AD
:104F9000000F00F0B780B9F1000F00F0B3800323D9
:104FA00084F8513000236365C4F83080A4F834904D
:104FB000A4F83690A363A387E38763642364A3689C
:104FC000B3F5004F1ED023681A6812F0400F03D1CA
:104FD0001A6842F040021A60E368B3F5006F1CD013
:104FE000636813B1B9F1010F55D1226B23681278B0
:104FF0001A73236B01332363E38E9BB2013B9BB295
:10500000E38648E02268136823F0400313602268B7
:10501000136843F480431360D5E7636813B1B9F1B3
:10502000010F15D1226B23681288DA60236B0233DB
:105030002363E38E9BB2013B9BB2E38608E0FEF75D
:1050400051F8C01BA84202D3B5F1FF3F15D1A5B15D
:10505000E38E9BB2002B3CD023689A6812F0020FBB
:10506000EDD0226B1288DA60236B02332363E38E68
:105070009BB2013B9BB2E386EAE7012384F85130FF
:1050800003263FE0FEF72EF8C01BA84202D3B5F17D
:10509000FF3F19D1C5B1E38E9BB2D3B123689A68A3
:1050A00012F0020FEED0226B12781A73236B0133C9
:1050B0002363B4F836C01FFA8CFC0CF1FF3C1FFAD6
:1050C0008CFCA4F836C0E6E7012384F851300326AF
:1050D00018E03A4629462046FFF7A2FE08B12023F1
:1050E0006365A36833B901932368DA6801929B680A
:1050F0000193019B636D2BB9012384F85130002685
:1051000000E00226002384F85030304603B0BDE8AA
:10511000F0830226F9E7000030B4036A026A22F045
:10512000010202624268846924F073040D682C4312
:1051300023F0020C8B6843EA0C03104DA84203D005
:1051400005F58065A84205D123F00803CD682B43FF
:1051500023F00403094DA84203D005F58065A84259
:1051600005D122F440724D692A438D692A43426079
:1051700084614A684263036230BC704700000140AA
:1051800030B4036A026A22F4807202624268C4691F
:1051900024F0730C0C6844EA0C0523F400738C684B
:1051A00043EA0423114CA04203D004F58064A042DA
:1051B00006D123F40063CC6843EA042323F480631C
:1051C0000A4CA04203D004F58064A04207D122F427
:1051D00040524C6942EA04128C6942EA041242606D
:1051E000C5614A68C263036230BC70470000014079
:1051F00030B4036A026A22F4805202624468C269CF
:1052000022F4E6420D6842EA052223F400538D6839
:1052100043EA0533094DA84203D005F58065A8424D
:1052200004D124F480444D6944EA85144460C26189
:105230004A680264036230BC704700BF000001404E
:1052400010B4036A046A24F001040462846924F03F
:10525000F00C4CEA021223F00A030B438261036252
:1052600010BC704710B4036A046A24F0100404628E
:10527000846924F4704C4CEA023223F0A00343EA20
:1052800001138261036210BC7047836823F07003CE
:105290000B4343F0070383607047000090F83D30F4
:1052A000DBB2012B32D1022380F83D300368194A6A
:1052B000934220D0B3F1804F1DD0A2F57C4293429F
:1052C00019D002F58062934215D002F580629342B4
:1052D00011D002F5784293420DD002F570529342FC
:1052E00009D0A2F59432934205D01A6842F0010227
:1052F0001A60002070479A6802F00702062A07D059
:105300001A6842F001021A600020704701207047BD
:10531000002070470000014090F83D30DBB2012BC7
:1053200037D1022380F83D300268D36843F001038F
:10533000D3600368194A934220D0B3F1804F1DD047
:10534000A2F57C42934219D002F58062934215D0B7
:1053500002F58062934211D002F5784293420DD05B
:1053600002F57052934209D0A2F59432934205D0CF
:105370001A6842F001021A60002070479A6802F031
:105380000702062A07D01A6842F001021A600020BC
:105390007047012070470020704700BF00000140A7
:1053A0007047704770477047704770B50446036890
:1053B000DE681D6915F0020F10D016F0020F0DD037
:1053C0006FF002021A610123037703689B6913F0EF
:1053D000030F5ED0FFF7E6FF0023237715F0040FDD
:1053E00012D016F0040F0FD023686FF004021A6178
:1053F0000223237723689B6913F4407F4FD0204614
:10540000FFF7D0FF0023237715F0080F12D016F016
:10541000080F0FD023686FF008021A610423237766
:105420002368DB6913F0030F40D02046FFF7BAFF73
:105430000023237715F0100F12D016F0100F0FD0A5
:1054400023686FF010021A61082323772368DB6951
:1054500013F4407F31D02046FFF7A4FF00232377C9
:1054600015F0010F02D016F0010F2DD115F0800FAD
:1054700002D016F0800F2FD115F0400F02D016F099
:10548000400F31D115F0200F02D016F0200F33D18C
:1054900070BDFFF786FF2046FFF785FF9CE720469B
:1054A000FFF77FFF2046FFF77EFFABE72046FFF7C1
:1054B00078FF2046FFF777FFBAE72046FFF771FF36
:1054C0002046FFF770FFC9E723686FF001021A61F9
:1054D0002046FDF793F9C9E723686FF080021A614F
:1054E000204600F0DEFAC7E723686FF040021A6139
:1054F0002046FFF759FFC5E723686FF020021A61C5
:10550000204600F0CDFAC3E70368344A904212D037
:10551000B0F1804F0FD0A2F57C4290420BD002F543
:105520008062904207D002F58062904203D002F57B
:105530007842904203D123F070034A681343274A0C
:1055400090422AD0B0F1804F27D0A2F57C42904201
:1055500023D002F5806290421FD002F58062904213
:105560001BD002F57842904217D002F5705290425B
:1055700013D002F5806290420FD002F58062904213
:105580000BD0A2F59832904207D002F5806290428B
:1055900003D002F58062904203D123F44073CA68BD
:1055A000134323F080034A69134303608B68C3628B
:1055B0000B688362094B984203D003F580639842DD
:1055C00001D10B69036301234361036913F0010FE8
:1055D00003D0036923F00103036170470000014019
:1055E00040B310B5044690F83D30F3B1022384F87F
:1055F0003D30214651F8040BFFF786FF012384F864
:10560000463084F83E3084F83F3084F8403084F8E7
:10561000413084F8423084F8433084F8443084F8D0
:10562000453084F83D30002010BD80F83C30FDF757
:10563000ADFBDBE70120704740B310B5044690F89E
:105640003D30F3B1022384F83D30214651F8040B7C
:10565000FFF75AFF012384F8463084F83E3084F87F
:105660003F3084F8403084F8413084F8423084F888
:10567000433084F8443084F8453084F83D300020CD
:1056800010BD80F83C30FFF78BFEDBE70120704750
:1056900030B4036A026A22F010020262446882692E
:1056A00022F4E6420D6842EA052223F020038D68C9
:1056B00043EA0513114DA84203D005F58065A842C1
:1056C00006D123F08003CD6843EA051323F040039D
:1056D0000A4DA84203D005F58065A84207D124F4FD
:1056E00040644D6944EA85048D6944EA8504446058
:1056F00082614A688263036230BC704700000140E7
:1057000038B590F83C30012B66D004460D46012395
:1057100080F83C300C2A5AD8DFE802F00759595972
:105720001B5959593059595944000068FFF7F4FC86
:105730002268936943F0080393612268936923F018
:10574000040393612268936929690B4393610020E4
:105750003EE00068FFF79CFF2268936943F4006312
:1057600093612268936923F480639361226893694B
:10577000296943EA01239361002029E00068FFF7CB
:10578000FFFC2268D36943F00803D3612268D36920
:1057900023F00403D3612268D36929690B43D361E1
:1057A000002015E00068FFF723FD2268D36943F469
:1057B0000063D3612268D36923F48063D3612268D4
:1057C000D369296943EA0123D361002000E0012065
:1057D000002384F83C3038BD0220FCE710B4846814
:1057E00024F47F4C42EA03220A4342EA0C0282601C
:1057F00010BC704790F83C30012B78D010B50446AF
:10580000012380F83C30022380F83D300268936821
:1058100023F47F4323F0770393600B68602B4CD015
:1058200029D8402B54D00CD9502B22D1CA684968B2
:105830000068FFF705FD50212068FFF726FD0020D6
:1058400005E0202B0DD009D9302B0AD001200123EF
:1058500084F83D30002384F83C3010BD0BB1102B90
:1058600005D119462068FFF710FD0020EFE7012061
:10587000EDE70120EBE7B3F5805F34D0B3F5005FCF
:105880000CD1CB684A6889680068FFF7A7FF2268D7
:10589000936843F4804393600020D8E7702B24D1B1
:1058A000CB684A6889680068FFF798FF22689368A8
:1058B00043F0770393600020C9E7CA68496800682D
:1058C000FFF7D0FC60212068FFF7DFFC0020BEE777
:1058D000CA6849680068FFF7B3FC40212068FFF7F9
:1058E000D4FC0020B3E70020B1E70120AFE702209D
:1058F000704701F01F01012303FA01FC036A23EA48
:105900000C030362036A02FA01F10B43036270475E
:1059100010B504460846002942D194F83E30DBB267
:10592000013B18BF0123002B6ED1002851D1022367
:1059300084F83E30012201462068FFF7DAFF236831
:10594000334A934203D002F58062934203D15A6CEA
:1059500042F400425A6423682D4A934249D0B3F17D
:10596000804F46D0A2F57C42934242D002F580623D
:1059700093423ED002F5806293423AD002F57842DB
:10598000934236D002F57052934232D0A2F594324F
:1059900093422ED01A6842F001021A60002032E0D1
:1059A000042908D008290DD094F84130DBB2013B1E
:1059B00018BF0123B7E794F83F30DBB2013B18BFB3
:1059C0000123B0E794F84030DBB2013B18BF01235C
:1059D000A9E7042805D0082807D0022384F841301D
:1059E000A8E7022384F83F30A4E7022384F840307C
:1059F000A0E79A6802F00702062A07D01A6842F068
:105A000001021A60002010BD0120FCE70020FAE727
:105A10000000014090F83C30012B3CD010B4012331
:105A200080F83C30022380F83D3003685A689C6857
:105A300022F0700C0A6842EA0C025A600368174AA6
:105A400093421AD0B3F1804F17D0A2F57C42934213
:105A500013D002F5806293420FD002F58062934228
:105A60000BD002F57842934207D002F57052934270
:105A700003D0A2F59432934204D124F080044A6802
:105A800014439C60012380F83D30002380F83C30B3
:105A9000184610BC70470220704700BF000001404C
:105AA00070477047026802F10C0353E8003F23F48B
:105AB00090730C3242E800310029F3D1026802F100
:105AC000140353E8003F23F00103143242E800318D
:105AD0000029F3D1036B012B05D0202380F842303D
