:020000040800F2
:100000000000032019250008392200083B220008BF
:100010003D2200083F2200084122000800000000A5
:100020000000000000000000000000004322000863
:10003000452200080000000047220008492200086D
:100040006925000869250008692500086925000858
:100050006925000869250008692500086925000848
:100060006925000869250008692500086925000838
:100070006925000869250008692500086925000828
:100080006925000869250008692500086925000818
:100090006925000869250008692500085122000823
:1000A00069250008692500086925000869250008F8
:1000B00061220008712200086925000869250008EE
:1000C00069250008692500086925000869250008D8
:1000D00069250008692500086925000869250008C8
:1000E00069250008692500086925000869250008B8
:1000F00069250008692500086925000869250008A8
:100100006925000869250008692500086925000897
:100110006925000869250008692500086925000887
:100120006925000869250008692500086925000877
:100130006925000869250008692500086925000867
:100140006925000869250008692500086925000857
:100150006925000869250008692500086925000847
:100160006925000869250008692500086925000837
:1001700069250008692500086925000800000000BD
:100180006925000869250008692500086925000817
:100190006925000869250008692500086925000807
:0C01A00069250008692500086925000891
:1001B00010B5054C237833B9044B13B10448AFF3A1
:1001C00000800123237010BD4404002000000000C3
:1001D000E44A000808B5034B1BB103490348AFF3D9
:1001E000008008BD0000000048040020E44A000828
:1001F0004FF0FF0C1CEAD0521EBF1CEAD15392EA0A
:100200000C0F93EA0C0F6FD01A4480EA010C4002E5
:1002100018BF5FEA41211ED04FF0006343EA50103F
:1002200043EA5111A0FB01310CF00040B1F5000F81
:100230003EBF490041EAD3715B0040EA010062F130
:100240007F02FD2A1DD8B3F1004F40EBC25008BF1A
:1002500020F00100704790F0000F0CF0004C08BF38
:1002600049024CEA502040EA51207F3AC2BFD2F105
:10027000FF0340EAC250704740F400004FF0000313
:10028000013A5DDC12F1190FDCBF00F0004070474D
:10029000C2F10002410021FA02F1C2F1200200FA8B
:1002A00002FC5FEA310040F1000053EA4C0308BF52
:1002B00020EADC70704792F0000F00F0004C02BFA3
:1002C000400010F4000F013AF9D040EA0C0093F01E
:1002D000000F01F0004C02BF490011F4000F013B78
:1002E000F9D041EA0C018FE70CEAD15392EA0C0FE6
:1002F00018BF93EA0C0F0AD030F0004C18BF31F051
:10030000004CD8D180EA010000F00040704790F026
:10031000000F17BF90F0004F084691F0000F91F0CA
:10032000004F14D092EA0C0F01D142020FD193EA90
:100330000C0F03D14B0218BF084608D180EA010018
:1003400000F0004040F0FE4040F40000704740F0F4
:10035000FE4040F44000704781F0004102E000BFE1
:1003600083F0004330B54FEA41044FEA430594EA75
:10037000050F08BF90EA020F1FBF54EA000C55EAB0
:10038000020C7FEA645C7FEA655C00F0E2804FEA81
:100390005454D4EB5555B8BF6D420CDD2C4480EA63
:1003A000020281EA030382EA000083EA010180EA93
:1003B000020281EA0303362D88BF30BD11F0004FE1
:1003C0004FEA01314FF4801C4CEA113102D0404217
:1003D00061EB410113F0004F4FEA03334CEA133352
:1003E00002D0524263EB430394EA050F00F0A7806A
:1003F000A4F10104D5F1200E0DDB02FA0EFC22FA65
:1004000005F2801841F1000103FA0EF2801843FA58
:1004100005F359410EE0A5F120050EF1200E012A49
:1004200003FA0EFC28BF4CF0020C43FA05F3C01887
:1004300051EBE37101F0004507D54FF0000EDCF100
:10044000000C7EEB00006EEB0101B1F5801F1BD3A9
:10045000B1F5001F0CD349085FEA30004FEA3C0CAD
:1004600004F101044FEA445212F5800F80F09A80A3
:10047000BCF1004F08BF5FEA500C50F1000041EBA7
:10048000045141EA050130BD5FEA4C0C404141EBAB
:100490000101013C28BFB1F5801FE9D291F0000FA6
:1004A00004BF01460020B1FA81F308BF2033A3F155
:1004B0000B03B3F120020CDA0C3208DD02F1140C4C
:1004C000C2F10C0201FA0CF021FA02F10CE002F187
:1004D0001402D8BFC2F1200C01FA02F120FA0CFC80
:1004E000DCBF41EA0C019040E41AA2BF01EB0451C9
:1004F000294330BD6FEA04041F3C1CDA0C340EDCC7
:1005000004F11404C4F1200220FA04F001FA02F309
:1005100040EA030021FA04F345EA030130BDC4F1C7
:100520000C04C4F1200220FA02F001FA04F340EABC
:100530000300294630BD21FA04F0294630BD94F06D
:10054000000F83F4801306BF81F480110134013D54
:100550004EE77FEA645C18BF7FEA655C29D094EAC5
:10056000050F08BF90EA020F05D054EA000C04BF43
:100570001946104630BD91EA030F1EBF002100202E
:1005800030BD5FEA545C05D14000494128BF41F0CD
:10059000004130BD14F580043CBF01F5801130BD31
:1005A00001F0004545F0FE4141F470014FF00000BC
:1005B00030BD7FEA645C1ABF194610467FEA655C6D
:1005C0001CBF0B46024650EA013406BF52EA03350F
:1005D00091EA030F41F4002130BD00BF90F0000FFD
:1005E00004BF0021704730B54FF4806404F1320439
:1005F0004FF000054FF0000150E700BF90F0000FF2
:1006000004BF0021704730B54FF4806404F1320418
:1006100010F0004548BF40424FF000013EE700BFE8
:1006200042004FEAE2014FEA31014FEA02701FBF78
:1006300012F07F4393F07F4F81F06051704732F0AA
:100640007F4208BF704793F07F4F04BF41F4002101
:10065000704730B54FF4607401F0004521F000415F
:100660001CE700BF50EA010208BF704730B54FF0E9
:1006700000050AE050EA010208BF704730B511F0EA
:10068000004502D5404261EB41014FF4806404F122
:1006900032045FEA915C3FF4D8AE4FF003025FEAA8
:1006A000DC0C18BF03325FEADC0C18BF033202EB2C
:1006B000DC02C2F1200300FA03FC20FA02F001FA86
:1006C00003FE40EA0E0021FA02F11444BDE600BF29
:1006D00070B54FF0FF0C4CF4E06C1CEA11541DBFD8
:1006E0001CEA135594EA0C0F95EA0C0F00F0DEF8A3
:1006F0002C4481EA030621EA4C5123EA4C5350EA88
:10070000013518BF52EA033541F4801143F48013D8
:1007100038D0A0FB02CE4FF00005E1FB02E506F069
:100720000042E0FB03E54FF00006E1FB03569CF0BE
:10073000000F18BF4EF0010EA4F1FF04B6F5007FC4
:1007400064F5407404D25FEA4E0E6D4146EB060636
:1007500042EAC62141EA55514FEAC52040EA5E50BF
:100760004FEACE2EB4F1FD0C88BFBCF5E06F1ED869
:10077000BEF1004F08BF5FEA500E50F1000041EBA0
:10078000045170BD06F0004646EA010140EA02004D
:1007900081EA0301B4EB5C04C2BFD4EB0C0541EA6F
:1007A000045170BD41F480114FF0000E013C00F384
:1007B000AB8014F1360FDEBF002001F0004170BDA8
:1007C000C4F10004203C35DA0C341BDC04F11404C1
:1007D000C4F1200500FA05F320FA04F001FA05F24D
:1007E00040EA020001F0004221F0004110EBD3701A
:1007F00021FA04F642EB06015EEA430E08BF20EA46
:10080000D37070BDC4F10C04C4F1200500FA04F3E8
:1008100020FA05F001FA04F240EA020001F000417A
:1008200010EBD37041F100015EEA430E08BF20EAED
:10083000D37070BDC4F1200500FA05F24EEA020E35
:1008400020FA04F301FA05F243EA020321FA04F064
:1008500001F0004121FA04F220EA020000EBD3701B
:100860005EEA430E08BF20EAD37070BD94F0000F1B
:100870000FD101F00046400041EB010111F4801F4F
:1008800008BF013CF7D041EA060195F0000F18BF00
:10089000704703F00046520043EB030313F4801F3C
:1008A00008BF013DF7D043EA0603704794EA0C0FF6
:1008B0000CEA135518BF95EA0C0F0CD050EA41060C
:1008C00018BF52EA4306D1D181EA030101F0004189
:1008D0004FF0000070BD50EA410606BF10461946B1
:1008E00052EA430619D094EA0C0F02D150EA0136BD
:1008F00013D195EA0C0F05D152EA03361CBF1046FE
:1009000019460AD181EA030101F0004141F0FE419C
:1009100041F470014FF0000070BD41F0FE4141F420
:10092000780170BD70B54FF0FF0C4CF4E06C1CEA20
:1009300011541DBF1CEA135594EA0C0F95EA0C0FD5
:1009400000F0A7F8A4EB050481EA030E52EA033590
:100950004FEA013100F088804FEA03334FF08055B1
:1009600045EA131343EA12634FEA022245EA1115DE
:1009700045EA10654FEA00260EF000419D4208BF8F
:10098000964244F1FD0404F5407402D25B084FEA3C
:100990003202B61A65EB03055B084FEA32024FF4E8
:1009A00080104FF4002CB6EB020E75EB030E22BF45
:1009B000B61A754640EA0C005B084FEA3202B6EB05
:1009C000020E75EB030E22BFB61A754640EA5C00B4
:1009D0005B084FEA3202B6EB020E75EB030E22BF44
:1009E000B61A754640EA9C005B084FEA3202B6EB45
:1009F000020E75EB030E22BFB61A754640EADC0004
:100A000055EA060E18D04FEA051545EA16754FEA65
:100A100006164FEAC30343EA52734FEAC2025FEA83
:100A20001C1CC0D111F4801F0BD141EA00014FF012
:100A300000004FF0004CB6E711F4801F04BF0143E3
:100A40000020B4F1FD0C88BFBCF5E06F3FF6AFAEFF
:100A5000B5EB030C04BFB6EB020C5FEA500C50F18F
:100A6000000041EB045170BD0EF0004E4EEA113112
:100A700014EB5C04C2BFD4EB0C0541EA045170BD19
:100A800041F480114FF0000E013C90E645EA060E5D
:100A90008DE60CEA135594EA0C0F08BF95EA0C0F8B
:100AA0003FF43BAF94EA0C0F0AD150EA01347FF4D3
:100AB00034AF95EA0C0F7FF425AF104619462CE7AA
:100AC00095EA0C0F06D152EA03353FF4FDAE10460D
:100AD000194622E750EA410618BF52EA43067FF45E
:100AE000C5AE50EA41047FF40DAF52EA43057FF4EE
:100AF000EBAE12E74FEA4102B2F1E04324BFB3F597
:100B0000001CDCF1FE5C0DD901F0004C4FEAC00284
:100B10004CEA5070B2F1004F40EB830008BF20F068
:100B20000100704711F0804F21D113F13872BCBF22
:100B300001F00040704741F480114FEA5252C2F177
:100B40001802C2F1200C10FA0CF320FA02F018BFC0
:100B500040F001004FEAC1234FEAD32303FA0CFC13
:100B600040EA0C0023FA02F34FEA4303CCE77FEAA2
:100B7000625307D150EA01331EBF4FF0FE4040F4EC
:100B80004000704701F0004040F0FE4040F400009B
:100B9000704700BF80F0004002E000BF81F00041DC
:100BA00042001FBF5FEA410392EA030F7FEA226C13
:100BB0007FEA236C6AD04FEA1262D2EB1363C1BFA3
:100BC000D218414048404140B8BF5B42192B88BF12
:100BD000704710F0004F40F4000020F07F4018BF35
:100BE000404211F0004F41F4000121F07F4118BF55
:100BF000494292EA030F3FD0A2F1010241FA03FCFD
:100C000010EB0C00C3F1200301FA03F100F00043E4
:100C100002D5494260EB4000B0F5000F13D3B0F1AC
:100C2000807F06D340084FEA310102F10102FE2A1B
:100C300051D2B1F1004F40EBC25008BF20F001008B
:100C400040EA03007047490040EB0000013A28BF2A
:100C5000B0F5000FEDD2B0FA80FCACF1080CB2EBAD
:100C60000C0200FA0CF0AABF00EBC250524218432B
:100C7000BCBFD0401843704792F0000F81F40001D0
:100C800006BF80F400000132013BB5E74FEA4103A3
:100C90007FEA226C18BF7FEA236C21D092EA030F0F
:100CA00004D092F0000F08BF0846704790EA010F89
:100CB0001CBF0020704712F07F4F04D1400028BFB6
:100CC00040F00040704712F100723CBF00F5000098
:100CD000704700F0004343F0FE4040F400007047CE
:100CE0007FEA226216BF08467FEA2363014642027A
:100CF00006BF5FEA412390EA010F40F4800070478D
:100D00004FF0000304E000BF10F0004348BF404232
:100D10005FEA000C08BF704743F0964301464FF06E
:100D200000001CE050EA010208BF70474FF00003CA
:100D30000AE000BF50EA010208BF704711F000430B
:100D400002D5404261EB41015FEA010C02BF8446DB
:100D50000146002043F0B64308BFA3F18053A3F53A
:100D60000003BCFA8CF2083AA3EBC25310DB01FA81
:100D700002FC634400FA02FCC2F12002BCF1004F05
:100D800020FA02F243EB020008BF20F00100704796
:100D900002F1200201FA02FCC2F1200250EA4C00EA
:100DA00021FA02F243EB020008BF20EADC70704730
:100DB00042000ED2B2F1FE4F0BD34FF09E03B3EBC5
:100DC000126209D44FEA002343F0004323FA02F0F1
:100DD00070474FF00000704712F1610F01D14202DD
:100DE00002D14FF0FF3070474FF00000704700BF56
:100DF00053B94AB9002908BF00281CBF4FF0FF3182
:100E00004FF0FF3000F074B9ADF1080C6DE904CE7D
:100E100000F006F8DDF804E0DDE9022304B07047D5
:100E20002DE9F047089E0D4604468846002B4DD11B
:100E30008A42944668D9B2FA82F252B101FA02F3B8
:100E4000C2F1200120FA01F10CFA02FC41EA030888
:100E500094404FEA1C45210CB8FBF5FE1FFA8CF7B5
:100E600005FB1E8341EA03430EFB07F199420BD9B0
:100E70001CEB03030EF1FF3080F01E81994240F21B
:100E80001B81AEF1020E63445B1AA4B2B3FBF5F012
:100E900005FB103344EA034400FB07F7A7420AD9D5
:100EA0001CEB040400F1FF3380F00881A74240F2FC
:100EB000058164440238E41B40EA0E4000211EB163
:100EC000D4400023C6E90043BDE8F0878B4208D92F
:100ED000002E00F0EE800021C6E900050846BDE8BE
:100EE000F087B3FA83F100294AD1AB4202D38242A0
:100EF00000F2F980841A65EB030301209846002E66
:100F0000E2D0C6E90048DFE702B9FFDEB2FA82F2BA
:100F1000002A40F09180A1EB0C054FEA1C471FFA14
:100F20008CFE0121B5FBF7F307FB1350250C45EAB6
:100F300000450EFB03F0A84208D91CEB050503F1A0
:100F4000FF3802D2A84200F2CB8043462D1AA4B249
:100F5000B5FBF7F007FB105544EA05440EFB00FE15
:100F6000A64508D91CEB040400F1FF3502D2A645C2
:100F700000F2BB802846A4EB0E0440EA03409EE743
:100F8000C1F120078B4022FA07FC4CEA030C20FA3F
:100F900007F405FA01F31C43FD404FEA1C4900FA2F
:100FA00001F3B5FBF9F8200C1FFA8CFE09FB18556C
:100FB00040EA054508FB0EF0A84202FA01F20BD9FF
:100FC0001CEB050508F1FF3A80F08880A84240F24A
:100FD0008580A8F1020865442D1AA4B2B5FBF9F08A
:100FE00009FB105544EA054500FB0EFEAE4508D945
:100FF0001CEB050500F1FF346CD2AE456AD902380E
:10100000654440EA0840A0FB0294A5EB0E05A5420A
:10101000C846A64656D353D05EB1B3EB080265EB83
:101020000E0505FA07F722FA01F3CD401F43C6E982
:1010300000750021BDE8F087C2F1200320FA03F11A
:101040000CFA02FC25FA03F395400D434FEA1C47C6
:101050001FFA8CFEB3FBF7F107FB11302B0C43EAB0
:10106000004301FB0EF0984204FA02F408D91CEB8D
:10107000030301F1FF382FD298422DD9023963447E
:101080001B1AADB2B3FBF7F007FB103345EA03457B
:1010900000FB0EF3AB4208D91CEB050500F1FF384D
:1010A00016D2AB4214D902386544ED1A40EA014128
:1010B00038E73146304607E78646E5E61846FAE661
:1010C0004B45A9D2B9EB020864EB0C0E0138A3E73B
:1010D0004046EAE7204694E74146D1E7D0467BE721
:1010E000023B654432E7084609E76444023842E7B8
:1010F000704700BF2DE9F04186B005464FF000086B
:101100008DF817804FF47A770297012401940DF13E
:101110001706009623466B22D02101F08DFF07238E
:101120008DF8173002970194009623461922D0219A
:10113000284601F081FF8DF81780029701940096F0
:1011400023461C22D021284601F076FF8DF8178017
:1011500002970194009623461B22D021284601F0D5
:101160006BFF06B0BDE8F08170B586B00E4615463F
:101170001C464FF47A7302930623019304AB009349
:1011800001233B22D02102F009F89DF810209DF8A0
:10119000113043EA022333809DF812209DF813306A
:1011A00043EA02232B809DF814209DF8153043EA72
:1011B0000223238006B070BD70B586B00E4615467A
:1011C0001C464FF47A7302930623019304AB0093F9
:1011D00001234322D02101F0E1FF9DF810209DF86A
:1011E000113043EA022333809DF812209DF813301A
:1011F00043EA02232B809DF814209DF8153043EA22
:101200000223238006B070BD2DE9F04784B08146EB
:101210008846174600260296102501954FF6FF7462
:1012200000944FF47843B24A4621322000F07EFC0D
:101230000296019500944FF47843AE4A5A21322029
:1012400000F074FC0296019500944FF47843AA4A8A
:101250006E21322000F06AFCDFF8A0A20296019510
:1012600000944FF47843524646218C2000F05EFCF7
:101270000296019500944FF4784352465A218C20EF
:1012800000F054FC0296019500944FF478435246C6
:101290006E218C2000F04AFCB145C0F29180012300
:1012A0000293102501954FF6FF74009423462D22DA
:1012B0004621412000F0C4FB4846FFF725FDFFF71B
:1012C000AFF987A3D3E90023FFF72CFB00228C4B57
:1012D000FFF7FEF984A3D3E90023FFF7F9F9FFF73D
:1012E00009FC0246029501944FF4784300930423CD
:1012F0004621502000F048FCB8F1000FC0F28E806B
:1013000001230293102501954FF6FF7400942346A4
:101310002D225A21412000F093FB4046FFF7F4FCB8
:10132000FFF77EF96EA3D3E90023FFF7FBFA002253
:10133000734BFFF7CDF96CA3D3E90023FFF7C8F98E
:10134000FFF7D8FB0246029501944FF478430093CF
:1013500004235A21502000F017FC002FC0F28F8088
:1013600001230293102501954FF6FF740094234644
:101370002D224621412000F063FB3846FFF7C4FCD4
:10138000FFF74EF956A3D3E90023FFF7CBFA00226B
:101390005B4BFFF79DF954A3D3E90023FFF798F9BE
:1013A000FFF7A8FB0246029501944FF4784300939F
:1013B00004236E21502000F0E7FB04B0BDE8F08765
:1013C00001230293019500944FF478432D22462186
:1013D000412000F035FBC9F1000000B2FFF794FC9A
:1013E000FFF71EF93EA3D3E90023FFF79BFA002283
:1013F000434BFFF76DF93CA3D3E90023FFF768F9EE
:10140000FFF778FB0246029501944FF4784300936E
:1014100004234621502000F0B7FB6DE7012302931F
:10142000102501954FF6FF7400944FF478432D2258
:101430005A21412000F004FBC8F1000000B2FFF780
:1014400063FCFFF7EDF826A3D3E90023FFF76AFA60
:1014500000222B4BFFF73CF923A3D3E90023FFF72E
:1014600037F9FFF747FB0246029501944FF47843A2
:10147000009304235A21502000F086FB6DE70123DE
:101480000293102501954FF6FF7400944FF47843B2
:101490002D226E21412000F0D3FA784200B2FFF7EE
:1014A00033FCFFF7BDF80EA3D3E90023FFF73AFAA8
:1014B0000022134BFFF70CF90BA3D3E90023FFF72E
:1014C00007F9FFF717FB0246029501944FF47843A2
:1014D000009304236E21502000F056FB6DE700BFFF
:1014E00000000000E0FFEF409A99999999992340F4
:1014F000FC4A0008004B0008044B0008084B000899
:1015000000001040000000002DE9F04784B0814643
:101510008846174600260296102501954FF6FF745F
:1015200000944FF47843A04A8221322000F0FEFA62
:101530000296019500944FF478439C4A96213220FC
:1015400000F0F4FA0296019500944FF47843984A1B
:10155000AA21322000F0EAFADFF858A2029601959B
:1015600000944FF47843524682218C2000F0DEFA3A
:101570000296019500944FF47843524696218C20B0
:1015800000F0D4FA0296019500944FF47843524645
:10159000AA218C2000F0CAFAB1457FDB0123029317
:1015A000102501954FF6FF74009423462D228221C9
:1015B000412000F045FA4846FFF7A6FBFFF730F858
:1015C00077A3D3E90023FFF7ADF900227A4BFFF7A9
:1015D0007FF8FFF78FFA0246029501944FF47843A3
:1015E000009304238221502000F0CEFAB8F1000FBE
:1015F0007DDB01230293102501954FF6FF740094C3
:1016000023462D229621412000F01AFA4046FFF78A
:101610007BFBFFF705F862A3D3E90023FFF782F90C
:101620000022654BFFF754F8FFF764FA0246029573
:1016300001944FF47843009304239621502000F046
:10164000A3FA002F7FDB01230293102501954FF6AB
:10165000FF74009423462D22AA21412000F0F0F9C6
:101660003846FFF751FBFEF7DBFF4DA3D3E900231C
:10167000FFF758F90022504BFFF72AF8FFF73AFA24
:101680000246029501944FF4784300930423AA2163
:10169000502000F079FA04B0BDE8F08701230293EE
:1016A000019500944FF478432D228221412000F0CF
:1016B000C7F9C9F1000000B2FFF726FBFEF7B0FF43
:1016C00037A3D3E90023FFF72DF900223A4BFEF7A9
:1016D000FFFFFFF70FFA0246029501944FF478439B
:1016E000009304238221502000F04EFA7EE701236C
:1016F0000293102501954FF6FF7400944FF4784340
:101700002D229621412000F09BF9C8F1000000B283
:10171000FFF7FAFAFEF784FF21A3D3E90023FFF7CE
:1017200001F90022244BFEF7D3FFFFF7E3F902464D
:10173000029501944FF4784300930423962150209E
:1017400000F022FA7DE701230293102501954FF660
:10175000FF7400944FF478432D22AA21412000F019
:101760006FF9784200B2FFF7CFFAFEF759FF0CA3EA
:10177000D3E90023FFF7D6F800220F4BFEF7A8FFAE
:10178000FFF7B8F90246029501944FF478430093AD
:101790000423AA21502000F0F7F97CE7AFF3008082
:1017A00000000000E0FFEF40FC4A0008004B00088A
:1017B000044B0008104B000800406F4010B5044671
:1017C000042000F0A5FF014B1C6010BD6004002048
:1017D00010B44FF0E02254690B4B1B6800FB03FC74
:1017E0009369002104E0E01A02441144614509D2E2
:1017F0001A464FF0E0239B699A42FAD0F3D9D21AE5
:101800001144F3E710BC70476004002038B505466A
:10181000002404E04FF47A70FFF7DAFF0134A542A8
:10182000F8D838BD2DE9F0418AB00024059406941B
:101830000794089409940194354B1A6B42F02002E6
:101840001A631A6B02F020020192019A02941A6B39
:1018500042F080021A631A6B02F080020292029A2E
:1018600003941A6B42F002021A631A6B02F002022E
:101870000392039A04941A6B42F040021A631B6BA2
:1018800003F040030493049B224E22464FF402517E
:10189000304601F04BF8DFF8808022464FF480415B
:1018A000404601F043F880230593012506950795EE
:1018B0000327089705A9304600F03AFF4FF480430C
:1018C000059306950794089405A9404600F030FF5B
:1018D000C02305934FF404130693079405A90F48FA
:1018E00000F026FF4FF400530593069507940897E0
:1018F00005A9304600F01CFF22462146172000F0C3
:10190000ADFE172000F0E2FE0AB0BDE8F08100BF96
:1019100000380240001C024000040240001802404F
:1019200008B51348134B0360134B436000238360D7
:10193000C3604FF48042026143618361C36103620B
:1019400001F09CFA50B90021094801F0A3FD40B90B
:101950000021074801F0C0FD30B908BD00F0EAFAE7
:10196000F1E700F0E7FAF3E700F0E4FAF5E700BF8B
:101970006404002000580040A086010030B589B002
:101980000023039304930593069307930268154B72
:101990009A4201D009B030BD00250195124C236B4D
:1019A00043F080032363236B03F080030193019BC7
:1019B00030230393122304930123059303230693F7
:1019C0000423079303A9094800F0B2FE0295236C93
:1019D00043F480032364236C03F480030293029B8B
:1019E000D8E700BF0058004000380240001C024009
:1019F0002DE9F84381460F4615469846BDF820600C
:101A0000013B013A9BB292B200F04EF908E0304639
:101A100000F02CF90134A4B2AC42F8D30137BFB2C4
:101A2000474501D24C46F7E7BDE8F88310B50B46B1
:101A30001446024600F038F9204600F017F910BDB0
:101A40002DE9F04F87B0814603911E46BDF8405006
:101A500002959DF844B09DF848704FEA5B0A4FEA42
:101A60001B1303FB0BF50495203AD2B2059200EB51
:101A70005B0292B20BEB01039BB2013B013A9BB2BA
:101A800092B200F011F94D464FF00008CDF804B0C5
:101A9000B34633E0234B059A03EB021313F80860B7
:101AA0003BE0029800F0E2F80AE046FA04F313F093
:101AB000010F14D10135ADB2A5EB0903534514D084
:101AC0000134E4B2072C15D8002FEED146FA04F306
:101AD00013F0010FE5D0584600F0C8F8F0E75A4679
:101AE00003992846FFF7A2FFE4E7039B01339BB26B
:101AF00003934D4608F101081FFA88F8049B9845A6
:101B00000DD2019B102BC5D0019B202B07D1064B7A
:101B1000059A03EB821313F808600024D2E707B09C
:101B2000BDE8F08F184B0008085100082DE9F04778
:101B300084B00446884615461F46BDF830A09DF87F
:101B400034609DF838900DE0CDF808900196CDF8FE
:101B500000A03B4641462046FFF772FF04EB5604C7
:101B6000A4B201352A78002AEED104B0BDE8F0878E
:101B70000246012002E002FB00F019464B1EDBB2D8
:101B80000029F8D1704700002DE9F04F87B00746D3
:101B900004911E46BDF840300593BDF844B09DF851
:101BA00048804FEA580A24491046FEF721FBFFF708
:101BB000FFF81FFA80F9002511E004F1300205FB5F
:101BC0000A7000230293CDF80480CDF800B0059B85
:101BD000D2B2049980B2FFF733FF0135EDB2AE42C5
:101BE00027D9711BC9B20139C9B20A20FFF7C0FF5A
:101BF000B9FBF0F0114CA4FB0034E40804EB8404BE
:101C0000A0EB4404E4B2B01E8542D6D100FB0A70BA
:101C100000230293CDF80480CDF800B0059B2E225E
:101C2000049980B2FFF70CFF0135EDB20136F6B230
:101C3000C3E707B0BDE8F08F0000C842CDCCCCCCE4
:101C400000B583B08DF80700022301220DF10701D2
:101C50000348006802F0BDF803B05DF804FB00BF64
:101C60000000002008B5FFF7EBFF08BD10B50446E3
:101C7000000AFFF7E5FFE0B2FFF7E2FF10BD00004A
:101C800038B50446074D00228021284600F04EFE5C
:101C90002046FFF7D5FF01228021284600F046FEAE
:101CA00038BD00BF001C0240F8B507460D46164679
:101CB0001C462A20FFF7E4FF3846FFF7D7FF3046DF
:101CC000FFF7D4FF2B20FFF7DBFF2846FFF7CEFFFF
:101CD0002046FFF7CBFF2C20FFF7D2FFF8BD000016
:101CE00010B5674C00224FF40051204600F01EFE54
:101CF0004FF4C870FFF78AFD01224FF400512046CF
:101D000000F014FEC820FFF781FD6420FFF77EFD80
:101D10001120FFF7B5FF7820FFF778FD3620FFF799
:101D2000AFFF0020FFF79EFF3A20FFF7A9FF052035
:101D3000FFF798FFB220FFF7A3FF0C20FFF792FFF9
:101D40000C20FFF78FFF0020FFF78CFF3320FFF7F9
:101D500089FF3320FFF786FFB720FFF791FF35207B
:101D6000FFF780FFBB20FFF78BFF1920FFF77AFFFB
:101D7000C020FFF785FF2C20FFF774FFC220FFF77C
:101D80007FFF0120FFF76EFFC320FFF779FF1220CE
:101D9000FFF768FFC420FFF773FF2020FFF762FF03
:101DA000C620FFF76DFF0F20FFF75CFFD020FFF785
:101DB00067FFA420FFF756FFA120FFF753FFE020A5
:101DC000FFF75EFFD020FFF74DFF0420FFF74AFF2B
:101DD0000D20FFF747FF1120FFF744FF1320FFF707
:101DE00041FF2B20FFF73EFF3F20FFF73BFF542032
:101DF000FFF738FF4C20FFF735FF1820FFF732FFC1
:101E00000D20FFF72FFF0B20FFF72CFF1F20FFF700
:101E100029FF2320FFF726FFE120FFF731FFD02025
:101E2000FFF720FF0420FFF71DFF0C20FFF71AFF2C
:101E30001120FFF717FF1320FFF714FF2C20FFF7E7
:101E400011FF3F20FFF70EFF4420FFF70BFF51204B
:101E5000FFF708FF2F20FFF705FF1F20FFF702FF06
:101E60001F20FFF7FFFE2020FFF7FCFE2320FFF7D7
:101E7000F9FE2120FFF704FF2920FFF701FF10BD25
:101E8000001C0240402802D0802807D07047074B32
:101E900001221A60064B40225A61F5E7054B0122E8
:101EA0001A60034B80225A61F0E700BFC40400208F
:101EB000003C0140C80400200368B3F1804F00D00B
:101EC000704710B5164B1B68012B04D0154B1B68CF
:101ED000012B12D010BD144C2368013323604FF442
:101EE0008041124800F028FD114B1B6822685A639C
:101EF0009A630B4B00221A60E8E70B4C2368013B06
:101F000023604FF48041094800F016FD084B1B6820
:101F100022685A639A63034B00221A60DAE700BF13
:101F2000C4040020C8040020040000200004024073
:101F3000B405002072B6FEE700B595B0302200214E
:101F400008A802F00DFD0023039304930593069364
:101F500007930193224A116C41F080511164126C75
:101F600002F080520192019A02931E4A116841F4D4
:101F700040411160126802F440420292029A022229
:101F8000089201210B9110210C910E920F930823BE
:101F90001093B423119312920423139308A801F011
:101FA000FBFAB0B901F0BAFAA8B90F2303930223E0
:101FB0000493002305934FF4A05306934FF48053EA
:101FC0000793052103A801F035FD30B915B05DF880
:101FD00004FBFFF7AFFFFFF7ADFFFFF7ABFF00BF5D
:101FE00000380240007000402DE9804885B000F0C4
:101FF000E3FAFFF7A1FFFFF715FC00F08FF800F000
:1020000041F900F027FA00F075F9FFF789FC374C29
:10201000204602F0BBF8364802F0B8F8354D0021F2
:10202000284602F0AFFB0421284602F0ABFB204615
:1020300002F06EF86420FFF7C1FBFFF751FE4FF688
:10204000FF730093F0231A4600210846FFF7D0FCE7
:102050002948FFF74FF8DFF8A490DFF8A480294F54
:10206000DFF894A04B46424639465046FFF77CF8CD
:10207000254E264D264C33462A4621465046FFF72C
:102080009BF8002002904FF0100BCDF804B04FF6F3
:10209000FF7ACDF800A04FF478431E4A3721FFF7AE
:1020A00045FD1D4B1868FEF72FFE0246CDF808B01F
:1020B000CDF804A04FF47843009305233721502036
:1020C000FFF762FDC82000F0A3FAB9F90020B8F9C3
:1020D0000010B7F90000FFF797F8B6F90020B5F93E
:1020E0000010B4F90000FFF70FFAB4E72405002050
:1020F0006C050020B405002064040020BC0400200E
:10210000BA040020B8040020C2040020C00400204B
:10211000BE040020C86800080400002008B50E486E
:102120000E4B03604FF48273436000238360C360EF
:10213000036143614FF4007282610822C26103624D
:10214000436283620A23C36201F0E4FD00B908BD63
:10215000FFF7F0FEFBE700BFCC0400200050014079
:10216000F0B589B000230393049305930693079376
:102170000268204B9A4201D009B0F0BD00220092C3
:1021800003F56843596C41F480115964596C01F4AA
:102190008011009100990192196B41F0200119639F
:1021A000196B01F020010191019902921A6B42F022
:1021B00080021A631B6B03F080030293029B4FF4AF
:1021C00000730393022704970126059603250695BD
:1021D0000524079403A9084800F0AAFA40230393B2
:1021E000049705960695079403A9044800F0A0FA01
:1021F000C2E700BF0050014000140240001C024032
:1022000082B0002100910B4B5A6C42F480425A6418
:102210005A6C02F480420092009A01911A6C42F0CA
:1022200080521A641B6C03F080530193019B02B02F
:10223000704700BF00380240FEE7FEE7FEE7FEE71A
:10224000FEE770477047704708B500F0CFF908BD4A
:1022500008B5402000F07AFB802000F077FB08BD35
:1022600008B5024801F0DBFF08BD00BF24050020CF
:1022700008B5024801F0D3FF08BD00BF6C0500207F
:102280007047000000B587B00023029303930493C6
:1022900005930093019316484FF08042026040F28C
:1022A0003F624260836040F2F312C2600361836167
:1022B00002F0D0F890B94FF48053029302A90C4871
:1022C00002F0D2F968B900230093019369460848E7
:1022D00002F0DAFA40B907B05DF804FBFFF72AFE16
:1022E000E9E7FFF727FEEEE7FFF724FEF3E700BF7D
:1022F0002405002000B587B00023029303930493C4
:102300000593009301931548154A026040F23F621D
:102310004260836040F2F312C2600361836102F0A5
:1023200099F890B94FF48053029302A90B4802F038
:102330009BF968B90023009301936946074802F0AE
:10234000A3FA40B907B05DF804FBFFF7F3FDE9E736
:10235000FFF7F0FDEEE7FFF7EDFDF3E76C0500207A
:102360000004004000B585B00368B3F1804F08D089
:102370001F4A93421AD01F4A93422BD005B05DF8F2
:1023800004FB0021019103F50E331A6C42F00102A7
:102390001A641B6C03F001030193019B0A461C2085
:1023A00000F05CF91C2000F091F9E7E700210291B0
:1023B000114B1A6C42F002021A641B6C03F0020308
:1023C0000293029B0A461D2000F048F91D2000F0F0
:1023D0007DF9D3E700230393074B1A6C42F0040204
:1023E0001A641B6C03F004030393039BC6E700BF4E
:1023F00000040040000800400038024000B587B0EB
:1024000000230193029303930493059302680E4BF8
:102410009A4202D007B05DF804FB002300930B4BF7
:102420001A6B42F002021A631B6B03F00203009363
:10243000009BC023019302230293059301A9044842
:1024400000F076F9E6E700BF0008004000380240DF
:102450000004024000B58FB000230A930B930C9345
:102460000D930893099301930293039304930593A7
:10247000069307932648274A02602722426083601A
:1024800040F2E732C2600361836101F0E3FF68BBA1
:102490004FF480530A930AA91D4802F0E5F840BBA7
:1024A0001B4802F003F838BB00230893099308A9DE
:1024B000174802F0E9F910BB602301930022029251
:1024C0000392059201A9124802F054F8D0B9702382
:1024D000019304220DEB02010D4802F04BF8A0B964
:1024E0000B48FFF78BFF0FB05DF804FBFFF722FDF1
:1024F000CEE7FFF71FFDD3E7FFF71CFDD4E7FFF79B
:1025000019FDD9E7FFF716FDE1E7FFF713FDE7E750
:10251000B405002000080040DFF834D0FFF7B0FE1B
:102520000C480D490D4A002302E0D458C45004332E
:10253000C4188C42F9D30A4A0A4C002301E0136004
:102540000432A242FBD302F0E7F9FFF74DFD7047DA
:10255000000003200000002044040020046900085B
:102560004404002004060020FEE7000010B50446E5
:102570000E4B18784FF47A73B3FBF0F30C4A1068E3
:10258000B0FBF3F000F0B0F868B90F2C01D90120CE
:102590000AE0002221464FF0FF3000F05FF8054BC3
:1025A0001C60002000E0012010BD00BF0C000020D6
:1025B000080000201000002008B50B4B1A6842F4F8
:1025C00000721A601A6842F480621A601A6842F453
:1025D00080721A60032000F02FF80F20FFF7C6FF6B
:1025E000FFF70EFE002008BD003C0240034A1168C0
:1025F000034B1B780B441360704700BFFC050020A1
:102600000C000020014B1868704700BFFC0500203B
:1026100038B50446FFF7F6FF0546B4F1FF3F02D098
:10262000044B1B781C44FFF7EDFF401BA042FAD37C
:1026300038BD00BF0C000020074AD36823F4E063D4
:102640001B041B0C000200F4E060034343F0BF6373
:1026500043F40033D360704700ED00E000B5194B40
:10266000DB68C3F30223C3F1070CBCF1040F28BFDE
:102670004FF0040C03F1040EBEF1060F18D9033B12
:102680004FF0FF3E0EFA0CFC21EA0C0199400EFAC5
:1026900003F322EA0303194300280BDB0901C9B243
:1026A00000F1604000F5614080F800135DF804FB24
:1026B0000023E5E700F00F000901C9B2024B1954ED
:1026C000F4E700BF00ED00E014ED00E0002807DBB8
:1026D00000F01F02400901239340024A42F82030D3
:1026E000704700BF00E100E00138B0F1807F0BD2FD
:1026F0004FF0E0235861054AF02182F823100020B2
:10270000986107221A6170470120704700ED00E0D0
:10271000042806D04FF0E022136923F0040313616C
:1027200070474FF0E022136943F0040313617047D0
:1027300000230F2B00F2F18070B582B061E0856854
:102740005E000324B44025EA0405CC68B4402C4361
:102750008460456825EA02054C68C4F300129A407B
:102760002A4342605BE0DC08083450F8246003F040
:10277000070295000F22AA4026EA020E0A69AA4023
:1027800042EA0E0240F824205DE0092200E0002227
:1027900002FA0EF22A430234604D45F82420604AC2
:1027A00094686FEA0C0224EA0C054E6816F4801F48
:1027B00001D04CEA04055A4CA560E46802EA04051D
:1027C0004E6816F4001F01D04CEA0405544CE56035
:1027D000646802EA04054E6816F4003F01D04CEA32
:1027E00004054F4C6560246822404D6815F4803F15
:1027F00001D04CEA04024A4C226001330F2B00F254
:102800008A8001229A400C6804EA020C32EA04042D
:10281000F3D14C6804F00304013C012C8FD94A68C1
:1028200002F00302032A09D0C4685D000322AA4013
:1028300024EA02048A68AA402243C2604A6802F07D
:102840000302022A8FD004684FEA430E032202FAE1
:102850000EF224EA02044A6802F0030202FA0EF2BF
:10286000224302604A6812F4403FC6D0002201921F
:102870002C4A546C44F480445464526C02F48042F8
:102880000192019A9C08A51C244A52F8255003F095
:1028900003024FEA820E0F2202FA0EF225EA020527
:1028A000214A90423FF473AF02F58062904222D0F9
:1028B00002F58062904220D002F5806290421ED0E4
:1028C00002F5806290421CD002F5806290421AD0DC
:1028D00002F58062904218D002F58062904216D0D4
:1028E00002F58062904214D002F5806290423FF47B
:1028F0004CAF0A224CE701224AE7022248E70322B2
:1029000046E7042244E7052242E7062240E7072281
:102910003EE708223CE702B070BD70470038014036
:10292000003C014000380240000002400AB18161D1
:102930007047090481617047436901EA030221EA93
:10294000030141EA024181617047000008B5054B6F
:102950005B69034200D108BD024B5861FFF792FA50
:10296000F9E700BF003C014003685A6912F4806F28
:1029700001D1002070476FF480625A610023036325
:10298000202280F83D2080F83E30026C42F00402A4
:10299000026480F83C30012070472DE9F041064682
:1029A0000C46174698463BE0FFF72CFE069BC01AE4
:1029B000404502D8B8F1000F32D1012D18D033684C
:1029C0009B6924EA03039BB2B3FA83F35B099F423A
:1029D00026D100233363202286F83D2086F83E303E
:1029E000326C42F02002326486F83C30012027E04D
:1029F00033685B6924EA03039BB2B3FA83F35B0990
:102A0000E5E733685B6924EA030C1FFA8CFCBCFA27
:102A10008CFC4FEA5C1C674511D1B8F1FF3FC3D174
:102A2000C4F30745012DECD033689B6924EA030CFD
:102A30001FFA8CFCBCFA8CFC4FEA5C1CEBE7002014
:102A4000BDE8F0812DE9F84305460E4690469946CB
:102A500053E01A6842F400721A602B686FF48062C7
:102A60005A6100232B63202285F83D2085F83E30F3
:102A70002A6C42F004022A6485F83C3001204AE0C6
:102A8000FFF7C0FDA0EB0900404502D8B8F1000FE8
:102A900033D1012F17D02B689B6926EA03039BB221
:102AA000003B18BF012343B300232B63202285F88A
:102AB0003D2085F83E302A6C42F020022A6485F8D9
:102AC0003C30012027E02B685B6926EA03039BB2B8
:102AD000003B18BF0123E6E72B689C6926EA040443
:102AE000A4B2003C18BF0124A4B12B685A6912F4A7
:102AF000806FAED1B8F1FF3FC2D1C6F30747012FB7
:102B0000EAD12B685C6926EA0404A4B2003C18BF31
:102B10000124E9E70020BDE8F88370B504460D46BE
:102B2000164623685B6913F0800F21D12046FFF71A
:102B30001BFFF8B9B5F1FF3FF3D0FFF763FD801B32
:102B4000A84201D8002DECD123685B6913F0800FF7
:102B5000E7D100232363202284F83D2084F83E300F
:102B6000226C42F02002226484F83C30012000E014
:102B7000002070BD0120FCE72DE9F04385B004463C
:102B80000D4691461F46DDF830800D9E036819689A
:102B900041F4807119600096434600224FF0011104
:102BA000FFF7FBFE60B9236805F0FE051D613346A3
:102BB000424626492046FFF745FF68B1012008E05C
:102BC00023681B6813F4807F02D04FF400732364E2
:102BD000032005B0BDE8F0830023039323685A69FE
:102BE00003929B690393039B324641462046FFF7BD
:102BF00094FF30B9012F0FD123685FFA89F61E6167
:102C0000E7E7236C042B01D00120E2E72268136878
:102C100043F400731360F7E723684FEA19221A613F
:102C2000324641462046FFF778FF20B923685FFA15
:102C300089F61E61CDE7236C042B01D00120C8E783
:102C40002268136843F400731360F7E70200010081
:102C50002DE9F04784B004460D46164699460C9F70
:102C6000DDF834800268136843F4806313600368FE
:102C7000196841F480711960CDF800803B4600224C
:102C80004FF00111FFF789FE70B95FFA85FA2368EA
:102C900005F0FE051D6143463A4641492046FFF7CF
:102CA000D1FE68B1012008E023681B6813F4807F1F
:102CB00002D04FF400732364032004B0BDE8F08712
:102CC0000023039323685A6903929B690393039B30
:102CD000424639462046FFF720FF80B9B9F1010F7F
:102CE00018D12368F6B21E61424639462046FFF7E6
:102CF00014FF68B3236C042B24D00120DDE7236C80
:102D0000042B01D00120D8E72268136843F4007334
:102D10001360F7E72368320A1A61424639462046B3
:102D2000FFF7FBFE18B92368F6B21E61DCE7236CDF
:102D3000042B01D00120C0E72268136843F400731C
:102D40001360F7E72268136843F400731360D4E755
:102D50002268136843F480731360CDF800803B460B
:102D600000224FF001112046FFF717FE68B92268D4
:102D70004AF00103136143463A4609492046FFF7EA
:102D800061FE002899D0012097E723681B6813F49F
:102D9000807F02D04FF40073236403208DE700BFCF
:102DA0000200010070B504460D46164623685B69B3
:102DB00013F0040F21D12046FFF7D6FDF8B9B5F185
:102DC000FF3FF3D0FFF71EFC801BA84201D8002D67
:102DD000ECD123685B6913F0040FE7D10023236370
:102DE000202284F83D2084F83E30226C42F02002FC
:102DF000226484F83C30012000E0002070BD0120F6
:102E0000FCE770B504460D46164614E06FF010025C
:102E10005A6100232363202284F83D2084F83E3049
:102E2000226C226484F83C30012025E023685B6931
:102E300013F0400F10D02368586910F0400F1AD1DA
:102E4000586910F0100FE1D1FFF7DCFB801BA8429E
:102E5000ECD8002DEFD1E9E700232363202284F88A
:102E60003D2084F83E30226C42F02002226484F837
:102E70003C30012000E0002070BD0000002800F080
:102E8000CC8070B5044690F83D30002B77D02423D9
:102E900084F83D302268136823F001031360226830
:102EA000136843F4004313602268136823F400435B
:102EB000136000F075FE62685A4B9A4264D85A4B10
:102EC00098428CBF00230123002B40F0A880574973
:102ED000A1FB00318B0C25686A6822F03F0242EAB0
:102EE00091426A6021680A6A22F03F0266684D4D8D
:102EF000AE424FD8013313430B622168CA6922F4F2
:102F00004F4222F0FF026668464B9E424CD8431E59
:102F10007600B3FBF6F3013340F6FC70034278D041
:102F2000C3F30B031343CB6121680B6823F0C00389
:102F3000E269206A024313430B6021688B6823F423
:102F4000034323F0FF032269E068024313438B60CD
:102F50002168CB6823F0FF036269A0690243134331
:102F6000CB602268136843F00103136000202064E3
:102F7000202384F83D30206384F83E0070BD80F843
:102F80003C30FEF7FBFC82E7294B98428CBF0023C4
:102F9000012399E74FF4967505FB03F3254DA5FB37
:102FA00003539B090133A6E7A368BBB9451E06EB93
:102FB000460CB5FBFCF50135C5F30B05B5FA85F5F7
:102FC0006D0945BBC3B9013806EB4603B0FBF3F30B
:102FD0000133C3F30B0343F40043A3E7451E06EBA1
:102FE000860C0CEB8C0CB5FBFCF50135C5F30B0521
:102FF000B5FA85F56D09E4E7013806EB860303EBC6
:103000008303B0FBF3F30133C3F30B0343F44043F7
:1030100088E7042386E7012384E701207047012025
:10302000ACE700BFA08601007F841E0083DE1B4347
:10303000FF083D00D34D62102DE9F04383B00446F4
:103040000F46904699460C9EFFF7DCFA054694F829
:103050003D00C0B2202803D0022003B0BDE8F083B9
:103060000095192301224B492046FFF796FC0028C2
:1030700040F0898094F83C30012B00F086800123D9
:1030800084F83C3023681A6812F0010F03D11A68E3
:1030900042F001021A602268136823F4006313608F
:1030A000212384F83D30402384F83E3000232364FC
:1030B0000A9B6362BDF82C306385638D2385364B94
:1030C000E362019500964B46424639462046FFF79B
:1030D00053FD00285BD1238D002B35D02A46314685
:1030E0002046FFF71AFD20BB626A236812781A6136
:1030F000626A531C6362218D013989B22185638D17
:103100009BB2013B9BB263852368586910F0040FA2
:10311000E1D00029DFD052781A61636A013363621B
:10312000238D013B2385638D9BB2013B9BB263855D
:10313000D1E7236C042B01D001208EE722681368AD
:1031400043F400731360F7E72A4631462046FFF741
:1031500029FE50B1236C042B01D001207DE72268A9
:10316000136843F400731360F7E72268136843F4AD
:1031700000731360202384F83D30002384F83E3030
:1031800084F83C3069E7022067E7022065E7012008
:1031900063E700BF020010000000FFFF2DE9F043CD
:1031A00087B004460F4690469946109EFFF72AFACC
:1031B000054694F83D00C0B2202804D002273846C6
:1031C00007B0BDE8F0830095192301228849204605
:1031D000FFF7E3FB002840F04D8194F83C30012BD1
:1031E00000F04A81012384F83C3023681A6812F009
:1031F000010F03D11A6842F001021A6022681368B5
:1032000023F400631360222384F83D30402384F8C4
:103210003E30002323640E9B6362BDF83C3063851F
:10322000638D2385734BE362019500964B464246BE
:1032300039462046FFF70CFD0746002840F01E8166
:10324000238D5BB9029323685A6902929A690292AC
:10325000029A1A6842F400721A6075E0012B0AD0D3
:10326000022B1AD00023059323685A6905929B69A3
:103270000593059B68E02268136823F4806313605C
:103280000023039323685A6903929A690392039A6D
:103290001A6842F400721A6056E02268136823F438
:1032A000806313602268136843F400631360002393
:1032B000049323685A6904929B690493049B43E036
:1032C0002A4631462046FFF79CFD002840F0D88072
:1032D00023681A69636A1A70636A01336362238D13
:1032E000013B2385638D9BB2013B9BB263852BE041
:1032F00000953346002240492046FFF74EFB002848
:1033000040F0C0802268136843F4007313602368A0
:103310001A69636A1A70626A531C6362238D013BE7
:103320002385638D9BB2013B9BB2638523681B6938
:103330005370636A01336362238D013B2385638D80
:103340009BB2013B9BB26385238D002B00F08980EB
:10335000032B53D8012BB3D0022BC9D00095334691
:10336000002225492046FFF718FB002840F08C80FA
:103370002268136823F48063136023681A69636A00
:103380001A70636A01336362238D013B2385638D69
:103390009BB2013B9BB263850095334600221649E0
:1033A0002046FFF7FAFA002870D12268136843F428
:1033B0000073136023681A69636A1A70626A531C87
:1033C0006362238D013B2385638D9BB2013B9BB2DE
:1033D000638523681B695370636A01336362238DBD
:1033E000013B2385638D9BB2013B9BB26385ABE7B9
:1033F000020010000000FFFF040001002A463146D1
:103400002046FFF7FEFC002842D123681A69636A50
:103410001A70636A01336362228D013A92B2228587
:10342000638D9BB2013B9BB263852368596911F0A0
:10343000040F89D0032A0FD023681A69636A1A70AF
:10344000636A01336362238D013B2385638D9BB2E5
:10345000013B9BB2638577E71A6822F480621A60A9
:10346000EAE7202384F83D30002384F83E3084F8D6
:103470003C30A4E60227A2E60227A0E601279EE64A
:1034800001279CE601279AE6012798E6012796E6A0
:10349000012794E690F83D30DBB2202B01D00220CA
:1034A0007047242380F83D300268136823F001033D
:1034B00013600268536A23F0100353620268536A70
:1034C000194351620268136843F00103136020231B
:1034D00080F83D300020704790F83D30DBB2202B63
:1034E00001D002207047242380F83D300268136821
:1034F00023F0010313600268536A9BB223F00F03A9
:10350000194389B251620268136843F001031360E2
:10351000202380F83D3000207047000010B582B0B5
:1035200000230193194B1A6C42F080521A641B6CF1
:1035300003F080530193019B154B01221A64FFF79E
:1035400061F80446134B5B6813F4803F08D1FFF722
:1035500059F8001BB0F57A7FF4D9032002B010BDF2
:103560000B4B01225A64FFF74DF80446094B5B6888
:1035700013F4003F07D1FFF745F8001BB0F57A7F41
:10358000F4D90320EAE70020E8E700BF0038024052
:1035900000000E4200700040002800F0E08170B58D
:1035A00082B00446036813F0010F3BD09F4B9B6829
:1035B00003F00C03042B2CD09C4B9B6803F00C03F2
:1035C000082B21D06368B3F5803F4FD0B3F5A02F0F
:1035D00052D0964B1A6822F480321A601A6822F48C
:1035E00080221A606368002B50D0FFF70BF8054665
:1035F0008E4B1B6813F4003F14D1FFF703F8401BF8
:103600006428F5D90320B1E1884B5B6813F4800F7F
:10361000D8D0864B1B6813F4003F03D06368002B9F
:1036200000F09F81236813F0020F54D07F4B9B68FA
:1036300013F00C0F3ED07D4B9B6803F00C03082B5E
:1036400033D0E368002B68D0794B01221A60FEF773
:10365000D9FF0546754B1B6813F0020F54D1FEF7D6
:10366000D1FF401B0228F5D903207FE16F4A136880
:1036700043F480331360B5E76C4B1A6842F4802240
:103680001A601A6842F480321A60ABE7FEF7BAFF9C
:103690000546664B1B6813F4003FC3D0FEF7B2FF2C
:1036A000401B6428F5D9032060E1604B5B6813F48C
:1036B000800FC6D15D4B1B6813F0020F03D0E36887
:1036C000012B40F05081594A136823F0F803216917
:1036D00043EAC1031360236813F0080F42D0636903
:1036E0006BB3534B0122C3F8802EFEF78BFF0546C8
:1036F0004E4B5B6F13F0020F34D1FEF783FF401B7C
:103700000228F5D9032031E1484A136823F0F80371
:10371000216943EAC1031360DDE7454B00221A60CB
:10372000FEF770FF0546414B1B6813F0020FD2D025
:10373000FEF768FF401B0228F5D9032016E13C4B39
:103740000022C3F8802EFEF75DFF0546374B5B6F06
:1037500013F0020F06D0FEF755FF401B0228F5D9E3
:10376000032003E1236813F0040F77D02F4B1B6C69
:1037700013F0805F33D1002301932C4B1A6C42F07D
:1037800080521A641B6C03F080530193019B012546
:10379000284B1B6813F4807F23D0A368012B34D0FF
:1037A000052B38D0214B1A6F22F001021A671A6FCD
:1037B00022F004021A67A368002B3DD0FEF722FF17
:1037C00006461A4B1B6F13F0020F46D1FEF71AFF85
:1037D000801B41F288339842F3D90320C6E00025CC
:1037E000D6E7144A136843F480731360FEF70AFFA8
:1037F0000646104B1B6813F4807FCED1FEF702FF04
:10380000801B0228F5D90320B0E0084A136F43F06B
:1038100001031367CFE7054B1A6F42F004021A67E2
:103820001A6F42F001021A67C5E700BF0038024074
:103830000000474200700040FEF7E4FE0646524B8F
:103840001B6F13F0020F08D0FEF7DCFE801B41F265
:1038500088339842F3D9032088E0EDB9A369002B9F
:1038600000F08380484A926802F00C02082A51D086
:10387000022B17D0454B00221A66FEF7C3FE044602
:10388000414B1B6813F0007F42D0FEF7BBFE001BCC
:103890000228F5D9032069E03B4A136C23F08053DA
:1038A0001364DBE7394B00221A66FEF7ABFE0546D0
:1038B000354B1B6813F0007F06D0FEF7A3FE401BBC
:1038C0000228F5D9032051E0E369226A1343626AB2
:1038D00043EA8213A26A5208013A43EA0243E26AC7
:1038E00043EA0263284A5360284B01221A66FEF716
:1038F00089FE0446244B1B6813F0007F06D1FEF7B7
:1039000081FE001B0228F5D903202FE000202DE0C6
:1039100000202BE0012B2BD01B4B5B6803F48001B4
:10392000E269914226D103F03F02216A8A4223D103
:10393000616A47F6C0721A40B2EB811F1ED103F4D0
:103940004031A26A5208013AB1EB024F18D103F09C
:103950007063E26AB3EB026F14D1002006E001202D
:103960007047012002E0012000E0002002B070BD9D
:103970000120FBE70120F9E70120F7E70120F5E747
:103980000120F3E70120F1E7003802400000474240
:1039900008B5254B9B6803F00C03042B3FD0082B84
:1039A0003FD1214B5A6802F03F025B6813F4800F4D
:1039B00012D01D4B5968C1F388111C480023A1FB8C
:1039C0000001FDF715FA184B5B68C3F3014301339F
:1039D0005B00B0FBF3F025E0134B5968C1F3881C82
:1039E0004FEA4C11B1EB0C006EEB0E0E4FEA8E134A
:1039F00043EA90638101091A63EB0E03DB0043EA9B
:103A00005173C90011EB0C0C43F100039902002320
:103A10004FEA8C2041EA9C51FDF7EAF9D3E70348CD
:103A200000E0034808BD00BF0038024040787D0137
:103A30000024F400002800F09B8070B50D46044679
:103A40004F4B1B6803F00F038B4208D2CBB24C4A9A
:103A50001370136803F00F038B4240F08B802368D0
:103A600013F0020F17D013F0040F04D0454A9368E7
:103A700043F4E0539360236813F0080F04D0414AE5
:103A8000936843F4604393603E4A936823F0F003E5
:103A9000A1680B439360236813F0010F32D0636871
:103AA000012B21D09A1E012A25D9364A126812F01C
:103AB000020F61D033498A6822F0030213438B60FE
:103AC000FEF7A0FD06462F4B9B6803F00C036268CF
:103AD000B3EB820F16D0FEF795FD801B41F28833C1
:103AE0009842F0D9032042E0264A126812F4003FBF
:103AF000E0D101203BE0234A126812F0007FD9D1C7
:103B0000012034E01E4B1B6803F00F03AB4207D9C2
:103B1000EAB21B4B1A701B6803F00F03AB422DD1A6
:103B2000236813F0040F06D0164A936823F4E05379
:103B3000E1680B439360236813F0080F07D0114A24
:103B4000936823F46043216943EAC1039360FFF75C
:103B50001FFF0C4B9B68C3F303130B4AD35CD84085
:103B60000A4B18600A4B1868FEF700FD002070BD74
:103B7000012070470120FAE70120F8E70120F6E76D
:103B8000003C024000380240D468000808000020D1
:103B900010000020014B1868704700BF080000208B
:103BA00008B5FFF7F7FF044B9B68C3F38223034A72
:103BB000D35CD84008BD00BF00380240E46800086C
:103BC0002DE9F04782B00546884617461E46FEF7A7
:103BD00019FD0A9B1B1A03EB0609FEF713FD82462B
:103BE0002B4B1B68C3F3CB3309FB03F301932B6807
:103BF0009C6838EA04030CBF4FF0010C4FF0000C36
:103C0000BC4540D0B6F1FF3FF1D0FEF7FBFCA0EB86
:103C10000A0048450AD2B9F1000F07D0019A02B153
:103C20004A46019B013B01939146E0E72A685368AD
:103C300023F0E00353606B68B3F5827F0BD0AB6A6F
:103C4000B3F5005F14D0012385F85130002385F8C7
:103C50005030032018E0AB68B3F5004F02D0B3F545
:103C6000806FECD12A68136823F040031360E6E705
:103C70002A68136823F4005313602A68136843F416
:103C800000531360DFE7002002B0BDE8F08700BFFB
:103C90000800002070B584B004460D461646009218
:103CA0000B4601220221FFF78BFFD0B9174B1B688F
:103CB000174AA2FB03235B0D4FF47A7202FB03F356
:103CC00003936368B3F5827F11D0039B3BB1039BE1
:103CD000013B039323689B6813F0800FF5D104B078
:103CE00070BD636D43F0200363650320F7E7009622
:103CF0002B46002280212046FFF762FF0028EED0ED
:103D0000636D43F0200363650320E8E708000020AB
:103D1000819F5E1600285AD010B50446436A33B915
:103D20004368B3F5827F05D00023C36102E000231E
:103D3000036143610023A36294F85130002B40D00B
:103D4000022384F851302268136823F04003136083
:103D5000636803F48273A26802F404421343E268C6
:103D600002F400621343226902F002021343626903
:103D700002F001021343A26902F400721343E269E4
:103D800002F038021343226A02F080021343A26A4F
:103D900002F40052216813430B60638B03F00403A9
:103DA000626A02F01002216813434B602268D369F3
:103DB00023F40063D36100206065012384F851304F
:103DC00010BD84F850302046FEF7CAF9B8E701204C
:103DD00070472DE9F04383B01D4690F85030012B19
:103DE00000F0D180044688469146012380F8503087
:103DF000FEF708FC074694F85160F6B2012E40F039
:103E0000BA80B8F1000F00F0B780B9F1000F00F0F0
:103E1000B380032384F8513000236365C4F83080F5
:103E2000A4F83490A4F83690A363A387E38763646F
:103E30002364A368B3F5004F1ED023681A6812F0FC
:103E4000400F03D11A6842F040021A60E368B3F5EC
:103E5000006F1CD0636813B1B9F1010F55D1226B0B
:103E6000236812781A73236B01332363E38E9BB2AA
:103E7000013B9BB2E38648E02268136823F04003CD
:103E800013602268136843F480431360D5E76368C6
:103E900013B1B9F1010F15D1226B23681288DA60D2
:103EA000236B02332363E38E9BB2013B9BB2E38619
:103EB00008E0FEF7A7FBC01BA84202D3B5F1FF3F05
:103EC00015D1A5B1E38E9BB2002B3CD023689A6834
:103ED00012F0020FEDD0226B1288DA60236B0233EE
:103EE0002363E38E9BB2013B9BB2E386EAE70123A7
:103EF00084F8513003263FE0FEF784FBC01BA84244
:103F000002D3B5F1FF3F19D1C5B1E38E9BB2D3B156
:103F100023689A6812F0020FEED0226B12781A739F
:103F2000236B01332363B4F836C01FFA8CFC0CF109
:103F3000FF3C1FFA8CFCA4F836C0E6E7012384F8A6
:103F40005130032618E03A4629462046FFF7A2FEE4
:103F500008B120236365A36833B901932368DA6845
:103F600001929B680193019B636D2BB9012384F837
:103F70005130002600E00226002384F850303046FD
:103F800003B0BDE8F0830226F9E7000030B4036A0D
:103F9000026A22F0010202624268846924F073041A
:103FA0000D682C4323F0020C8B6843EA0C03104D80
:103FB000A84203D005F58065A84205D123F0080387
:103FC000CD682B4323F00403094DA84203D005F527
:103FD0008065A84205D122F440724D692A438D695B
:103FE0002A43426084614A684263036230BC70477E
:103FF0000000014030B4036A026A22F48072026257
:104000004268C46924F0730C0C6844EA0C0523F47C
:1040100000738C6843EA0423114CA04203D004F5DA
:104020008064A04206D123F40063CC6843EA0423F1
:1040300023F480630A4CA04203D004F58064A042BC
:1040400007D122F440524C6942EA04128C6942EAD8
:1040500004124260C5614A68C263036230BC7047A3
:104060000000014030B4036A026A22F48052026206
:104070004468C26922F4E6420D6842EA052223F44C
:1040800000538D6843EA0533094DA84203D005F576
:104090008065A84204D124F480444D6944EA851423
:1040A0004460C2614A680264036230BC704700BF6A
:1040B0000000014010B4036A046A24F001040462A1
:1040C000846924F0F00C4CEA021223F00A030B433B
:1040D0008261036210BC704710B4036A046A24F062
:1040E00010040462846924F4704C4CEA023223F018
:1040F000A00343EA01138261036210BC7047836826
:1041000023F070030B4343F0070383607047000004
:1041100090F83D30DBB2012B32D1022380F83D30E4
:104120000368194A934220D0B3F1804F1DD0A2F505
:104130007C42934219D002F58062934215D002F579
:104140008062934211D002F5784293420DD002F57D
:104150007052934209D0A2F59432934205D01A6866
:1041600042F001021A60002070479A6802F00702CC
:10417000062A07D01A6842F001021A600020704730
:1041800001207047002070470000014090F83D304A
:10419000DBB2012B37D1022380F83D300268D368AF
:1041A00043F00103D3600368194A934220D0B3F16E
:1041B000804F1DD0A2F57C42934219D002F5806257
:1041C000934215D002F58062934211D002F57842F5
:1041D00093420DD002F57052934209D0A2F5943269
:1041E000934205D01A6842F001021A60002070471D
:1041F0009A6802F00702062A07D01A6842F0010204
:104200001A6000207047012070470020704700BFEF
:10421000000001407047704770477047704770B5A5
:1042200004460368DE681D6915F0020F10D016F011
:10423000020F0DD06FF002021A61012303770368A9
:104240009B6913F0030F5ED0FFF7E6FF002323778F
:1042500015F0040F12D016F0040F0FD023686FF082
:1042600004021A610223237723689B6913F4407FB9
:104270004FD02046FFF7D0FF0023237715F0080F1B
:1042800012D016F0080F0FD023686FF008021A61E1
:10429000042323772368DB6913F0030F40D0204603
:1042A000FFF7BAFF0023237715F0100F12D016F096
:1042B000100F0FD023686FF010021A6108232377C4
:1042C0002368DB6913F4407F31D02046FFF7A4FF59
:1042D0000023237715F0010F02D016F0010F2DD126
:1042E00015F0800F02D016F0800F2FD115F0400F7F
:1042F00002D016F0400F31D115F0200F02D016F089
:10430000200F33D170BDFFF786FF2046FFF785FFF2
:104310009CE72046FFF77FFF2046FFF77EFFABE7D5
:104320002046FFF778FF2046FFF777FFBAE72046E1
:10433000FFF771FF2046FFF770FFC9E723686FF0B2
:1043400001021A612046FDF7B7FDC9E723686FF047
:1043500080021A61204600F0DEFAC7E723686FF09A
:1043600040021A612046FFF759FFC5E723686FF046
:1043700020021A61204600F0CDFAC3E70368344AF0
:10438000904212D0B0F1804F0FD0A2F57C42904203
:104390000BD002F58062904207D002F58062904215
:1043A00003D002F57842904203D123F070034A68AB
:1043B0001343274A90422AD0B0F1804F27D0A2F56C
:1043C0007C42904223D002F5806290421FD002F5D9
:1043D000806290421BD002F57842904217D002F5DD
:1043E0007052904213D002F5806290420FD002F5D5
:1043F000806290420BD0A2F59832904207D002F52D
:104400008062904203D002F58062904203D123F48F
:104410004073CA68134323F080034A69134303605F
:104420008B68C3620B688362094B984203D003F523
:104430008063984201D10B690363012343610369DF
:1044400013F0010F03D0036923F0010303617047E8
:104450000000014040B310B5044690F83D30F3B180
:10446000022384F83D30214651F8040BFFF786FF04
:10447000012384F8463084F83E3084F83F3084F8D5
:10448000403084F8413084F8423084F8433084F876
:10449000443084F8453084F83D30002010BD80F869
:1044A0003C30FDF75FFFDBE70120704740B310B5FC
:1044B000044690F83D30F3B1022384F83D302146A4
:1044C00051F8040BFFF75AFF012384F8463084F8B3
:1044D0003E3084F83F3084F8403084F8413084F82E
:1044E000423084F8433084F8443084F8453084F80E
:1044F0003D30002010BD80F83C30FFF78BFEDBE73D
:104500000120704730B4036A026A22F0100202628E
:104510004468826922F4E6420D6842EA052223F0EB
:1045200020038D6843EA0513114DA84203D005F519
:104530008065A84206D123F08003CD6843EA0513C5
:1045400023F040030A4DA84203D005F58065A84238
:1045500007D124F440644D6944EA85048D6944EA36
:104560008504446082614A688263036230BC70479C
:104570000000014038B590F83C30012B66D004466D
:104580000D46012380F83C300C2A5AD8DFE802F0AF
:10459000075959591B5959593059595944000068FC
:1045A000FFF7F4FC2268936943F0080393612268E3
:1045B000936923F0040393612268936929690B438B
:1045C000936100203EE00068FFF79CFF226893693A
:1045D00043F4006393612268936923F480639361D9
:1045E00022689369296943EA01239361002029E045
:1045F0000068FFF7FFFC2268D36943F00803D3612A
:104600002268D36923F00403D3612268D36929693E
:104610000B43D361002015E00068FFF723FD2268FB
:10462000D36943F40063D3612268D36923F48063C0
:10463000D3612268D369296943EA0123D361002049
:1046400000E00120002384F83C3038BD0220FCE764
:1046500010B4846824F47F4C42EA03220A4342EAFD
:104660000C02826010BC704790F83C30012B78D06F
:1046700010B50446012380F83C30022380F83D3019
:104680000268936823F47F4323F0770393600B68F9
:10469000602B4CD029D8402B54D00CD9502B22D190
:1046A000CA6849680068FFF705FD50212068FFF7D8
:1046B00026FD002005E0202B0DD009D9302B0AD093
:1046C0000120012384F83D30002384F83C3010BDE4
:1046D0000BB1102B05D119462068FFF710FD002003
:1046E000EFE70120EDE70120EBE7B3F5805F34D081
:1046F000B3F5005F0CD1CB684A6889680068FFF7A2
:10470000A7FF2268936843F4804393600020D8E7B2
:10471000702B24D1CB684A6889680068FFF798FF3E
:104720002268936843F0770393600020C9E7CA6862
:1047300049680068FFF7D0FC60212068FFF7DFFCC4
:104740000020BEE7CA6849680068FFF7B3FC402153
:104750002068FFF7D4FC0020B3E70020B1E7012078
:10476000AFE70220704701F01F01012303FA01FCAB
:10477000036A23EA0C030362036A02FA01F10B43A2
:104780000362704710B504460846002942D194F8E8
:104790003E30DBB2013B18BF0123002B6ED1002855
:1047A00051D1022384F83E30012201462068FFF7F0
:1047B000DAFF2368334A934203D002F580629342C2
:1047C00003D15A6C42F400425A6423682D4A934242
:1047D00049D0B3F1804F46D0A2F57C42934242D0FB
:1047E00002F5806293423ED002F5806293423AD055
:1047F00002F57842934236D002F57052934232D09D
:10480000A2F5943293422ED01A6842F001021A6047
:10481000002032E0042908D008290DD094F8413056
:10482000DBB2013B18BF0123B7E794F83F30DBB29E
:10483000013B18BF0123B0E794F84030DBB2013BE5
:1048400018BF0123A9E7042805D0082807D00223B0
:1048500084F84130A8E7022384F83F30A4E702231C
:1048600084F84030A0E79A6802F00702062A07D0D1
:104870001A6842F001021A60002010BD0120FCE716
:104880000020FAE70000014090F83C30012B3CD0BA
:1048900010B4012380F83C30022380F83D300368D7
:1048A0005A689C6822F0700C0A6842EA0C025A604E
:1048B0000368174A93421AD0B3F1804F17D0A2F57C
:1048C0007C42934213D002F5806293420FD002F5EE
:1048D000806293420BD002F57842934207D002F5F2
:1048E0007052934203D0A2F59432934204D124F043
:1048F00080044A6814439C60012380F83D30002303
:1049000080F83C30184610BC70470220704700BF4A
:10491000000001407047704770B50D4E0D4D761B7D
:10492000B61006D0002455F8043B01349847A6423F
:10493000F9D1094E094D761B00F0D4F8B61006D017
:10494000002455F8043B01349847A642F9D170BDC4
:10495000F8680008F868000800690008F8680008AE
:10496000830730B548D0541E002A3FD0CAB2034650
:1049700001E0013C3AD303F8012B9D07F9D1032C48
:104980002DD9CDB245EA05250F2C45EA054536D986
:10499000A4F1100222F00F0C03F1200EE6444FEABE
:1049A000121C03F1100242E9045542E9025510328B
:1049B0007245F8D10CF1010214F00C0F03EB021256
:1049C00004F00F0C13D0ACF1040323F00303043301
:1049D000134442F8045B9342FBD10CF003042CB166
:1049E000CAB21C4403F8012B9C42FBD130BD644683
:1049F0001346002CF4D1F9E703461446BFE71A46E4
:104A0000A446E0E7024B13B1024800F005B8704736
:104A100000000000254A0008002301461A461846F7
:104A200000F01AB838B5084B084D5B1B9C1007D036
:104A3000043B1D44013C55F804399847002CF9D13A
:104A4000BDE8384000F054B8046900080069000867
:104A5000704700BF704700BF2DE9F047DFF87CA02A
:104A60000646DAF8000098460F469146FFF7F0FF39
:104A70001B4B1B68D3F8484124B365681F2D26DC07
:104A80005EB96B1C0235DAF80000636044F82570EB
:104A9000FFF7E0FF0020BDE8F08704EB850101236C
:104AA000C1F88890D4F88821AB401A43022EC4F88C
:104AB0008821C1F80881E4D1D4F88C211343C4F8CB
:104AC0008C31DEE703F5A674C3F84841D5E7DAF880
:104AD0000000FFF7BFFF4FF0FF30DCE7400400208D
:104AE000EC680008F8B500BFF8BC08BC9E467047EB
:0C4AF000F8B500BFF8BC08BC9E4670473B
:104AFC00783A0000793A00007A3A00006D2F735E24
:104B0C0032000000C2B02F73000000000000000053
:104B1C000000000000000000000000000000000881
:104B2C0008080808080800001818000000486C2441
:104B3C001200000000000000000000000000002433
:104B4C0024247F1212127F12121200000000081C83
:104B5C002A2A0A0C1828282A2A1C080800000022D5
:104B6C00251515152A585454542200000000000C29
:104B7C001212120A76252911916E00000006060405
:104B8C0003000000000000000000000000402010A6
:104B9C00100808080808081010204000000204083B
:104BAC00081010101010100808040200000000007B
:104BBC0008086B1C1C6B08080000000000000000BB
:104BCC00080808087F08080808000000000000001A
:104BDC0000000000000000000606040300000000B6
:104BEC0000000000FE0000000000000000000000BB
:104BFC0000000000000000000606000000008040DD
:104C0C0040202010100808040402020000000018C4
:104C1C002442424242424242241800000000000852
:104C2C000E08080808080808083E00000000003CB0
:104C3C004242422020100804427E00000000003C4A
:104C4C004242201820404042221C0000000000205C
:104C5C003028242422227E20207800000000007EB0
:104C6C000202021A26404042221C000000000038BA
:104C7C002402021A26424242241800000000007E40
:104C8C002222101008080808080800000000003C48
:104C9C004242422418244242423C000000000018C8
:104CAC002442424264584040241C00000000000092
:104CBC000000181800000000181800000000000088
:104CCC00000000080000000000080804000000407C
:104CDC00201008040204081020400000000000000E
:104CEC0000007F0000007F000000000000000002B8
:104CFC000408102040201008040200000000003CB2
:104D0C004242464020101000181800000000001C01
:104D1C00225A555555552D42221C00000000000802
:104D2C0008181414243C224242E700000000001F23
:104D3C002222221E22424242221F00000000007C3E
:104D4C004242010101010142221C00000000001F2F
:104D5C002242424242424242221F00000000003FD7
:104D6C004212121E12120242423F00000000003F8B
:104D7C004212121E12120202020700000000003C36
:104D8C002222010101712122221C0000000000E7F7
:104D9C00424242427E42424242E700000000003E54
:104DAC000808080808080808083E00000000007CF5
:104DBC0010101010101010101010110F00000077B0
:104DCC0022120A0E0A12122222770000000000079B
:104DDC000202020202020202427F0000000000777F
:104DEC00363636362A2A2A2A2A6B0000000000E3BF
:104DFC0046464A4A52525262624700000000001C6A
:104E0C002241414141414141221C00000000003F30
:104E1C00424242423E020202020700000000001C15
:104E2C002241414141414D53321C60000000003F82
:104E3C004242423E1212222242C700000000007C75
:104E4C004242020418204042423E00000000007F13
:104E5C004908080808080808081C0000000000E7BA
:104E6C004242424242424242423C0000000000E7C1
:104E7C004242222424141418080800000000006B7D
:104E8C00494949495555362222220000000000E7C5
:104E9C00422424181818242442E70000000000774C
:104EAC002222141408080808081C00000000007EC8
:104EBC002120101008040442423F0000007808082A
:104ECC00080808080808080808087800000002020A
:104EDC00040408080810102020204040001E101068
:104EEC00101010101010101010101E00003844007C
:104EFC0000000000000000000000000000000000A6
:104F0C000000000000000000000000FF0006080088
:104F1C000000000000000000000000000000000085
:104F2C000000003C4278444242FC000000000003B8
:104F3C000202021A26424242261A00000000000019
:104F4C0000000038440202024438000000000060F7
:104F5C00404040784442424264D8000000000000C7
:104F6C000000003C427E0202423C0000000000F0C7
:104F7C008808087E08080808083E000000000000A9
:104F8C000000007C22221C023C42423C0000000338
:104F9C000202023A4642424242E700000000000C84
:104FAC000C00000E08080808083E00000000003045
:104FBC0030000038202020202020221E000000037A
:104FCC0002020272120A1612227700000000000E72
:104FDC000808080808080808083E0000000000003F
:104FEC000000007F9292929292B7000000000000A5
:104FFC000000003B4642424242E700000000000035
:10500C000000003C42424242423C000000000000D2
:10501C000000001B26424242221E02070000000034
:10502C000000007844424242447840E00000000016
:10503C00000000774C040404041F00000000000072
:10504C000000007C42023C40423E00000000000098
:10505C000008083E0808080808300000000000009E
:10506C00000000634242424262DC0000000000008B
:10507C00000000E74224241408080000000000008F
:10508C00000000EB494955552222000000000000A9
:10509C000000007624181818246E00000000000090
:1050AC00000000E742242414180808070000000040
:1050BC000000007E22100808447E000000C0202062
:1050CC0020202010202020202020C00010101010A4
:1050DC0010101010101010101010101000060808EE
:1050EC000808081008080808080806000C32C20056
:1050FC0000000000000000000000000000000000A4
:10510C000000000000000000000000000000000093
:10511C000000000000000000000000000000000083
:10512C000000000000000000000000000000000073
:10513C000000000000000000000000000000000063
:10514C00000000000000C001C001C001C001C0018E
:10515C00C001C001800080008000800080008000C1
:10516C00800000000000000000008001C003C003AC
:10517C0080010000000000000000000000000000A2
:10518C000000E01CE01CF01E700E3807180308012C
:10519C00840000000000000000000000000000007F
:1051AC0000000000000000000000000000000000F3
:1051BC0000000000000000000000000000000000E3
:1051CC000000000000000000201020102010201013
:1051DC002010FE7FFE7F1008100810081008100821
:1051EC0010081008FE7FFE7F080408040804080459
:1051FC000804000000000000000000000000000097
:10520C000000000000010001C007601910311831C6
:10521C001839183938017001E001C0038007000FFC
:10522C00001D003900311C311C310C310C11180DD2
:10523C00E007000100010001000000000000000078
:10524C0000000000000000001C1036186308630CFE
:10525C0063046304630263026301361D9C3780227E
:10526C0080634063406320632063306310221836F0
:10527C00081C0000000000000000000000000000FE
:10528C000000000000000000F00098018C018C016F
:10529C008C018C018C00CC007800183E1C08360860
:1052AC00320863046304C304C303834306438E269A
:1052BC00781C00000000000000000000000000004E
:1052CC0000001C003C003C003000300010000C00C2
:1052DC0006000000000000000000000000000000BC
:1052EC0000000000000000000000000000000000B2
:1052FC0000000000000000000000000000000000A2
:10530C0000000040002000100008000C0004000603
:10531C0000030003000380018001800180018001F3
:10532C0080018001800100030003000300060006D9
:10533C00000C0008001000200040000000000000DD
:10534C000000020004000800100030002000600083
:10535C00C000C000C000800180018001800180017C
:10536C00800180018001C000C000C00060006000AE
:10537C0030001000080004000200000000000000D3
:10538C00000000000000000000000000000180038D
:10539C00800300011C713C79783DC0070001C007F7
:1053AC00783D3C791C710001800380038001000072
:1053BC0000000000000000000000000000000000E1
:1053CC0000000000000000000000000000000001D0
:1053DC00000100010001000100010001FC7F00013F
:1053EC0000010001000100010001000100000000AB
:1053FC0000000000000000000000000000000000A1
:10540C000000000000000000000000000000000090
:10541C000000000000000000000000000000000080
:10542C000000000000000000000000001C003C0018
:10543C003C003000300010000C00060000000000A2
:10544C000000000000000000000000000000000050
:10545C00000000000000000000000000FE7F0000C3
:10546C000000000000000000000000000000000030
:10547C000000000000000000000000000000000020
:10548C000000000000000000000000000000000010
:10549C000000000000000000000000000000000000
:1054AC000000000000000000000018003C003C0060
:1054BC0018000000000000000000000000000000C8
:1054CC0000000040006000200030001000180008B0
:1054DC00000C0004000600020003000180018000A3
:1054EC00C0004000600020003000100018000800D0
:1054FC000C00040006000200000000000000000088
:10550C000000000000000000C007600C30181830CC
:10551C00183018200C600C600C600C600C600C6077
:10552C000C600C600C601820183018303018600CAF
:10553C00C007000000000000000000000000000098
:10554C00000000000000000000018001F801800153
:10555C008001800180018001800180018001800137
:10556C008001800180018001800180018001C003E5
:10557C00F81F000000000000000000000000000008
:10558C000000000000000000E007101C08180430A8
:10559C0004300C300C3000300018000800040002FD
:1055AC000001800040002020102008200430FC1F47
:1055BC00FC1F0000000000000000000000000000C4
:1055CC000000000000000000E003180E0C0C0C188A
:1055DC000C180C180018000C0006C003000E001864
:1055EC000010003000300C300C300C100C18180C63
:1055FC00E0030000000000000000000000000000BC
:10560C000000000000000000000C000E000E000F57
:10561C00800E800E400E600E200E100E100E080E26
:10562C00040E040EFE7F000E000E000E000E000E87
:10563C00000EC07F00000000000000000000000011
:10564C000000000000000000F03FF03F10001000D0
:10565C00100008000800C807280C181808100030A3
:10566C000030003000300C300C3004180418080CDA
:10567C00F00300000000000000000000000000002B
:10568C000000000000000000800FC010203010301F
:10569C001800180008000C008C0F6C183C301C60B3
:1056AC000C600C600C600C601860182030306018B6
:1056BC00C007000000000000000000000000000017
:1056CC000000000000000000F83FF83F1C100C0820
:1056DC00040804040004000200020001000100019F
:1056EC00800080008000C000C000C000C000C0006E
:1056FC00C0000000000000000000000000000000DE
:10570C000000000000000000E007300C18180C30FE
:10571C000C300C301C3038187008E007B007180E2D
:10572C000C1C063806300630063006300C18180CE7
:10573C00E00300000000000000000000000000007A
:10574C000000000000000000E00318040C080C1816
:10575C000610063006300630063006380C3C18367B
:10576C00F03100300018001800180C0C0C060C035B
:10577C00F00100000000000000000000000000002C
:10578C00000000000000000000000000000000000D
:10579C000000000000008001C003C0038001000075
:1057AC00000000000000000000008001C003C003E6
:1057BC00800100000000000000000000000000005C
:1057CC0000000000000000000000000000000000CD
:1057DC00000000000000C000C0000000000000003D
:1057EC000000000000000000000000000000C000ED
:1057FC00C00080008000400040000000000000005D
:10580C00000000000000002000100008000400064A
:10581C0000038001C0006000300018000C0018006C
:10582C0030006000C0008001000300060004000886
:10583C00001000200000000000000000000000002C
:10584C00000000000000000000000000000000004C
:10585C00000000000000FE7F0000000000000000BF
:10586C000000FE7F000000000000000000000000AF
:10587C00000000000000000000000000000000001C
:10588C000000000000000400080010002000600070
:10589C00C000800100030006000C00180030001846
:1058AC00000C000600038001C00060002000100006
:1058BC0008000400000000000000000000000000D0
:1058CC00000000000000C0073018083008600C60B1
:1058DC001C601C601C600030001C00060001800075
:1058EC00800080008000000000008001C003C00325
:1058FC00800100000000000000000000000000001B
:10590C000000000000000000C007601810301820D4
:10591C000C2F8C4D864CC64CC64C664C664466446B
:10592C00662666266615CC1C0C40082018303018EC
:10593C00C007000000000000000000000000000094
:10594C000000000000000001C001C001C0014001C6
:10595C0060032003200320033006100610061006F7
:10596C00F80F080C080C080C0C0C0418041806187A
:10597C001F7C000000000000000000000000000080
:10598C000000000000000000FE07181C183818303A
:10599C001830183018301818180CF8071818183058
:1059AC0018201860186018601860186018301818E3
:1059BC00FE0F0000000000000000000000000000CE
:1059CC000000000000000000C027603810301820D4
:1059DC000C400C4004000600060006000600060001
:1059EC000600060006000C400C400C201830301845
:1059FC00C0070000000000000000000000000000D4
:105A0C000000000000000000FE03180E18181830EB
:105A1C00183018301860186018601860186018601A
:105A2C001860186018601830183018101818180EF4
:105A3C00FE03000000000000000000000000000059
:105A4C000000000000000000FE3F18301820186015
:105A5C001840180018081808180CF80F180C18081B
:105A6C001808180018001800184018401820183092
:105A7C00FE3F0000000000000000000000000000DD
:105A8C000000000000000000FE7F1870184018C0D5
:105A9C0018801800181018101818F81F181818105B
:105AAC00181018001800180018001800180018001A
:105ABC007E0000000000000000000000000000005C
:105ACC000000000000000000C013701C1010181023
