:020000040800F2
:100000000000032061390008253300082733000869
:10001000293300082B3300082D33000800000000AE
:100020000000000000000000000000002F33000866
:100030003133000800000000333300083933000872
:10004000B1390008B1390008B1390008B1390008E8
:10005000B1390008B1390008B1390008B1390008D8
:10006000B1390008B1390008B1390008B1390008C8
:10007000B1390008B1390008B1390008B1390008B8
:10008000B1390008B1390008B1390008B1390008A8
:10009000B1390008B1390008B13900081D34000831
:1000A000B1390008B1390008B1390008B139000888
:1000B0002D3400083D340008B1390008B13900087A
:1000C000B1390008B1390008B1390008B139000868
:1000D000B1390008D12B0008B1390008B139000846
:1000E000B1390008B1390008B1390008B139000848
:1000F000B1390008B13900084D340008B1390008A1
:10010000B1390008B1390008B1390008B139000827
:10011000B1390008B1390008B1390008B139000817
:10012000B1390008B1390008B1390008B139000807
:10013000B1390008B1390008B1390008B1390008F7
:10014000B1390008B1390008B1390008B1390008E7
:10015000B1390008B1390008B1390008B1390008D7
:10016000B1390008B1390008B1390008B1390008C7
:10017000B1390008B1390008B139000800000000A9
:10018000B1390008B1390008B1390008B1390008A7
:10019000B1390008B1390008B1390008B139000897
:0C01A000B1390008B1390008B13900087D
:1001B00010B5054C237833B9044B13B10448AFF3A1
:1001C00000800123237010BD5404002000000000B3
:1001D000407D000808B5034B1BB103490348AFF34A
:1001E000008008BD0000000058040020407D000889
:1001F00081F0004102E000BF83F0004330B54FEAD8
:1002000041044FEA430594EA050F08BF90EA020F44
:100210001FBF54EA000C55EA020C7FEA645C7FEAD7
:10022000655C00F0E2804FEA5454D4EB5555B8BFFA
:100230006D420CDD2C4480EA020281EA030382EA6B
:10024000000083EA010180EA020281EA0303362DFD
:1002500088BF30BD11F0004F4FEA01314FF4801CD0
:100260004CEA113102D0404261EB410113F0004FE2
:100270004FEA03334CEA133302D0524263EB430399
:1002800094EA050F00F0A780A4F10104D5F1200E37
:100290000DDB02FA0EFC22FA05F2801841F1000192
:1002A00003FA0EF2801843FA05F359410EE0A5F166
:1002B00020050EF1200E012A03FA0EFC28BF4CF097
:1002C000020C43FA05F3C01851EBE37101F000454D
:1002D00007D54FF0000EDCF1000C7EEB00006EEB5A
:1002E0000101B1F5801F1BD3B1F5001F0CD34908E4
:1002F0005FEA30004FEA3C0C04F101044FEA44523B
:1003000012F5800F80F09A80BCF1004F08BF5FEAC1
:10031000500C50F1000041EB045141EA050130BDA1
:100320005FEA4C0C404141EB0101013C28BFB1F5B3
:10033000801FE9D291F0000F04BF01460020B1FAFE
:1003400081F308BF2033A3F10B03B3F120020CDAD1
:100350000C3208DD02F1140CC2F10C0201FA0CF0AF
:1003600021FA02F10CE002F11402D8BFC2F1200C14
:1003700001FA02F120FA0CFCDCBF41EA0C019040CA
:10038000E41AA2BF01EB0451294330BD6FEA040413
:100390001F3C1CDA0C340EDC04F11404C4F12002FE
:1003A00020FA04F001FA02F340EA030021FA04F310
:1003B00045EA030130BDC4F10C04C4F1200220FA67
:1003C00002F001FA04F340EA0300294630BD21FAA5
:1003D00004F0294630BD94F0000F83F4801306BF6B
:1003E00081F480110134013D4EE77FEA645C18BF5F
:1003F0007FEA655C29D094EA050F08BF90EA020FF6
:1004000005D054EA000C04BF1946104630BD91EAED
:10041000030F1EBF0021002030BD5FEA545C05D1F0
:100420004000494128BF41F0004130BD14F580042F
:100430003CBF01F5801130BD01F0004545F0FE41A3
:1004400041F470014FF0000030BD7FEA645C1ABFD8
:10045000194610467FEA655C1CBF0B46024650EA0F
:10046000013406BF52EA033591EA030F41F400213B
:1004700030BD00BF90F0000F04BF0021704730B5C1
:100480004FF4806404F132044FF000054FF0000196
:1004900050E700BF90F0000F04BF0021704730B557
:1004A0004FF4806404F1320410F0004548BF40422C
:1004B0004FF000013EE700BF42004FEAE2014FEA81
:1004C00031014FEA02701FBF12F07F4393F07F4F5C
:1004D00081F06051704732F07F4208BF704793F05F
:1004E0007F4F04BF41F40021704730B54FF4607472
:1004F00001F0004521F000411CE700BF50EA010275
:1005000008BF704730B54FF000050AE050EA01021D
:1005100008BF704730B511F0004502D5404261EB8D
:1005200041014FF4806404F132045FEA915C3FF4CE
:10053000D8AE4FF003025FEADC0C18BF03325FEA6B
:10054000DC0C18BF033202EBDC02C2F1200300FA1C
:1005500003FC20FA02F001FA03FE40EA0E0021FA41
:1005600002F11444BDE600BF70B54FF0FF0C4CF42F
:10057000E06C1CEA11541DBF1CEA135594EA0C0FE1
:1005800095EA0C0F00F0DEF82C4481EA030621EA1C
:100590004C5123EA4C5350EA013518BF52EA033557
:1005A00041F4801143F4801338D0A0FB02CE4FF009
:1005B0000005E1FB02E506F00042E0FB03E54FF039
:1005C0000006E1FB03569CF0000F18BF4EF0010E31
:1005D000A4F1FF04B6F5007F64F5407404D25FEA2D
:1005E0004E0E6D4146EB060642EAC62141EA5551E0
:1005F0004FEAC52040EA5E504FEACE2EB4F1FD0C22
:1006000088BFBCF5E06F1ED8BEF1004F08BF5FEA9F
:10061000500E50F1000041EB045170BD06F0004651
:1006200046EA010140EA020081EA0301B4EB5C04FE
:10063000C2BFD4EB0C0541EA045170BD41F48011F6
:100640004FF0000E013C00F3AB8014F1360FDEBF1B
:10065000002001F0004170BDC4F10004203C35DAF7
:100660000C341BDC04F11404C4F1200500FA05F37A
:1006700020FA04F001FA05F240EA020001F000421B
:1006800021F0004110EBD37021FA04F642EB060191
:100690005EEA430E08BF20EAD37070BDC4F10C04BB
:1006A000C4F1200500FA04F320FA05F001FA04F27F
:1006B00040EA020001F0004110EBD37041F100016B
:1006C0005EEA430E08BF20EAD37070BDC4F1200576
:1006D00000FA05F24EEA020E20FA04F301FA05F2DE
:1006E00043EA020321FA04F001F0004121FA04F286
:1006F00020EA020000EBD3705EEA430E08BF20EA56
:10070000D37070BD94F0000F0FD101F0004640008F
:1007100041EB010111F4801F08BF013CF7D041EA11
:10072000060195F0000F18BF704703F00046520015
:1007300043EB030313F4801F08BF013DF7D043EAE6
:100740000603704794EA0C0F0CEA135518BF95EA9C
:100750000C0F0CD050EA410618BF52EA4306D1D123
:1007600081EA030101F000414FF0000070BD50EA42
:10077000410606BF1046194652EA430619D094EACC
:100780000C0F02D150EA013613D195EA0C0F05D1B6
:1007900052EA03361CBF104619460AD181EA03010A
:1007A00001F0004141F0FE4141F470014FF00000C2
:1007B00070BD41F0FE4141F4780170BD70B54FF05D
:1007C000FF0C4CF4E06C1CEA11541DBF1CEA1355DD
:1007D00094EA0C0F95EA0C0F00F0A7F8A4EB0504BF
:1007E00081EA030E52EA03354FEA013100F08880B6
:1007F0004FEA03334FF0805545EA131343EA12637F
:100800004FEA022245EA111545EA10654FEA002633
:100810000EF000419D4208BF964244F1FD0404F5EC
:10082000407402D25B084FEA3202B61A65EB030548
:100830005B084FEA32024FF480104FF4002CB6EB05
:10084000020E75EB030E22BFB61A754640EA0C0085
:100850005B084FEA3202B6EB020E75EB030E22BFC5
:10086000B61A754640EA5C005B084FEA3202B6EB06
:10087000020E75EB030E22BFB61A754640EA9C00C5
:100880005B084FEA3202B6EB020E75EB030E22BF95
:10089000B61A754640EADC0055EA060E18D04FEA53
:1008A000051545EA16754FEA06164FEAC30343EAF3
:1008B00052734FEAC2025FEA1C1CC0D111F4801FC0
:1008C0000BD141EA00014FF000004FF0004CB6E7B9
:1008D00011F4801F04BF01430020B4F1FD0C88BF58
:1008E000BCF5E06F3FF6AFAEB5EB030C04BFB6EB63
:1008F000020C5FEA500C50F1000041EB045170BD56
:100900000EF0004E4EEA113114EB5C04C2BFD4EB82
:100910000C0541EA045170BD41F480114FF0000E06
:10092000013C90E645EA060E8DE60CEA135594EA82
:100930000C0F08BF95EA0C0F3FF43BAF94EA0C0F85
:100940000AD150EA01347FF434AF95EA0C0F7FF4FA
:1009500025AF104619462CE795EA0C0F06D152EA4E
:1009600003353FF4FDAE1046194622E750EA410632
:1009700018BF52EA43067FF4C5AE50EA41047FF443
:100980000DAF52EA43057FF4EBAE12E74FF0FF3CA8
:1009900006E000BF4FF0010C02E000BF4FF0010C79
:1009A0004DF804CD4FEA410C7FEA6C5C4FEA430CF2
:1009B00018BF7FEA6C5C1BD001B050EA410C0CBF41
:1009C00052EA430C91EA030F02BF90EA020F0020A3
:1009D000704710F1000F91EA030F58BF994208BF0A
:1009E00090422CBFD8176FEAE37040F001007047C7
:1009F0004FEA410C7FEA6C5C02D150EA013C07D11E
:100A00004FEA430C7FEA6C5CD6D152EA033CD3D068
:100A10005DF8040B704700BF8446104662468C4662
:100A20001946634600E000BF01B5FFF7B7FF002895
:100A300048BF10F1000F01BD4DF808EDFFF7F4FFBE
:100A40000CBF012000205DF808FB00BF4DF808ED49
:100A5000FFF7EAFF34BF012000205DF808FB00BF6C
:100A60004DF808EDFFF7E0FF94BF012000205DF88E
:100A700008FB00BF4DF808EDFFF7CEFF94BF012043
:100A800000205DF808FB00BF4DF808EDFFF7C4FF3C
:100A900034BF012000205DF808FB00BF4FEA41028F
:100AA000B2F1E04324BFB3F5001CDCF1FE5C0DD9CC
:100AB00001F0004C4FEAC0024CEA5070B2F1004F16
:100AC00040EB830008BF20F00100704711F0804F19
:100AD00021D113F13872BCBF01F00040704741F4DE
:100AE00080114FEA5252C2F11802C2F1200C10FAE2
:100AF0000CF320FA02F018BF40F001004FEAC123C6
:100B00004FEAD32303FA0CFC40EA0C0023FA02F369
:100B10004FEA4303CCE77FEA625307D150EA01333F
:100B20001EBF4FF0FE4040F44000704701F000400F
:100B300040F0FE4040F40000704700BF80F00040ED
:100B400002E000BF81F0004142001FBF5FEA4103A5
:100B500092EA030F7FEA226C7FEA236C6AD04FEAA5
:100B60001262D2EB1363C1BFD218414048404140EA
:100B7000B8BF5B42192B88BF704710F0004F40F49C
:100B8000000020F07F4018BF404211F0004F41F4B8
:100B9000000121F07F4118BF494292EA030F3FD084
:100BA000A2F1010241FA03FC10EB0C00C3F1200397
:100BB00001FA03F100F0004302D5494260EB400026
:100BC000B0F5000F13D3B0F1807F06D340084FEA91
:100BD000310102F10102FE2A51D2B1F1004F40EB86
:100BE000C25008BF20F0010040EA030070474900EE
:100BF00040EB0000013A28BFB0F5000FEDD2B0FA8B
:100C000080FCACF1080CB2EB0C0200FA0CF0AABFAD
:100C100000EBC25052421843BCBFD040184370474B
:100C200092F0000F81F4000106BF80F40000013251
:100C3000013BB5E74FEA41037FEA226C18BF7FEA28
:100C4000236C21D092EA030F04D092F0000F08BF6A
:100C50000846704790EA010F1CBF0020704712F051
:100C60007F4F04D1400028BF40F00040704712F190
:100C700000723CBF00F50000704700F0004343F0F5
:100C8000FE4040F4000070477FEA226216BF08462B
:100C90007FEA23630146420206BF5FEA412390EAEE
:100CA000010F40F4800070474FF0000304E000BFE4
:100CB00010F0004348BF40425FEA000C08BF704795
:100CC00043F0964301464FF000001CE050EA010259
:100CD00008BF70474FF000030AE000BF50EA01026E
:100CE00008BF704711F0004302D5404261EB41015B
:100CF0005FEA010C02BF84460146002043F0B64380
:100D000008BFA3F18053A3F50003BCFA8CF2083AA4
:100D1000A3EBC25310DB01FA02FC634400FA02FCAD
:100D2000C2F12002BCF1004F20FA02F243EB0200B4
:100D300008BF20F00100704702F1200201FA02FC16
:100D4000C2F1200250EA4C0021FA02F243EB020009
:100D500008BF20EADC7070474FF0FF0C1CEAD0524D
:100D60001EBF1CEAD15392EA0C0F93EA0C0F6FD00E
:100D70001A4480EA010C400218BF5FEA41211ED0EC
:100D80004FF0006343EA501043EA5111A0FB0131D8
:100D90000CF00040B1F5000F3EBF490041EAD371AD
:100DA0005B0040EA010062F17F02FD2A1DD8B3F129
:100DB000004F40EBC25008BF20F00100704790F098
:100DC000000F0CF0004C08BF49024CEA502040EAEA
:100DD00051207F3AC2BFD2F1FF0340EAC2507047B0
:100DE00040F400004FF00003013A5DDC12F1190FEE
:100DF000DCBF00F000407047C2F10002410021FA60
:100E000002F1C2F1200200FA02FC5FEA310040F177
:100E1000000053EA4C0308BF20EADC70704792F0F0
:100E2000000F00F0004C02BF400010F4000F013A28
:100E3000F9D040EA0C0093F0000F01F0004C02BF23
:100E4000490011F4000F013BF9D041EA0C018FE792
:100E50000CEAD15392EA0C0F18BF93EA0C0F0AD098
:100E600030F0004C18BF31F0004CD8D180EA0100BE
:100E700000F00040704790F0000F17BF90F0004F57
:100E8000084691F0000F91F0004F14D092EA0C0F39
:100E900001D142020FD193EA0C0F03D14B0218BFCC
:100EA000084608D180EA010000F0004040F0FE4012
:100EB00040F40000704740F0FE4040F440007047AE
:100EC0004FF0FF0C1CEAD0521EBF1CEAD15392EA2D
:100ED0000C0F93EA0C0F69D0A2EB030280EA010C1D
:100EE00049024FEA402037D04FF0805343EA1111B6
:100EF00043EA10130CF000408B4238BF5B0042F114
:100F00007D024FF4000C8B4224BF5B1A40EA0C00B8
:100F1000B3EB510F24BFA3EB510340EA5C00B3EBEA
:100F2000910F24BFA3EB910340EA9C00B3EBD10FD8
:100F300024BFA3EBD10340EADC001B0118BF5FEA2A
:100F40001C1CE0D1FD2A3FF650AF8B4240EBC25053
:100F500008BF20F0010070470CF0004C4CEA502014
:100F60007F32C2BFD2F1FF0340EAC250704740F463
:100F700000004FF00003013A37E792F0000F00F055
:100F8000004C02BF400010F4000F013AF9D040EAD3
:100F90000C0093F0000F01F0004C02BF490011F467
:100FA000000F013BF9D041EA0C0195E70CEAD1535F
:100FB00092EA0C0F08D142027FF47DAF93EA0C0F46
:100FC0007FF470AF084676E793EA0C0F04D14B022A
:100FD0003FF44CAF08466EE730F0004C18BF31F0DC
:100FE000004CCAD130F000427FF45CAF31F00043D6
:100FF0007FF43CAF5FE700BF4FF0FF3C06E000BF6F
:101000004FF0010C02E000BF4FF0010C4DF804CD91
:101010004FEA40024FEA41037FEA226C18BF7FEAA1
:10102000236C11D001B052EA530C18BF90EA010FA3
:1010300058BFB2EB030088BFC81738BF6FEAE17032
:1010400018BF40F0010070477FEA226C02D15FEACE
:10105000402C05D17FEA236CE4D15FEA412CE1D03A
:101060005DF8040B704700BF844608466146FFE701
:101070000FB5FFF7C9FF002848BF10F1000F0FBDE3
:101080004DF808EDFFF7F4FF0CBF012000205DF8DC
:1010900008FB00BF4DF808EDFFF7EAFF34BF012061
:1010A00000205DF808FB00BF4DF808EDFFF7E0FFFA
:1010B00094BF012000205DF808FB00BF4DF808ED4B
:1010C000FFF7D2FF94BF012000205DF808FB00BFAE
:1010D0004DF808EDFFF7C8FF34BF012000205DF890
:1010E00008FB00BF4FEA4002B2F1FE4F0FD34FF0B2
:1010F0009E03B3EB12620DD94FEA002343F0004385
:1011000010F0004F23FA02F018BF404270474FF032
:101110000000704712F1610F01D1420205D110F0B9
:10112000004008BF6FF0004070474FF0000070476C
:1011300042000ED2B2F1FE4F0BD34FF09E03B3EB41
:10114000126209D44FEA002343F0004323FA02F06D
:1011500070474FF00000704712F1610F01D1420259
:1011600002D14FF0FF3070474FF00000704700BFD2
:1011700053B94AB9002908BF00281CBF4FF0FF31FE
:101180004FF0FF3000F074B9ADF1080C6DE904CEFA
:1011900000F006F8DDF804E0DDE9022304B0704752
:1011A0002DE9F047089E0D4604468846002B4DD198
:1011B0008A42944668D9B2FA82F252B101FA02F335
:1011C000C2F1200120FA01F10CFA02FC41EA030805
:1011D00094404FEA1C45210CB8FBF5FE1FFA8CF732
:1011E00005FB1E8341EA03430EFB07F199420BD92D
:1011F0001CEB03030EF1FF3080F01E81994240F298
:101200001B81AEF1020E63445B1AA4B2B3FBF5F08E
:1012100005FB103344EA034400FB07F7A7420AD951
:101220001CEB040400F1FF3380F00881A74240F278
:10123000058164440238E41B40EA0E4000211EB1DF
:10124000D4400023C6E90043BDE8F0878B4208D9AB
:10125000002E00F0EE800021C6E900050846BDE83A
:10126000F087B3FA83F100294AD1AB4202D382421C
:1012700000F2F980841A65EB030301209846002EE2
:10128000E2D0C6E90048DFE702B9FFDEB2FA82F237
:10129000002A40F09180A1EB0C054FEA1C471FFA91
:1012A0008CFE0121B5FBF7F307FB1350250C45EA33
:1012B00000450EFB03F0A84208D91CEB050503F11D
:1012C000FF3802D2A84200F2CB8043462D1AA4B2C6
:1012D000B5FBF7F007FB105544EA05440EFB00FE92
:1012E000A64508D91CEB040400F1FF3502D2A6453F
:1012F00000F2BB802846A4EB0E0440EA03409EE7C0
:10130000C1F120078B4022FA07FC4CEA030C20FABB
:1013100007F405FA01F31C43FD404FEA1C4900FAAB
:1013200001F3B5FBF9F8200C1FFA8CFE09FB1855E8
:1013300040EA054508FB0EF0A84202FA01F20BD97B
:101340001CEB050508F1FF3A80F08880A84240F2C6
:101350008580A8F1020865442D1AA4B2B5FBF9F006
:1013600009FB105544EA054500FB0EFEAE4508D9C1
:101370001CEB050500F1FF346CD2AE456AD902388A
:10138000654440EA0840A0FB0294A5EB0E05A54287
:10139000C846A64656D353D05EB1B3EB080265EB00
:1013A0000E0505FA07F722FA01F3CD401F43C6E9FF
:1013B00000750021BDE8F087C2F1200320FA03F197
:1013C0000CFA02FC25FA03F395400D434FEA1C4743
:1013D0001FFA8CFEB3FBF7F107FB11302B0C43EA2D
:1013E000004301FB0EF0984204FA02F408D91CEB0A
:1013F000030301F1FF382FD298422DD902396344FB
:101400001B1AADB2B3FBF7F007FB103345EA0345F7
:1014100000FB0EF3AB4208D91CEB050500F1FF38C9
:1014200016D2AB4214D902386544ED1A40EA0141A4
:1014300038E73146304607E78646E5E61846FAE6DD
:101440004B45A9D2B9EB020864EB0C0E0138A3E7B7
:101450004046EAE7204694E74146D1E7D0467BE79D
:10146000023B654432E7084609E76444023842E734
:10147000704700BF4FEA410C7FEA6C5C02D150EA32
:10148000013C0AD14FEA430C7FEA6C5C02D152EA7C
:10149000033C02D14FF0000070474FF0010070474D
:1014A00000B585B08DF80C008DF80D104FF0FF33AE
:1014B0000093022303AAEC21024803F031F905B09E
:1014C0005DF804FBB004002030B587B08DF80F0044
:1014D0000B4C4FF0FF35009501230DF10F02EC216D
:1014E000204603F01DF9009501230DF11702EC21B0
:1014F000204603F0D1F99DF8170007B030BD00BFBA
:10150000B004002008B543780178890041EA43110E
:1015100049B290F902301943C9B2F420FFF7C0FF75
:1015200008BD08B503784178890041EA431149B202
:1015300090F902301943C9B2F520FFF7B1FF08BD99
:1015400030B583B000F0EEFF8820FFF7BDFF054601
:101550008920FFF7B9FF03029BB2524C2268581949
:1015600010808A20FFF7B0FF05468B20FFF7ACFF05
:1015700003029BB22268581950808C20FFF7A4FF09
:1015800005468D20FFF7A0FF03029BB22268581981
:1015900090808E20FFF798FF05468F20FFF794FF7D
:1015A00003029BB222685819D0809020FFF78CFF6D
:1015B00005469120FFF788FF03029BB22268581965
:1015C00010819220FFF780FF05469320FFF77CFFF4
:1015D00003029BB22268581950819420FFF774FFD0
:1015E00005469520FFF770FF03029BB22268581949
:1015F00090819620FFF768FF05469720FFF764FF6C
:1016000003029BB222685819D0819820FFF75CFF33
:1016100005469920FFF758FF03029BB2226858192C
:1016200010829A20FFF750FF05469B20FFF74CFFE2
:1016300003029BB22268581950829C20FFF744FF96
:1016400005469D20FFF740FF03029BB22268581910
:1016500090829E20FFF738FF05469F20FFF734FF5A
:1016600003029BB222685819D082B621E020FFF70E
:1016700017FF04248DF8044001258DF8055003233D
:101680008DF806300DEB0400FFF73CFF8DF800509D
:101690008DF8014000238DF802306846FFF741FFC6
:1016A00003B030BD000000202DE9F84F05467A4B0D
:1016B0001868FEF7EFFE0022784BFEF755FF002278
:1016C000774BFEF799FD06460F4602460B46FEF79E
:1016D0004BFF80468946734B1C68B4F91000FEF737
:1016E000D9FE02460B4640464946FEF73DFF002222
:1016F0004FF07C53FEF738FF80468946B4F90E0060
:10170000FEF7C8FE32463B46FEF72EFF02460B466A
:10171000FEF774FD42464B46FEF770FD0022624B19
:10172000FEF722FF80468946B4F90C00FEF7B2FEB0
:1017300000225E4BFEF718FF02460B464046494624
:10174000FEF75CFD82468B46B4F90A00FEF7A2FE66
:1017500032463B46FEF708FF32463B46FEF704FFA3
:1017600000224FF07B53FEF7FFFE80468946B4F916
:101770000800FEF78FFE32463B46FEF7F5FE0246B6
:101780000B4640464946FEF739FD00224FF07B5399
:10179000FEF7EAFE00224FF07C53FEF7E5FE002242
:1017A000434BFEF72BFD06460F46E088FEF762FE30
:1017B00002460B4630463946FEF7D6FE06460F4631
:1017C00000220023FFF738F900285DD12846FEF7F4
:1017D00061FE02460B4600203649FEF70DFD8046AD
:1017E00089460022344B50465946FEF7BDFE02465C
:1017F0000B4640464946FEF7FFFC25A3D3E90023EC
:10180000FEF7B2FE32463B46FEF7D8FF06460F46CD
:10181000B4F91600FEF73EFE32463B46FEF7A4FE44
:1018200032463B46FEF7A0FE00224FF07853FEF70B
:101830009BFE80468946B4F91400FEF72BFE324623
:101840003B46FEF791FE00224FF07C53FEF78CFEE4
:1018500002460B4640464946FEF7D0FC8046894684
:10186000B4F91200FEF716FE02460B464046494602
:10187000FEF7C4FC0022114BFEF776FE32463B46D3
:10188000FEF7BCFCBDE8F88F00200021FAE700BF9E
:1018900000000000006AB840880400200000E03F1B
:1018A0000040EF40000000200000D03F0000F0406A
:1018B0000000F03F000030410000303F0000B03F2A
:1018C00038B5F920FFF700FE0546F820FFF7FCFDCC
:1018D0000446F720FFF7F8FD240144EA0034C5F37D
:1018E00007102043FFF7E0FE38BD10B5044600F0B6
:1018F00079F844F3C71000F03E0040F0400000F0DB
:1019000001F900F0C7F8E0B200F0FCF800F0C2F80E
:1019100000F094F810BD000008B510F4805F05D009
:10192000030A023B03F00703024AD054FFF7DDFF2E
:1019300008BD00BF8C04002008B5054B19540002F7
:1019400000F5905000B2084380B2FFF7CEFF08BD0B
:101950008C04002008B5012806D002280BD00328EB
:1019600010D0042815D008BD0D4B585C40F4A05091
:10197000FFF7D2FFF7E70A4B585C40F4A850FFF797
:10198000CBFFF0E7064B585C40F4B050FFF7C4FFC4
:10199000E9E7034B585C40F4B850FFF7BDFFE2E7BE
:1019A000587D000810B5002405E000212046FFF70F
:1019B000C3FF0134E4B2052CF7D940F20340FFF72E
:1019C000ABFF01210846FFF7C5FF02210846FFF7DC
:1019D000C1FF03210846FFF7BDFF04210846FFF7BA
:1019E000B9FF10BD10B5144C236823F040432360A9
:1019F000236843F08043236001224FF400412046D6
:101A000002F01DFA01224FF48041204602F017FA3D
:101A1000012000F07FFC00224FF40041204602F03C
:101A20000EFA012000F076FC00224FF4804120469F
:101A300002F005FA10BD00BF0008024010B5144CBA
:101A4000236823F040432360236843F080432360EE
:101A500000224FF48041204602F0F1F900224FF4B9
:101A60000041204602F0EBF9012000F053FC012276
:101A70004FF48041204602F0E2F9012000F04AFCD8
:101A800001224FF40041204602F0D9F910BD00BFF9
:101A90000008024038B51A4C236823F04043236005
:101AA0002368236001224FF40041204602F0C7F969
:101AB000012000F02FFC01224FF48041204602F06B
:101AC000BEF9012000F026FC00244FF400410C4830
:101AD00002F0AEF9054638B10134E4B2FA2CF4D97B
:101AE000FFF7ACFF012508E000224FF4804100F130
:101AF000804000F5023002F0A2F9284638BD00BF50
:101B00000008024070B504461C48036823F04043B7
:101B10000360036843F08043036000224FF4804178
:101B200002F08DF900251CE001224FF4004113481A
:101B300002F085F96400E4B2104E01224FF48041B6
:101B4000304602F07CF9012000F0E4FB00224FF463
:101B50008041304602F073F9012000F0DBFB0135D3
:101B6000EDB2072D08D8E309DED100224FF4004181
:101B7000024802F064F9DDE770BD00BF00080240D2
:101B80002DE9F04186B005464FF000088DF817802A
:101B90004FF47A770297012401940DF1170600960D
:101BA00023466B22D02102F0F5FF07238DF8173072
:101BB00002970194009623461922D021284602F06C
:101BC000E9FF8DF8178002970194009623461C22A6
:101BD000D021284602F0DEFF8DF81780029701948D
:101BE000009623461B22D021284602F0D3FF06B0E0
:101BF000BDE8F08170B586B00E4615461C464FF420
:101C00007A7302930623019304AB009301233B22D2
:101C1000D02103F071F89DF810209DF8113043EAAF
:101C2000022333809DF812209DF8133043EA0223EB
:101C30002B809DF814209DF8153043EA0223238061
:101C400006B070BD70B586B00E4615461C464FF402
:101C50007A7302930623019304AB0093012343227A
:101C6000D02103F049F89DF810209DF8113043EA87
:101C7000022333809DF812209DF8133043EA02239B
:101C80002B809DF814209DF8153043EA0223238011
:101C900006B070BD2DE9F04F87B080460F4616465E
:101CA0000021FFF7F7F9002854D14FF6FF7B002100
:101CB0003846FFF7EFF9002851D14FF6FF7A00219F
:101CC0003046FFF7E7F900284ED14FF6FF73059332
:101CD000202502954FF6FF7401944FF47849CDF812
:101CE00000900423424640218E2000F0A9FD029579
:101CF0000194CDF8009004233A4660218E2000F034
:101D00009FFD02950194CDF8009004233246802176
:101D10008E2000F095FD01260296019500945B4609
:101D20002D2240216E2000F08DFC0296019500943A
:101D300053462D2260216E2000F084FC029601950E
:101D40000094059B2D2280216E2000F07BFC07B0C3
:101D5000BDE8F08F28F000484FF4784BA7E727F054
:101D600000474FF4784AAAE726F000464FF478433C
:101D70000593ADE7000000002DE9F04F8BB08146E0
:101D8000884617461846FEF793FF0646BDF95000F1
:101D9000FEF78EFF0546BDF95400FEF789FF0446A5
:101DA0004846FEF785FF83464046FEF781FF8246A0
:101DB0003846FEF77DFF01901F4B1F6839463846B5
:101DC000FEF7CAFF02901D4BD3F8009049463846F3
:101DD000FEF7C2FF03901A4BD3F800804146384605
:101DE000FEF7BAFF049049464846FEF7B5FF059056
:101DF000144B1F6839464846FEF7AEFF0690414631
:101E00004046FEF7A9FF079039464046FEF7A4FF7B
:101E1000814639463846FEF79FFF07462946304639
:101E2000FEF79AFF2146FEF797FF0021FFF728F9FA
:101E300050B10BB0BDE8F08F04000020A0040020DA
:101E4000A4040020A8040020A8495846FEF784FFF7
:101E50000890A6495046FEF77FFF0990A3490198D4
:101E6000FEF77AFF019031463046FEF775FF804657
:101E700029462846FEF770FF01464046FEF764FEFD
:101E8000804621462046FEF767FF01464046FEF7A2
:101E90005BFEFEF711FB05F0C3F9FEF7FFFD804680
:101EA00001463046FFF70CF8064641462846FFF744
:101EB00007F8054641462046FFF702F88346049995
:101EC0000698FEF73FFE0146FEF73EFE04464946F1
:101ED0000398FEF739FE0146FEF736FE8146059966
:101EE0000298FEF72FFE0799FEF72CFE3946FEF703
:101EF0002BFE804601462846FEF72EFF82464946C5
:101F00005846FEF729FF01465046FEF71BFE824663
:101F100021465846FEF720FF834641463046FEF7ED
:101F20001BFF01465846FEF70DFE804649463046E7
:101F3000FEF712FF064621462846FEF70DFF014632
:101F40003046FEF7FFFD054669495046FEF704FF9F
:101F5000684C2168FEF7F8FD8146206064494046E0
:101F6000FEF7FAFE644C2168FEF7EEFD064620609F
:101F70005F492846FEF7F0FEDFF880B1DBF800107D
:101F8000FEF7E2FD0446CBF800005D495046FEF73F
:101F9000E3FE0899FEF7D8FD01464846FEF7D4FD5A
:101FA000074657494046FEF7D7FE0999FEF7CCFD94
:101FB00001463046FEF7C8FD064651492846FEF761
:101FC000CBFE0199FEF7C0FD01462046FEF7BCFDA1
:101FD0000546DFF83091D9F800A00AF100400297D9
:101FE0003946FEF7B9FE0446DFF81C81D8F800B088
:101FF000039631465846FEF7AFFE01462046FEF7EF
:10200000A1FD0446414E33680495294601931846C4
:10201000FEF7A2FE01462046FEF794FD3449FEF786
:102020009BFE3B4F3968FEF78FFD054638600299ED
:10203000FEF792FE044604995846FEF78DFE0146CF
:102040002046FEF781FD044603990198FEF784FEC1
:1020500001462046FEF776FD2549FEF77DFE014646
:102060005046FEF771FD0446C9F800000399284662
:10207000FEF772FE824604992046FEF76DFE014689
:102080005046FEF75FFD824602990198FEF764FE16
:1020900001465046FEF758FD1549FEF75DFE014624
:1020A0005846FEF751FD8246C8F8000004992846BC
:1020B000FEF752FE834603992046FEF74DFE014689
:1020C0005846FEF741FD834602995046FEF744FE0E
:1020D00001465846FEF736FD0549FEF73DFE01462E
:1020E0000198FEF731FD834614E000BF89A18B3AC9
:1020F0006F12033C94040020980400209C040020EC
:1021000000009041A0040020A4040020A8040020A6
:1021100004000020306029462846FEF71DFE0546D3
:1021200021462046FEF718FE01462846FEF70CFD24
:10213000044651465046FEF70FFE01462046FEF784
:1021400003FD044659465846FEF706FE0146204662
:10215000FEF7FAFCFEF7B0F905F062F8FEF79EFC18
:10216000044601463868FEF7ABFE05463860214656
:10217000D9F80000FEF7A4FE8346C9F80000214606
:10218000D8F80000FEF79CFE8246C8F80000214601
:102190003068FEF795FE044630604FF040415846E7
:1021A000FEF7DAFD01462046FEF7D6FD0446294635
:1021B0002846FEF7C9FC01465046FEF7CDFD014614
:1021C0002046FEF7C1FCFEF777F904F0FFFF4AA3B3
:1021D000D3E90023FEF7C8F9FEF760FC169B1860F0
:1021E000D8F8005029462846FEF7AEFC83463168F1
:1021F000FEF7B2FD824638680146FEF7A5FCD9F825
:1022000000402146FEF7A8FD01465046FEF79CFC23
:1022100082464FF040412046FEF79EFD0146204693
:10222000FEF79AFD044659462846FEF795FD0146FD
:102230002046FEF787FC4FF07E51FEF785FCFEF747
:102240003BF904460D465046FEF736F922462B462A
:1022500004F0E4FF28A3D3E90023FEF785F9FEF795
:102260001DFC169B5860D9F800000146FEF76CFC77
:10227000D8F800502946FEF76FFD804638680146C1
:10228000FEF762FC34682146FEF766FD01464046D3
:10229000FEF75AFC06464FF040412846FEF75CFD2B
:1022A00001462846FEF758FD054621462046FEF722
:1022B0004BFC01462046FEF74FFD01462846FEF73F
:1022C00041FC4FF07E51FEF73FFCFEF7F5F8044667
:1022D0000D463046FEF7F0F822462B4604F09EFFEE
:1022E00005A3D3E90023FEF73FF9FEF7D7FB169BC2
:1022F00098609EE5AFF3008000000020DCA54C4014
:1023000010B50446042001F027FC014B1C6010BDF1
:10231000AC04002010B44FF0E02254690B4B1B6852
:1023200000FB03FC9369002104E0E01A024411441D
:10233000614509D21A464FF0E0239B699A42FAD0D0
:10234000F3D9D21A1144F3E710BC7047AC04002053
:1023500038B50546002404E04FF47A70FFF7DAFF41
:102360000134A542F8D838BD2DE9F0478EB00024DD
:1023700009940A940B940C940D940194624B1A6B7B
:1023800042F004021A631A6B02F004020192019AED
:1023900002941A6B42F020021A631A6B02F02002B8
:1023A0000292029A03941A6B42F080021A631A6B2B
:1023B00002F080020392039A04941A6B42F0010225
:1023C0001A631A6B02F001020492049A05941A6BC4
:1023D00042F002021A631A6B02F002020592059A99
:1023E00006941A6B42F008021A631A6B02F0080294
:1023F0000692069A07941A6B42F040021A631A6B0F
:1024000002F040020792079A08941A6B42F4807215
:102410001A631B6B03F480730893089BDFF8ECA02E
:1024200022464FF44041504601F009FDDFF8E080BC
:1024300022460121404601F002FD364E22464FF46D
:102440000251304601F0FBFCDFF8CC9022464FF4FD
:102450008041484601F0F3FC304F224602213846C5
:1024600001F0EDFC4FF44043099301250A950B95CB
:102470000C9409A9504601F0DDFB09950A950B94CF
:102480000C9409A9404601F0D5FB802309930A95D5
:102490000B954FF00308CDF8308009A9304601F0C4
:1024A000C9FB4FF4804309930A950B940C9409A936
:1024B000484601F0BFFBC02309934FF404130A936D
:1024C0000B9409A9164801F0B5FB4FF4005309938A
:1024D0000A950B94CDF8308009A9304601F0AAFB8B
:1024E000022309930A950B940C9409A9384601F02C
:1024F000A1FB22462146172001F0D4FA172001F053
:1025000009FB0EB0BDE8F087003802400008024029
:1025100000000240001C0240000402400020024073
:102520000018024008B51348134B0360134B436077
:1025300000238360C3604FF4804202614361836182
:10254000C361036202F00EF850B90021094802F09D
:102550004FFD40B90021074802F06CFD30B908BDBD
:1025600000F0B3FBF1E700F0B0FBF3E700F0ADFBE8
:10257000F5E700BFB004002000580040A08601002D
:1025800030B589B000230393049305930693079312
:102590000268154B9A4201D009B030BD0025019563
:1025A000124C236B43F080032363236B03F08003FF
:1025B0000193019B3023039312230493012305937A
:1025C000032306930423079303A9094801F032FB70
:1025D0000295236C43F480032364236C03F480038B
:1025E0000293029BD8E700BF005800400038024029
:1025F000001C02402DE9F84381460F4615469846D7
:10260000BDF82060013B013A9BB292B200F0A8F9FC
:1026100008E0304600F086F90134A4B2AC42F8D3A9
:102620000137BFB2474501D24C46F7E7BDE8F88312
:1026300010B50B461446024600F092F9204600F011
:1026400071F910BD2DE9F04F87B0814603911E4608
:10265000BDF8405002959DF844B09DF848704FEA8F
:102660005B0A4FEA1B1303FB0BF50495203AD2B229
:10267000059200EB5B0292B20BEB01039BB2013BB4
:10268000013A9BB292B200F06BF94D464FF0000850
:10269000CDF804B0B34633E0234B059A03EB0213A5
:1026A00013F808603BE0029800F03CF90AE046FAB3
:1026B00004F313F0010F14D10135ADB2A5EB0903FA
:1026C000534514D00134E4B2072C15D8002FEED1B5
:1026D00046FA04F313F0010FE5D0584600F022F952
:1026E000F0E75A4603992846FFF7A2FFE4E7039B69
:1026F00001339BB203934D4608F101081FFA88F895
:10270000049B98450DD2019B102BC5D0019B202B1B
:1027100007D1064B059A03EB821313F808600024D7
:10272000D2E707B0BDE8F08F687D00085883000845
:102730002DE9F04784B00446884615461F46BDF88B
:1027400030A09DF834609DF838900DE0CDF80890E9
:102750000196CDF800A03B4641462046FFF772FFA8
:1027600004EB5604A4B201352A78002AEED104B055
:10277000BDE8F0870246012002E002FB00F01946A6
:102780004B1EDBB20029F8D1704700002DE9F04F55
:1027900087B08046049117461D46BDF8403005932A
:1027A000BDF844B09DF848904FEA590A00263446D7
:1027B00023E014FB0AF018FA80F000230293CDF80E
:1027C0000490CDF800B0059B2022049980B2FFF759
:1027D00039FF10E014FB0AF0303218FA80F00023C1
:1027E0000293CDF80490CDF800B0059BD2B20499C5
:1027F00080B2FFF727FF0134A4B2ABB2A3421AD9CB
:10280000291BC9B20139C9B20A20FFF7B3FFB7FBD0
:10281000F0F00A4AA2FB0032D20802EB8202A0EBDF
:10282000420291B2002ED5D16B1E9C42D2DA002911
:10283000BFD00126CEE707B0BDE8F08FCDCCCCCC21
:102840002DE9F04F87B0074604911E46BDF840B011
:10285000BDF844A09DF848804FEA58092449104625
:10286000FEF77AFAFEF764FC0590002511E004F10A
:10287000300205FB097000230293CDF80480CDF8E7
:1028800000A05B46D2B2049980B2FFF7DBFE0135AF
:10289000EDB2AE4228D9711BC9B20139C9B20A20C2
:1028A000FFF768FF059BB3FBF0F0124CA4FB00346C
:1028B000E40804EB8404A0EB4404E4B2B01E8542B7
:1028C000D5D100FB097000230293CDF80480CDF828
:1028D00000A05B462E22049980B2FFF7B3FE0135BB
:1028E000EDB20136F6B2C2E707B0BDE8F08F00BF27
:1028F0000000C842CDCCCCCC00B583B08DF8070029
:10290000022301220DF107010348006803F01FF8BC
:1029100003B05DF804FB00BF0800002008B5FFF716
:10292000EBFF08BD10B50446000AFFF7E5FFE0B273
:10293000FFF7E2FF10BD000038B50446074D002246
:102940008021284601F07BFA2046FFF7D5FF0122BF
:102950008021284601F073FA38BD00BF001C0240F8
:10296000F8B507460D4616461C462A20FFF7E4FF39
:102970003846FFF7D7FF3046FFF7D4FF2B20FFF78D
:10298000DBFF2846FFF7CEFF2046FFF7CBFF2C20CA
:10299000FFF7D2FFF8BD000010B5674C00224FF4DE
:1029A0000051204601F04BFA4FF4C870FFF7D0FCFD
:1029B00001224FF40051204601F041FAC820FFF7F0
:1029C000C7FC6420FFF7C4FC1120FFF7B5FF782097
:1029D000FFF7BEFC3620FFF7AFFF0020FFF79EFF9A
:1029E0003A20FFF7A9FF0520FFF798FFB220FFF775
:1029F000A3FF0C20FFF792FF0C20FFF78FFF0020B2
:102A0000FFF78CFF3320FFF789FF3320FFF786FFA6
:102A1000B720FFF791FF3520FFF780FFBB20FFF7BE
:102A20008BFF1920FFF77AFFC020FFF785FF2C20CE
:102A3000FFF774FFC220FFF77FFF0120FFF76EFF53
:102A4000C320FFF779FF1220FFF768FFC420FFF7CC
:102A500073FF2020FFF762FFC620FFF76DFF0F20F6
:102A6000FFF75CFFD020FFF767FFA420FFF756FFBA
:102A7000A120FFF753FFE020FFF75EFFD020FFF714
:102A80004DFF0420FFF74AFF0D20FFF747FF1120FD
:102A9000FFF744FF1320FFF741FF2B20FFF73EFF16
:102AA0003F20FFF73BFF5420FFF738FF4C20FFF794
:102AB00035FF1820FFF732FF0D20FFF72FFF0B2007
:102AC000FFF72CFF1F20FFF729FF2320FFF726FF2A
:102AD000E120FFF731FFD020FFF720FF0420FFF7B0
:102AE0001DFF0C20FFF71AFF1120FFF717FF13201F
:102AF000FFF714FF2C20FFF711FF3F20FFF70EFF19
:102B00004420FFF70BFF5120FFF708FF2F20FFF7AE
:102B100005FF1F20FFF702FF1F20FFF7FFFE202009
:102B2000FFF7FCFE2320FFF7F9FE2120FFF704FF4B
:102B30002920FFF701FF10BD001C0240402802D0F1
:102B4000802807D07047074B01221A60064B4022AD
:102B50005A61F5E7054B01221A60034B80225A6146
:102B6000F0E700BF2C050020003C014030050020AC
:102B700008B50368B3F1804F00D008BD104B1B6847
:102B8000012B10D00F4B1B68012BF6D10E4A136896
:102B9000323B13604FF480410C4801F056F9094B69
:102BA00000221A60E9E7084A1368323313604FF4D1
:102BB0008041064801F049F9014B00221A60E1E723
:102BC0002C050020300500201400002000040240E5
:102BD00010B5154C204604F09BF8144B01221A60E6
:102BE00003221349204604F0F2F900B110BD32234C
:102BF00003220F49204603F098FF0B4B1B681B680C
:102C000013F0400FF9D00A4B9B78452B05D00022DA
:102C10000121084801F013F9E8E7012211460548AF
:102C200001F00DF9E2E700BFEC06002038050020B6
:102C30004005002000000240C31F532B41D8DFE8AD
:102C400003F04340434040403A4040404040404011
:102C5000343840403640403E404040404040404094
:102C60004040404040404040404040404040404064
:102C70004040404040404040404040304040322E84
:102C80002A422C404040404040404040403C404070
:102C900040404040404301207047032070470420DB
:102CA00070470520704706207047082070470020B5
:102CB00070472A20704723207047502070476F20AC
:102CC0007047032070470220704772B6FEE700008D
:102CD00000B595B03022002108A804F0B5F9002312
:102CE000039304930593069307930193224A116C6F
:102CF00041F080511164126C02F080520192019AED
:102D000002931E4A116841F440411160126802F4B6
:102D100040420292029A0222089201210B91102154
:102D20000C910E920F9308231093B42311931292D7
:102D30000423139308A802F0DDF9B0B902F09CF95E
:102D4000A8B90F23039302230493002305934FF4A0
:102D5000A05306934FF480530793052103A802F074
:102D600017FC30B915B05DF804FBFFF7AEFFFFF7B5
:102D7000ACFFFFF7AAFF00BF003802400070004020
:102D80002DE9F04F85B000F03BFEFFF7A1FFFFF704
:102D9000EBFA00F039FA00F095FB00F00BFD00F0C3
:102DA000C9FBFFF7BFFB00F07FFD00F0FBFBA8486D
:102DB00002F0FAFFA74802F0F7FFA74C204602F006
:102DC000B5FFA64D0021284603F0D0FB042128467C
:102DD00003F0CCFB0C21204603F04AFCA04F3A68DC
:102DE000D36843F02003D3606420FFF789FAFFF72C
:102DF000D3FDFEF7D7FD9B48FEF7C2FEFEF7A0FB12
:102E000000F0E4F94FF6FF760096F0231A46002111
:102E10000846FFF7EFFB0024029420250195009659
:102E20001F23914A21460A20FFF782FC0294019554
:102E300000961F238D4A29460A20FFF779FC029449
:102E4000019500961F238A4A40210A20FFF770FC53
:102E50000294019500961F23864A60210A20FFF7FD
:102E600067FC0294019500961F23834A80210A2063
:102E7000FFF75EFC0294019500961F237F4AA02174
:102E80000A20FFF755FC0294019500961F237C4A07
:102E9000C0210A20FFF74CFC0294019500964FF4E4
:102EA0007843784AC021BE20FFF742FC0294019586
:102EB00000964FF47843744A2146BE20FFF738FC51
:102EC0000294019500964FF47843704A2946BE203B
:102ED000FFF72EFC224602216D4800F0B0FF1423BC
:102EE00006226C49384603F020FEDFF8ACA1DFF87B
:102EF000AC91DFF8AC815B4C53464A4641462046D4
:102F0000FEF778FE674F684E684D3B4632462946CD
:102F10002046FEF797FE664C0294BAF90030019302
:102F2000B9F900300093B8F90030B7F90020B6F9CC
:102F30000010B5F90000FEF71FFFFEF7C1FC804648
:102F4000894623685B4F3B606368DFF86CA1CAF871
:102F50000030A368DFF864B1CBF80030202402947D
:102F60004FF6FF7601964FF4784500950423544AB6
:102F7000128800217820FFF709FC0022514B4046BF
:102F80004946FDF71BFCFDF789FD024602940196B8
:102F90000095052321465A20FFF752FCDFF82881CF
:102FA000029401960095022398F80220A021822025
:102FB000FFF7ECFB454B1888FDF76CFA22A3D3E929
:102FC0000023FDF7D1FA0022414BFDF7CDFA002294
:102FD000404BFDF7C9FAFDF761FD024602940196E8
:102FE00000950523C0215020FFF72AFCDBF80020C4
:102FF000DAF800103868FEF74DFE00210120FEF7D8
:10300000A9FC00210220FEF7A5FC00210320FEF709
:10301000A1FC98F80200FFF70FFE01460420FEF71E
:1030200099FC1B4C01220221204600F008FF0A20D7
:10303000FFF770F900220221204600F000FFC820AF
:1030400000F00AFD51E700BFF168E388B5F8443F9E
:10305000CC05002014060020A40600205C060020F9
:10306000EC060020B0040020189B0008209B0008FC
:10307000289B0008309B0008389B0008409B0008F4
:10308000489B00084C9B0008509B0008549B00087C
:1030900000200240589B0008220500202005002047
:1030A0001E050020280500202605002024050020FC
:1030B00004050020340500203C05002044050020C4
:1030C0001400002000408F40400500201005002023
:1030D0000000E03F0040754040F6BA13984200DD22
:1030E00018460E4B83FB0023C017C0EBA300013929
:1030F000032912D8DFE801F002060A0E084B1B680C
:1031000058637047064B1B6898637047044B1B68F5
:10311000D8637047024B1B68186470476766666621
:103120005C060020016042608360009BC361019BDC
:10313000436270472DE9F04104460846E66826617F
:103140001146FDF7FFFC0546E0603146FDF7FAFC4D
:10315000A168FDF701FE074621682846FDF7FCFD42
:10316000804661682846FDF7F7FDA169FDF7ECFC94
:103170000546A061E6693146FDF7AAFF88B1A66160
:1031800041463846FDF7E0FCA169FDF7DDFC054648
:103190002062666A3146FDF79BFF60B12662BDE89A
:1031A000F08106F1004631462846FDF773FF0028FE
:1031B000E6D0A661E4E706F1004631462846FDF771
:1031C00069FF0028EBD02662E9E7000000B583B074
:1031D000074B0193074B0093074B1B68074A126884
:1031E000074909680748FFF79DFF03B05DF804FB36
:1031F00000401C46000048420C000020180500203A
:10320000100000204805002008B50E480E4B036052
:103210004FF48273436000238360C36003614361A2
:103220004FF4007282610822C261036243628362CA
:103230000A23C36202F02CFB00B908BDFFF745FD6D
:10324000FBE700BF7005002000500140F0B589B0D9
:103250000023039304930593069307930268204B7E
:103260009A4201D009B0F0BD0022009203F56843F4
:10327000596C41F480115964596C01F4801100912A
:1032800000990192196B41F020011963196B01F04B
:1032900020010191019902921A6B42F080021A6397
:1032A0001B6B03F080030293029B4FF400730393A4
:1032B0000227049701260596032506950524079401
:1032C00003A9084800F0B6FC402303930497059631
:1032D0000695079403A9044800F0ACFCC2E700BFC0
:1032E0000050014000140240001C024082B0002146
:1032F00000910B4B5A6C42F480425A645A6C02F4AF
:1033000080420092009A01911A6C42F080521A6435
:103310001B6C03F080530193019B02B0704700BF08
:1033200000380240FEE7FEE7FEE7FEE7FEE77047F3
:10333000704770470000000008B52F4B1888FDF754
:10334000A9F82BA3D3E90023FDF70EF900222B4B9C
:10335000FDF70AF900222A4BFDF706F9FDF79EFB5F
:10336000024628492848FFF7E5FE284B1B6873B939
:10337000274BB3F90030002B33D0234B186AFDF7ED
:10338000B1FE0121FFF7A8FE00F054FB08BD214B60
:103390009878FFF751FC50281ED007D95A2816D02C
:1033A0006F280BD11A4B01221A8007E0232809D07D
:1033B0002A2803D1184B40F2EE221A60134B002248
:1033C0001A60D5E7144B40F252321A60F6E7124AFF
:1033D000136814331360F1E70F4A1368143B13604A
:1033E000ECE701210C4B1868FFF776FECCE700BF35
:1033F0005B11908A5AF5443F100500200000E03F21
:103400000040754000004842480500203805002073
:10341000C8050020400500201400002008B5402009
:1034200000F01CFD802000F019FD08BD08B5024821
:1034300002F01CFD08BD00BFCC05002008B5024805
:1034400002F014FD08BD00BF1406002010B5174B94
:103450001B7863B90C21164802F0EBFC154B188061
:10346000124B01221A70124802F000FD10BD104CE0
:103470000C21204602F0DDFC00B20F4B18802368BF
:1034800000225A620B4B1B88984206DDC01A0B4B78
:103490001880064B00221A70E5E7984203DAC01A3A
:1034A000064B1880F5E7FFF710FCF2E71C0500203B
:1034B000A40600201205002014050020100500209D
:1034C0007047000000B587B0002302930393049374
:1034D00005930093019316484FF08042026040F23A
:1034E0003F624260836040F2F312C2600361836115
:1034F00002F0D8FD90B94FF48053029302A90C4812
:1035000002F0A6FF68B900230093019369460848BA
:1035100003F068F940B907B05DF804FBFFF7D5FB8D
:10352000E9E7FFF7D2FBEEE7FFF7CFFBF3E700BFDA
:10353000CC05002000B587B00023029303930493C9
:103540000593009301931548154A026040F23F62CB
:103550004260836040F2F312C2600361836102F053
:10356000A1FD90B94FF48053029302A90B4802F0D9
:103570006FFF68B90023009301936946074803F081
:1035800031F940B907B05DF804FBFFF79EFBE9E7AE
:10359000FFF79BFBEEE7FFF798FBF3E7140600202D
:1035A0000004004000B587B0002304930593009306
:1035B0000193029303931848184A02609F224260C5
:1035C00083604FF6FF72C26003614361836102F062
:1035D000C1FDB8B900230493059304A90E4803F074
:1035E00001F990B90A230093012301930023029368
:1035F00003930C226946084802F0BCFE40B907B0AC
:103600005DF804FBFFF761FBE4E7FFF75EFBE9E72A
:10361000FFF75BFBF3E700BFA406002000040140B6
:1036200000B585B00368B3F1804F08D01F4A9342BC
:103630001AD01F4A93422BD005B05DF804FB00213D
:10364000019103F50E331A6C42F001021A641B6CEF
:1036500003F001030193019B0A461C2000F022FAAB
:103660001C2000F057FAE7E700210291114B1A6C79
:1036700042F002021A641B6C03F002030293029BE5
:103680000A461D2000F00EFA1D2000F043FAD3E791
:1036900000230393074B1A6C42F004021A641B6C5C
:1036A00003F004030393039BC6E700BF000400403C
:1036B000000800400038024010B588B00023039392
:1036C0000493059306930793026803F1804303F57F
:1036D00082339A4201D008B010BD0024019403F552
:1036E0009A335A6C42F002025A645A6C02F0020297
:1036F0000192019A02941A6B42F480721A631B6B56
:1037000003F480730293029B042303930223049324
:103710000323079303A9064800F08CFA22462146AA
:103720002E2000F0BFF92E2000F0F4F9D3E700BFFF
:103730000020024030B589B0002303930493059321
:10374000069307930268184B9A4201D009B030BD26
:103750000025019503F50C331A6B42F008021A6339
:103760001A6B02F008020192019A02951A6B42F05C
:1037700002021A631B6B03F002030293029B4FF4D5
:103780004043039302240494079403A9074800F0DC
:1037900051FAC0230393049405950695079403A951
:1037A000034800F047FAD1E700080040000C02404F
:1037B0000004024000B58FB000230A930B930C93D2
:1037C0000D93089309930193029303930493059334
:1037D000069307933248334A0260F92242608360BD
:1037E000C2600361836102F05DFC00283FD14FF4A9
:1037F00080530A930AA92A4802F02AFE002839D1E8
:10380000274802F07BFC002837D100230893099356
:1038100008A9234802F0E6FF002831D16023019374
:103820001423029300220392059201A91C4802F07E
:10383000F5FC40BB7023019304220DEB02011848F4
:1038400002F0ECFC10BB60230193082201A914488C
:1038500002F0E4FCE8B90C2201A9114802F0DEFCF8
:10386000D0B90F48FFF766FF0FB05DF804FBFFF714
:103870002CFABCE7FFF729FAC2E7FFF726FAC4E7FC
:10388000FFF723FACAE7FFF720FAD3E7FFF71DFA9D
:10389000D9E7FFF71AFADEE7FFF717FAE1E700BF0B
:1038A0005C0600200008004008B50A480A4B036087
:1038B0004FF41653436000238360C36003610C22FE
:1038C00042618361C36103F000F900B908BDFFF7ED
:1038D000FCF9FBE7EC0600200010014010B588B0B1
:1038E000002303930493059306930793026803F15F
:1038F000804303F588339A4201D008B010BD0024FC
:10390000019403F594335A6C42F010025A645A6CD5
:1039100002F010020192019A02941A6B42F0010225
:103920001A631B6B03F001030293029B4FF4C06305
:103930000393022304930123059303230693072390
:10394000079303A9054800F075F922462146252072
:1039500000F0A8F8252000F0DDF8CEE700000240D6
:10396000DFF834D0FFF7ACFD0C480D490D4A0023B9
:1039700002E0D458C4500433C4188C42F9D30A4A24
:103980000A4C002301E013600432A242FBD303F08F
:1039900037FBFFF7F5F97047000003200000002017
:1039A00054040020049C0008540400203C0700201C
:1039B000FEE7000010B504460E4B18784FF47A73FA
:1039C000B3FBF0F30C4A1068B0FBF3F000F0B0F872
:1039D00068B90F2C01D901200AE0002221464FF0DE
:1039E000FF3000F05FF8054B1C60002000E0012074
:1039F00010BD00BF1C000020180000202000002087
:103A000008B50B4B1A6842F400721A601A6842F447
:103A100080621A601A6842F480721A60032000F013
:103A20002FF80F20FFF7C6FFFFF760FC002008BD4E
:103A3000003C0240034A1168034B1B780B4413609F
:103A4000704700BF340700201C000020014B18689D
:103A5000704700BF3407002038B50446FFF7F6FF73
:103A60000546B4F1FF3F02D0044B1B781C44FFF71E
:103A7000EDFF401BA042FAD338BD00BF1C00002060
:103A8000074AD36823F4E0631B041B0C000200F414
:103A9000E060034343F0BF6343F40033D3607047F7
:103AA00000ED00E000B5194BDB68C3F30223C3F15E
:103AB000070CBCF1040F28BF4FF0040C03F1040EF7
:103AC000BEF1060F18D9033B4FF0FF3E0EFA0CFC77
:103AD00021EA0C0199400EFA03F322EA0303194389
:103AE00000280BDB0901C9B200F1604000F561401C
:103AF00080F800135DF804FB0023E5E700F00F00F9
:103B00000901C9B2024B1954F4E700BF00ED00E00F
:103B100014ED00E0002807DB00F01F02400901233C
:103B20009340024A42F82030704700BF00E100E0B5
:103B30000138B0F1807F0BD24FF0E0235861054A85
:103B4000F02182F823100020986107221A61704743
:103B50000120704700ED00E0042806D04FF0E0227D
:103B6000136923F00403136170474FF0E0221369D7
:103B700043F004031361704770B50446866DFFF788
:103B800065FF94F83530DBB2022B06D080236365E5
:103B9000002384F83430012070BD05462268136884
:103BA00023F0160313602268536923F080035361E6
:103BB000236CE3B12268136823F0080313602268C2
:103BC000136823F00103136023681B6813F0010FCF
:103BD00011D0FFF73BFF431B052BF5D9202363656D
:103BE000032084F83500002384F83430D4E7A36C34
:103BF000002BDFD1E3E7E26D3F239340B360012365
:103C000084F83530002084F83400C5E790F835306A
:103C1000DBB2022B03D080234365012070470523CC
:103C200080F835300268136823F001031360002028
:103C30007047000000230F2B00F2F18070B582B0B6
:103C400061E085685E000324B44025EA0405CC6881
:103C5000B4402C438460456825EA02054C68C4F3EF
:103C600000129A402A4342605BE0DC08083450F8B6
:103C7000246003F0070295000F22AA4026EA020EF4
:103C80000A69AA4042EA0E0240F824205DE00922B7
:103C900000E0002202FA0EF22A430234604D45F899
:103CA0002420604A94686FEA0C0224EA0C054E68EE
:103CB00016F4801F01D04CEA04055A4CA560E46854
:103CC00002EA04054E6816F4001F01D04CEA040510
:103CD000544CE560646802EA04054E6816F4003F3F
:103CE00001D04CEA04054F4C6560246822404D68C1
:103CF00015F4803F01D04CEA04024A4C22600133A3
:103D00000F2B00F28A8001229A400C6804EA020C10
:103D100032EA0404F3D14C6804F00304013C012CA2
:103D20008FD94A6802F00302032A09D0C4685D00F3
:103D30000322AA4024EA02048A68AA402243C260FD
:103D40004A6802F00302022A8FD004684FEA430E49
:103D5000032202FA0EF224EA02044A6802F0030285
:103D600002FA0EF2224302604A6812F4403FC6D0C3
:103D7000002201922C4A546C44F480445464526CE6
:103D800002F480420192019A9C08A51C244A52F830
:103D9000255003F003024FEA820E0F2202FA0EF2C0
:103DA00025EA0205214A90423FF473AF02F5806292
:103DB000904222D002F58062904220D002F58062CB
:103DC00090421ED002F5806290421CD002F58062C3
:103DD00090421AD002F58062904218D002F58062BB
:103DE000904216D002F58062904214D002F58062B3
:103DF00090423FF44CAF0A224CE701224AE70222EC
:103E000048E7032246E7042244E7052242E7062268
:103E100040E707223EE708223CE702B070BD70474A
:103E200000380140003C01400038024000000240E0
:103E30000369194201D001207047002070470AB180
:103E400081617047090481617047436901EA030297
:103E500021EA030141EA02418161704708B5054B3F
:103E60005B69034200D108BD024B5861FEF766FE54
:103E7000F9E700BF003C014003685A6912F4806F03
:103E800001D1002070476FF480625A610023036300
:103E9000202280F83D2080F83E30026C42F004027F
:103EA000026480F83C30012070472DE9F04106465D
:103EB0000C46174698463BE0FFF7C8FD069BC01A24
:103EC000404502D8B8F1000F32D1012D18D0336827
:103ED0009B6924EA03039BB2B3FA83F35B099F4215
:103EE00026D100233363202286F83D2086F83E3019
:103EF000326C42F02002326486F83C30012027E028
:103F000033685B6924EA03039BB2B3FA83F35B096A
:103F1000E5E733685B6924EA030C1FFA8CFCBCFA02
:103F20008CFC4FEA5C1C674511D1B8F1FF3FC3D14F
:103F3000C4F30745012DECD033689B6924EA030CD8
:103F40001FFA8CFCBCFA8CFC4FEA5C1CEBE70020EF
:103F5000BDE8F0812DE9F84305460E4690469946A6
:103F600053E01A6842F400721A602B686FF48062A2
:103F70005A6100232B63202285F83D2085F83E30CE
:103F80002A6C42F004022A6485F83C3001204AE0A1
:103F9000FFF75CFDA0EB0900404502D8B8F1000F27
:103FA00033D1012F17D02B689B6926EA03039BB2FC
:103FB000003B18BF012343B300232B63202285F865
:103FC0003D2085F83E302A6C42F020022A6485F8B4
:103FD0003C30012027E02B685B6926EA03039BB293
:103FE000003B18BF0123E6E72B689C6926EA04041E
:103FF000A4B2003C18BF0124A4B12B685A6912F482
:10400000806FAED1B8F1FF3FC2D1C6F30747012F91
:10401000EAD12B685C6926EA0404A4B2003C18BF0C
:104020000124E9E70020BDE8F8830000F0B583B083
:1040300004460D4616461F46C36A082B0DD0012BB9
:104040000BD013F5803F08D0036B122B0AD1026806
:10405000136843F48073136004E02268136843F428
:10406000807313600097334600224FF00111204601
:10407000FFF71BFF80B92369B3F5804F16D1236882
:1040800005F0FE051D613B46324613492046FFF709
:1040900061FFF8B903B0F0BD23681B6813F4807F9B
:1040A00002D04FF4007323640320F3E7EB1122687E
:1040B00003F0060343F0F00313613B463246074921
:1040C0002046FFF747FF18B92368EDB21D61DAE714
:1040D0000120DFE70120DDE7020001000800010008
:1040E0002DE9F04184B004460D4616461F46C26ACB
:1040F00001680B6843F480630B60082A0DD0012A25
:104100000BD012F5803F08D0036B112B0AD1026847
:10411000136843F48073136004E02268136843F467
:10412000807313600097334600224FF00111204640
:10413000FFF7BBFE98B92369B3F5804F19D1236807
:1041400045F00105EDB21D613B4632462A49204645
:10415000FFF700FF00284CD104B0BDE8F0812368D0
:104160001B6813F4807F02D04FF400732364032094
:10417000F2E74FEAE51808F00608236848F0F00275
:104180001A613B4632461D492046FFF7E3FE08B15F
:104190000120E1E72368EDB21D613B463246164936
:1041A0002046FFF7D7FE08B10120D5E70022039291
:1041B000236859690391996903910399196841F436
:1041C00080711960009733464FF001112046FFF7C8
:1041D0006CFE20B9226848F0F1031361B4E723684C
:1041E0001B6813F4807F02D04FF400732364032014
:1041F000B2E70120B0E700BF0200010008000100A3
:1042000070B504460D46164623685B6913F0800FAF
:1042100021D12046FFF730FEF8B9B5F1FF3FF3D0CA
:10422000FFF714FC801BA84201D8002DECD12368B5
:104230005B6913F0800FE7D100232363202284F809
:104240003D2084F83E30226C42F02002226484F843
:104250003C30012000E0002070BD0120FCE70000A0
:104260002DE9F04385B004460D4691461F46DDF822
:1042700030800D9E0368196841F4807119600096C2
:10428000434600224FF00111FFF70FFE60B923688B
:1042900005F0FE051D613346424626492046FFF7DC
:1042A00059FE68B1012008E023681B6813F4807F81
:1042B00002D04FF400732364032005B0BDE8F083FF
:1042C0000023039323685A6903929B690393039B1A
:1042D000324641462046FFF793FF30B9012F0FD1F8
:1042E00023685FFA89F61E61E7E7236C042B01D08F
:1042F0000120E2E72268136843F400731360F7E7D4
:1043000023684FEA19221A61324641462046FFF7D8
:1043100077FF20B923685FFA89F61E61CDE7236C29
:10432000042B01D00120C8E72268136843F400730E
:104330001360F7E7020001002DE9F04784B004465E
:104340000D46164699460C9FDDF8348002681368C6
:1043500043F4806313600368196841F48071196045
:10436000CDF800803B4600224FF00111FFF79DFD84
:1043700070B95FFA85FA236805F0FE051D614346B2
:104380003A4641492046FFF7E5FD68B1012008E0C3
:1043900023681B6813F4807F02D04FF400732364FA
:1043A000032004B0BDE8F0870023039323685A6913
:1043B00003929B690393039B424639462046FFF7CD
:1043C0001FFF80B9B9F1010F18D12368F6B21E6141
:1043D000424639462046FFF713FF68B3236C042B8F
:1043E00024D00120DDE7236C042B01D00120D8E785
:1043F0002268136843F400731360F7E72368320AF6
:104400001A61424639462046FFF7FAFE18B923687A
:10441000F6B21E61DCE7236C042B01D00120C0E75B
:104420002268136843F400731360F7E72268136887
:1044300043F400731360D4E72268136843F4807375
:104440001360CDF800803B4600224FF0011120465A
:10445000FFF72BFD68B922684AF001031361434658
:104460003A4609492046FFF775FD002899D00120FA
:1044700097E723681B6813F4807F02D04FF4007322
:10448000236403208DE700BF0200010070B50446DD
:104490000D46164623685B6913F0040F21D12046B0
:1044A000FFF7EAFCF8B9B5F1FF3FF3D0FFF7CEFA1A
:1044B000801BA84201D8002DECD123685B6913F062
:1044C000040FE7D100232363202284F83D2084F8E1
:1044D0003E30226C42F02002226484F83C300120FD
:1044E00000E0002070BD0120FCE770B504460D46D9
:1044F000164614E06FF010025A6100232363202255
:1045000084F83D2084F83E30226C226484F83C30EC
:10451000012025E023685B6913F0400F10D0236869
:10452000586910F0400F1AD1586910F0100FE1D1FE
:10453000FFF78CFA801BA842ECD8002DEFD1E9E7F9
:1045400000232363202284F83D2084F83E30226C2F
:1045500042F02002226484F83C30012000E0002078
:1045600070BD0000002800F0CC8070B5044690F8C3
:104570003D30002B77D0242384F83D302268136827
:1045800023F0010313602268136843F400431360AF
:104590002268136823F40043136001F0AFF86268E7
:1045A0005A4B9A4264D85A4B98428CBF002301233D
:1045B000002B40F0A8805749A1FB00318B0C2568E7
:1045C0006A6822F03F0242EA91426A6021680A6A00
:1045D00022F03F0266684D4DAE424FD8013313437F
:1045E0000B622168CA6922F44F4222F0FF0266681A
:1045F000464B9E424CD8431E7600B3FBF6F3013384
:1046000040F6FC70034278D0C3F30B031343CB6135
:1046100021680B6823F0C003E269206A0243134358
:104620000B6021688B6823F4034323F0FF032269A6
:10463000E068024313438B602168CB6823F0FF03DB
:104640006269A06902431343CB602268136843F098
:104650000103136000202064202384F83D30206390
:1046600084F83E0070BD80F83C30FDF789FF82E79A
:10467000294B98428CBF0023012399E74FF496758C
:1046800005FB03F3254DA5FB03539B090133A6E767
:10469000A368BBB9451E06EB460CB5FBFCF501351E
:1046A000C5F30B05B5FA85F56D0945BBC3B90138EE
:1046B00006EB4603B0FBF3F30133C3F30B0343F400
:1046C0000043A3E7451E06EB860C0CEB8C0CB5FBF8
:1046D000FCF50135C5F30B05B5FA85F56D09E4E781
:1046E000013806EB860303EB8303B0FBF3F30133DE
:1046F000C3F30B0343F4404388E7042386E7012315
:1047000084E7012070470120ACE700BFA0860100CC
:104710007F841E0083DE1B43FF083D00D34D6210E3
:104720002DE9F04385B004460F46914698460C9E0D
:10473000FFF78CF9054694F83D00C0B2202804D05C
:104740000227384605B0BDE8F08300951923012201
:104750004F492046FFF7A9FB002840F0928094F8CB
:104760003C30012B00F08F80012384F83C3023681B
:104770001A6812F0010F03D11A6842F001021A60A0
:104780002268136823F400631360212384F83D300A
:10479000102384F83E3000232364C4F82490A4F846
:1047A0002A80638D23853B4BE3622B463246394694
:1047B0002046FFF73BFC0746002866D10023039301
:1047C00023685A6903929B690393039B11E0236C4E
:1047D000042B01D00127B4E72268136843F4007367
:1047E0001360F7E72A4631462046FFF74FFE0028C0
:1047F0002ED1238D002B36D02A4631462046FFF796
:10480000FFFC0028E3D1626A236812781A61606AAB
:10481000431C6362618D89B2013989B26185238D40
:10482000013B9BB223852268516911F0040FD9D056
:10483000002BD7D043781361636A01336362638DC1
:104840009BB2013B9BB26385238D013B2385C9E766
:10485000236C042B01D0012773E72268136843F40B
:1048600000731360F7E72268136843F40073136062
:10487000202384F83D30002384F83E3084F83C3017
:104880005FE702275DE702275BE7012759E700BFE3
:10489000020010000000FFFF2DE9F04387B004463E
:1048A0000F46914698460E9EFFF7D0F8054694F8BD
:1048B0003D00C0B2202804D00227384607B0BDE82A
:1048C000F08300951923012289492046FFF7EDFA6C
:1048D000002840F04F8194F83C30012B00F04C81CF
:1048E000012384F83C3023681A6812F0010F03D1C9
:1048F0001A6842F001021A602268136823F4006308
:104900001360222384F83D30102384F83E300023C6
:104910002364C4F82490A4F82A80638D2385754B02
:10492000E3622B46324639462046FFF7D9FB07465D
:10493000002840F02381238D5BB9029323685A69D4
:1049400002929A690292029A1A6842F400721A60FC
:104950007AE0012B0FD0022B1FD02268136843F49A
:10496000806313600023059323685A6905929B694D
:104970000593059B68E02268136823F48063136045
:104980000023039323685A6903929A690392039A56
:104990001A6842F400721A6056E02268136823F421
:1049A000806313602268136843F40063136000237C
:1049B000049323685A6904929B690493049B43E01F
:1049C0002A4631462046FFF790FD002840F0D88067
:1049D00023681A69636A1A70636A01336362238DFC
:1049E000013B2385638D9BB2013B9BB263852BE02A
:1049F00000953346002240492046FFF756FA00282A
:104A000040F0C0802268136843F400731360236889
:104A10001A69636A1A70626A531C6362238D013BD0
:104A20002385638D9BB2013B9BB2638523681B6921
:104A30005370636A01336362238D013B2385638D69
:104A40009BB2013B9BB26385218D002900F08980D8
:104A5000032953D80129B3D00229C9D00095334680
:104A6000002225492046FFF720FA002840F08C80DC
:104A70002268136823F48063136023681A69636AE9
:104A80001A70636A01336362238D013B2385618D54
:104A900089B2013989B261850095334600221649F1
:104AA0002046FFF702FA002870D12268136843F409
:104AB0000073136023681A69636A1A70626A531C70
:104AC0006362238D013B2385638D9BB2013B9BB2C7
:104AD000638523681B695370636A01336362238DA6
:104AE000013B2385638D9BB2013B9BB26385ABE7A2
:104AF000020010000000FFFF040001002A463146BA
:104B00002046FFF7F2FC002842D123681A69636A45
:104B10001A70636A01336362228D013A92B2228570
:104B2000638D9BB2013B9BB263852368596911F089
:104B3000040F89D0032A0FD023681A69636A1A7098
:104B4000636A01336362238D013B2385638D9BB2CE
:104B5000013B9BB2638577E71A6822F480621A6092
:104B6000EAE7202384F83D30002384F83E3084F8BF
:104B70003C30A2E60227A0E602279EE601279CE63B
:104B800001279AE6012798E6012796E6012794E691
:104B9000012792E62DE9F04383B004460F46904684
:104BA00099460C9EFEF752FF054694F83D00C0B2B0
:104BB000202803D0022003B0BDE8F083009519231C
:104BC00001224B492046FFF770F9002840F0898008
:104BD00094F83C30012B00F08680012384F83C30AF
:104BE00023681A6812F0010F03D11A6842F001021B
:104BF0001A602268136823F400631360212384F889
:104C00003D30402384F83E30002323640A9B6362D6
:104C1000BDF82C306385638D2385364BE3620195A7
:104C200000964B46424639462046FFF719FB0028BE
:104C30005BD1238D002B35D02A4631462046FFF725
:104C4000DFFA20BB626A236812781A61626A531C19
:104C50006362218D013989B22185638D9BB2013B4D
:104C60009BB263852368586910F0040FE1D00029D6
:104C7000DFD052781A61636A01336362238D013B8E
:104C80002385638D9BB2013B9BB26385D1E7236C87
:104C9000042B01D001208EE72268136843F40073CF
:104CA0001360F7E72A4631462046FFF7EFFB50B185
:104CB000236C042B01D001207DE72268136843F4A4
:104CC00000731360F7E72268136843F400731360FE
:104CD000202384F83D30002384F83E3084F83C30B3
:104CE00069E7022067E7022065E7012063E700BF6C
:104CF000020010000000FFFF2DE9F04387B00446DA
:104D00000F4690469946109EFEF7A0FE054694F881
:104D10003D00C0B2202804D00227384607B0BDE8C5
:104D2000F08300951923012288492046FFF7BDF83A
:104D3000002840F04D8194F83C30012B00F04A816E
:104D4000012384F83C3023681A6812F0010F03D164
:104D50001A6842F001021A602268136823F40063A3
:104D60001360222384F83D30402384F83E30002332
:104D700023640E9B6362BDF83C306385638D23859D
:104D8000734BE362019500964B46424639462046F6
:104D9000FFF7D2FA0746002840F01E81238D5BB949
:104DA000029323685A6902929A690292029A1A68D7
:104DB00042F400721A6075E0012B0AD0022B1AD05F
:104DC0000023059323685A6905929B690593059B07
:104DD00068E02268136823F4806313600023039360
:104DE00023685A6903929A690392039A1A6842F4F3
:104DF00000721A6056E02268136823F4806313601F
:104E00002268136843F4006313600023049323684B
:104E10005A6904929B690493049B43E02A463146F5
:104E20002046FFF762FB002840F0D88023681A690B
:104E3000636A1A70636A01336362238D013B2385C1
:104E4000638D9BB2013B9BB263852BE0009533469B
:104E5000002240492046FFF728F8002840F0C08093
:104E60002268136843F40073136023681A69636A45
:104E70001A70626A531C6362238D013B2385638D24
:104E80009BB2013B9BB2638523681B695370636AC5
:104E900001336362238D013B2385638D9BB2013B0C
:104EA0009BB26385238D002B00F08980032B53D8A0
:104EB000012BB3D0022BC9D00095334600222549DF
:104EC0002046FEF7F2FF002840F08C80226813682D
:104ED00023F48063136023681A69636A1A70636A33
:104EE00001336362238D013B2385638D9BB2013BBC
:104EF0009BB2638500953346002216492046FEF793
:104F0000D4FF002870D12268136843F40073136043
:104F100023681A69636A1A70626A531C6362238D7C
:104F2000013B2385638D9BB2013B9BB26385236864
:104F30001B695370636A01336362238D013B2385D0
:104F4000638D9BB2013B9BB26385ABE7020010000F
:104F50000000FFFF040001002A4631462046FFF70B
:104F6000C4FA002842D123681A69636A1A70636A16
:104F700001336362228D013A92B22285638D9BB226
:104F8000013B9BB263852368596911F0040F89D0F6
:104F9000032A0FD023681A69636A1A70636A01339F
:104FA0006362238D013B2385638D9BB2013B9BB2E2
:104FB000638577E71A6822F480621A60EAE72023A3
:104FC00084F83D30002384F83E3084F83C30A4E679
:104FD0000227A2E60227A0E601279EE601279CE61B
:104FE00001279AE6012798E6012796E6012794E62D
:104FF00090F83D30DBB2202B01D0022070472423F3
:1050000080F83D300268136823F0010313600268E2
:10501000536A23F0100353620268536A19435162C2
:105020000268136843F001031360202380F83D30C9
:105030000020704790F83D30DBB2202B01D00220D9
:105040007047242380F83D300268136823F0010381
:1050500013600268536A9BB223F00F03194389B2AD
:1050600051620268136843F001031360202380F843
:105070003D3000207047000010B582B0002301933E
:10508000194B1A6C42F080521A641B6C03F0805367
:105090000193019B154B01221A64FEF7D7FC0446CD
:1050A000134B5B6813F4803F08D1FEF7CFFC001B65
:1050B000B0F57A7FF4D9032002B010BD0B4B01226A
:1050C0005A64FEF7C3FC0446094B5B6813F4003FC7
:1050D00007D1FEF7BBFC001BB0F57A7FF4D90320A3
:1050E000EAE70020E8E700BF0038024000000E4277
:1050F00000700040002800F0E08170B582B00446E6
:10510000036813F0010F3BD09F4B9B6803F00C0327
:10511000042B2CD09C4B9B6803F00C03082B21D054
:105120006368B3F5803F4FD0B3F5A02F52D0964BB4
:105130001A6822F480321A601A6822F480221A60F7
:105140006368002B50D0FEF781FC05468E4B1B6830
:1051500013F4003F14D1FEF779FC401B6428F5D905
:105160000320B1E1884B5B6813F4800FD8D0864BE5
:105170001B6813F4003F03D06368002B00F09F818D
:10518000236813F0020F54D07F4B9B6813F00C0F71
:105190003ED07D4B9B6803F00C03082B33D0E368B3
:1051A000002B68D0794B01221A60FEF74FFC0546B0
:1051B000754B1B6813F0020F54D1FEF747FC401BE0
:1051C0000228F5D903207FE16F4A136843F4803346
:1051D0001360B5E76C4B1A6842F480221A601A68B3
:1051E00042F480321A60ABE7FEF730FC0546664BAE
:1051F0001B6813F4003FC3D0FEF728FC401B642853
:10520000F5D9032060E1604B5B6813F4800FC6D1D1
:105210005D4B1B6813F0020F03D0E368012B40F0D5
:105220005081594A136823F0F803216943EAC10306
:105230001360236813F0080F42D063696BB3534BBC
:105240000122C3F8802EFEF701FC05464E4B5B6F32
:1052500013F0020F34D1FEF7F9FB401B0228F5D9F9
:10526000032031E1484A136823F0F803216943EA37
:10527000C1031360DDE7454B00221A60FEF7E6FB31
:105280000546414B1B6813F0020FD2D0FEF7DEFB40
:10529000401B0228F5D9032016E13C4B0022C3F83D
:1052A000802EFEF7D3FB0546374B5B6F13F0020FE2
:1052B00006D0FEF7CBFB401B0228F5D9032003E103
:1052C000236813F0040F77D02F4B1B6C13F0805F13
:1052D00033D1002301932C4B1A6C42F080521A6494
:1052E0001B6C03F080530193019B0125284B1B6825
:1052F00013F4807F23D0A368012B34D0052B38D042
:10530000214B1A6F22F001021A671A6F22F0040271
:105310001A67A368002B3DD0FEF798FB06461A4B90
:105320001B6F13F0020F46D1FEF790FB801B41F27A
:1053300088339842F3D90320C6E00025D6E7144A03
:10534000136843F480731360FEF780FB0646104B2E
:105350001B6813F4807FCED1FEF778FB801B0228F8
:10536000F5D90320B0E0084A136F43F00103136737
:10537000CFE7054B1A6F42F004021A671A6F42F02A
:1053800001021A67C5E700BF00380240000047422B
:1053900000700040FEF75AFB0646524B1B6F13F09D
:1053A000020F08D0FEF752FB801B41F2883398426F
:1053B000F3D9032088E0EDB9A369002B00F08380C6
:1053C000484A926802F00C02082A51D0022B17D0EA
:1053D000454B00221A66FEF739FB0446414B1B6819
:1053E00013F0007F42D0FEF731FB001B0228F5D9F5
:1053F000032069E03B4A136C23F080531364DBE71E
:10540000394B00221A66FEF721FB0546354B1B6817
:1054100013F0007F06D0FEF719FB401B0228F5D9D8
:10542000032051E0E369226A1343626A43EA82136C
:10543000A26A5208013A43EA0243E26A43EA02637B
:10544000284A5360284B01221A66FEF7FFFA0446E9
:10545000244B1B6813F0007F06D1FEF7F7FA001B00
:105460000228F5D903202FE000202DE000202BE0BA
:10547000012B2BD01B4B5B6803F48001E269914246
:1054800026D103F03F02216A8A4223D1616A47F69E
:10549000C0721A40B2EB811F1ED103F44031A26AE0
:1054A0005208013AB1EB024F18D103F07063E26A7F
:1054B000B3EB026F14D1002006E0012070470120F9
:1054C00002E0012000E0002002B070BD0120FBE7F7
:1054D0000120F9E70120F7E70120F5E70120F3E7D4
:1054E0000120F1E7003802400000474208B5254B93
:1054F0009B6803F00C03042B3FD0082B3FD1214BBA
:105500005A6802F03F025B6813F4800F12D01D4B03
:105510005968C1F388111C480023A1FB0001FBF767
:1055200027FE184B5B68C3F3014301335B00B0FBFC
:10553000F3F025E0134B5968C1F3881C4FEA4C1176
:10554000B1EB0C006EEB0E0E4FEA8E1343EA906344
:105550008101091A63EB0E03DB0043EA5173C900B2
:1055600011EB0C0C43F10003990200234FEA8C204D
:1055700041EA9C51FBF7FCFDD3E7034800E00348F8
:1055800008BD00BF0038024040787D010024F400CF
:10559000002800F09B8070B50D4604464F4B1B68F9
:1055A00003F00F038B4208D2CBB24C4A137013683E
:1055B00003F00F038B4240F08B80236813F0020F3F
:1055C00017D013F0040F04D0454A936843F4E05316
:1055D0009360236813F0080F04D0414A936843F4A2
:1055E000604393603E4A936823F0F003A1680B4345
:1055F0009360236813F0010F32D06368012B21D030
:105600009A1E012A25D9364A126812F0020F61D07B
:1056100033498A6822F0030213438B60FEF716FABF
:1056200006462F4B9B6803F00C036268B3EB820FB6
:1056300016D0FEF70BFA801B41F288339842F0D95E
:10564000032042E0264A126812F4003FE0D1012014
:105650003BE0234A126812F0007FD9D1012034E0E8
:105660001E4B1B6803F00F03AB4207D9EAB21B4B7A
:105670001A701B6803F00F03AB422DD1236813F09F
:10568000040F06D0164A936823F4E053E1680B43F5
:105690009360236813F0080F07D0114A936823F42E
:1056A0006043216943EAC1039360FFF71FFF0C4B7E
:1056B0009B68C3F303130B4AD35CD8400A4B1860B2
:1056C0000A4B1868FEF776F9002070BD012070477C
:1056D0000120FAE70120F8E70120F6E7003C02404C
:1056E00000380240609B00081800002020000020C5
:1056F000014B1868704700BF1800002008B5FFF77D
:10570000F7FF044B9B68C3F38223034AD35CD84062
:1057100008BD00BF00380240709B000808B5FFF7C5
:10572000E7FF044B9B68C3F34233034AD35CD84082
:1057300008BD00BF00380240709B00082DE9F0470B
:1057400082B00546884617461E46FEF77FF90A9B3B
:105750001B1A03EB0609FEF779F982462B4B1B68EF
:10576000C3F3CB3309FB03F301932B689C6838EA3E
:1057700004030CBF4FF0010C4FF0000CBC4540D0AF
:10578000B6F1FF3FF1D0FEF761F9A0EB0A00484502
:105790000AD2B9F1000F07D0019A02B14A46019B23
:1057A000013B01939146E0E72A68536823F0E00348
:1057B00053606B68B3F5827F0BD0AB6AB3F5005FC3
:1057C00014D0012385F85130002385F85030032090
:1057D00018E0AB68B3F5004F02D0B3F5806FECD1A1
:1057E0002A68136823F040031360E6E72A68136809
:1057F00023F4005313602A68136843F400531360C2
:10580000DFE7002002B0BDE8F08700BF18000020ED
:1058100070B584B004460D46164600920B46012230
:105820000221FFF78BFFD0B9174B1B68174AA2FB69
:1058300003235B0D4FF47A7202FB03F30393636857
:10584000B3F5827F11D0039B3BB1039B013B0393D4
:1058500023689B6813F0800FF5D104B070BD636DB1
:1058600043F0200363650320F7E700962B460022F0
:1058700080212046FFF762FF0028EED0636D43F0E1
:10588000200363650320E8E718000020819F5E166F
:1058900000285AD010B50446436A33B94368B3F5BB
:1058A000827F05D00023C36102E0002303614361CE
:1058B0000023A36294F85130002B40D0022384F8D7
:1058C00051302268136823F040031360636803F4C7
:1058D0008273A26802F404421343E26802F4006295
:1058E0001343226902F002021343626902F00102CB
:1058F0001343A26902F400721343E26902F0380212
:105900001343226A02F080021343A26A02F4005297
:10591000216813430B60638B03F00403626A02F097
:105920001002216813434B602268D36923F400639B
:10593000D36100206065012384F8513010BD84F8E4
:1059400050302046FDF782FCB8E7012070472DE972
:10595000F04383B01D4690F85030012B00F0D18009
:10596000044688469146012380F85030FEF76EF8D1
:10597000074694F85160F6B2012E40F0BA80B8F1B3
:10598000000F00F0B780B9F1000F00F0B3800323DF
:1059900084F8513000236365C4F83080A4F8349053
:1059A000A4F83690A363A387E38763642364A368A2
:1059B000B3F5004F1ED023681A6812F0400F03D1D0
:1059C0001A6842F040021A60E368B3F5006F1CD019
:1059D000636813B1B9F1010F55D1226B23681278B6
:1059E0001A73236B01332363E38E9BB2013B9BB29B
:1059F000E38648E02268136823F0400313602268BE
:105A0000136843F480431360D5E7636813B1B9F1B9
:105A1000010F15D1226B23681288DA60236B0233E1
:105A20002363E38E9BB2013B9BB2E38608E0FEF763
:105A30000DF8C01BA84202D3B5F1FF3F15D1A5B1A7
:105A4000E38E9BB2002B3CD023689A6812F0020FC1
:105A5000EDD0226B1288DA60236B02332363E38E6E
:105A60009BB2013B9BB2E386EAE7012384F8513005
:105A700003263FE0FDF7EAFFC01BA84202D3B5F1C1
:105A8000FF3F19D1C5B1E38E9BB2D3B123689A68A9
:105A900012F0020FEED0226B12781A73236B0133CF
:105AA0002363B4F836C01FFA8CFC0CF1FF3C1FFADC
:105AB0008CFCA4F836C0E6E7012384F851300326B5
:105AC00018E03A4629462046FFF7A2FE08B12023F7
:105AD0006365A36833B901932368DA6801929B6810
